:020000002F29A6
:10000600831603139818092800000328831244084E
:040016009900080045
:10001A000B3083120313FB002630FC005D30FD0019
:10002A00FD0B1528FC0B1528FB0B152800000000FA
:02003A000800BC
:10003C0083120313C201410884000008C300430863
:10004C00003A031933284308C4000320C20A4208AB
:0C005C00410784000008C30025280800AC
:10006800413083120313C40003205430C40003201A
:100078000D30C40003200A30C40003200D203330A3
:10008800840041308000840A54308000840A44305F
:100098008000840A30308000840A39308000840A65
:1000A80039308000840A32308000840A343080007D
:1000B800840A30308000840A39308000840A313064
:1000C8008000840A33308000840A36308000840A35
:1000D8008001840A3330C1001E203B30C400032055
:1000E8000D30C40003200A30C40003200D200D2069
:1000F8000D200D200D200D200D200D200D200D2090
:100108004130B3005430B4004830B500B601333044
:10011800C1001E200D30C40003200A30C400032093
:100128000D30C40003200A30C40003200D200D2028
:100138000D200D200D200D200D200D200D200D204F
:020148000800AD
:10014A001A3083120313C40003200D204130C40067
:10015A0003205430C40003200D30C40003200A30A9
:0E016A00C40003200D200D200D200D200800E4
:10017800413083120313B3005430B400B501333057
:10018800C1001E200D30C40003200A30C400032023
:100198000D203330840041308000840A54308000C0
:1001A800840A2B308000840A43308000840A4D3052
:1001B8008000840A47308000840A53308000840A13
:1001C8008001840A3330C1001E203D30C400032062
:1001D8002230C40003203330840030308000840A89
:1001E80039308000840A39308000840A3230800037
:1001F800840A34308000840A30308000840A393020
:100208008000840A31308000840A33308000840AF8
:1002180036308000840A8001840A3330C1001E20F1
:100228002230C40003200D30C40003200A30C4006B
:0602380003200D20080068
:10023E00831603139816903083129800831687172F
:10024E00071383128C1E2E291A08F0002829080085
:10025E00063083160313810075308F0086308100BF
:10026E0085018601831286018030831687008312F2
:10027E0087010830890083160317880189013330FE
:10028E000313990018151F21A001A101A2014130ED
:10029E00C40003205430C40003200D30C4000320DA
:1002AE000A30C40003200230FB000430FC00BA30D8
:1002BE00FD00FD0B6029FC0B6029FB0B6029000083
:1002CE004130A5005430A600A7012530C1001E20E4
:1002DE000D30C40003200A30C40003208919A82958
:1002EE003420BC20253084004D308000840A4F30ED
:1002FE008000840A44308000840A55308000840ACD
:10030E004C308000840A4F308000840A20308000F8
:10031E00840A47308000840A53308000840A4D30AE
:10032E008000840A20308000840A4F308000840AC6
:10033E004B308000840A8001840A2530C1001E20C3
:06034E00A5207529A92974
:04400E00D4200007B3
:00000001FF
