:02000000E828EE
:10000800FF00030E8301A1000A08A2008A017008FC
:10001800A000F0018B1C12280130F00070080319B1
:1000280027288B102508003A031D21288316011361
:1000380001308312A500810127280108A600831634
:1000480001178312A5010B112008F00022088A006D
:0A005800210E8300FF0E7F0E090049
:1000620083120313F801F9011030FC00710DF80D31
:10007200F90D7408F8027508031C750FF9020318CC
:1000820049287408F80775080318750FF907031053
:0A009200F00DF10DFC0B37280800FB
:10009C00831603139818542800004E288312400826
:0400AC0099000800AF
:1000B00083120313FB01FA01F9018030F800F10CFF
:1000C000F00C031C6C287408F90775080318750FE9
:1000D000FA070318FB0A0310F01F74287408FA07C4
:1000E00075080318750FFB07FB0CFA0CF90CF80CDC
:1000F000031C5F287B08F3007A08F2007908F100FE
:060100007808F000080081
:1001060083120313BE013D0884000008BF003F08A8
:10011600003A031998283F08C0004E20BE0A3E0840
:0C0126003D0784000008BF008A28080084
:100132000B3083120313FB002630FC005D30FD0000
:10014200FD0BA128FC0BA128FB0BA128000000003D
:020152000800A3
:100154008312031307140630FD00FD0BAF280000C3
:1001640007103430FC00F130FD00FD0BB728FC0B08
:10017400B728000000002608F000F101FF30F40069
:10018400F50158203A30F400F50131207008F200EE
:100194007108F300F30CF20CF3137208BD0073083A
:0C01A400BE003D08F0003E08F10008001D
:1001B00083160313981690308312980083168717BE
:1001C000071383128C1EE7281A08F000E1280800A4
:1001D0007530831603138F00C7308100D0308B0039
:1001E0008501831285010130831686008312860102
:1001F00080308316870083128701831603178801D6
:10020000890183120313A501A701A80133308316C6
:1002100099001815D8200330FB008A30FC005530B7
:10022000FD00FD0B1129FC0B1129FB0B112900000E
:1002300000002930840069308000840A6430800026
:10024000840A65308000840A61308000840A73303B
:100250008000840A74308000840A65308000840A3B
:1002600063308000840A68308000840A6E30800029
:10027000840A6F308000840A6C308000840A6F30FA
:100280008000840A67308000840A79308000840A04
:100290002E308000840A63308000840A6F30800032
:1002A000840A6D308000840A8001840A2930BD00F0
:1002B00083200A30C0004E200D30C0004E20AA20FE
:1002C0007008A7007108A80000307102031D6A2998
:1002D00082307002031875294130A900AA01293023
:1002E000BD0083209920992099200630FB0013300F
:1002F000FC00AD30FD00FD0B7B29FC0B7B29FB0BCB
:0A0300007B29000000005F2984291A
:04400E00F22F000786
:00000001FF
