:020000007C285A
:10000800FF00030E8301A4000A08A3008A017008F8
:10001800A2007108A1007208A0008C1E31288C1261
:100028006F207008A5002C08003A031D2428250815
:10003800413A031D22280130AC002328AC013128A5
:100048002C08013A031D31282508423A031D2F28A0
:100058000130A8063028AC013128E0308B00831627
:100068008C1683128C122208F0002108F100200857
:10007800F20023088A00240E8300FF0E7F0E090079
:100088008316031398184A280000442883122D0861
:0400980099000800C3
:10009C0083160313981690308312980083168717D3
:1000AC00071383128C1E5D281A08F00057280800CD
:1000BC00063083120313FB001330FC00AD30FD003F
:1000CC00FD0B6628FC0B6628FB0B66280000000065
:0200DC0008001A
:1000DE00831203131A08F200981C772818121816A8
:0A00EE007208F1007108F00008002C
:1000F800831603178801890103138501831285017B
:1001080083168601831286018F3083168700831237
:100118008701AA01AB01A901653083168F0044301D
:1001280081001930990018154E20E0308B008C1290
:1001380083168C168312AC012810281CC2280614BA
:100148000330FB008A30FC005530FD00FD0BAA2867
:10015800FC0BAA28FB0BAA2800000000061003309D
:10016800FB008A30FC005530FD00FD0BB928FC0B64
:10017800B928FB0BB92800000000A128281821295C
:100188000718C8287210C92872142A08003AFF30C4
:10019800031D0030F100F0017218F00A7108F00533
:1001A8000319DE280130AA0086143130AD0044203E
:1001B8005E2086108718E2287210E32872142B0834
:1001C800003AFF30031D0030F100F0017218F00A08
:1001D8007108F0050319F82806153230AD004420DF
:1001E8000130AB005E2006110719FC287210FD28AB
:1001F80072142908003AFF30031D0030F100F001A5
:100208007218F00A7108F0050319122986150130D1
:10021800A9003330AD0044205E2086110330FB0076
:100228008A30FC005530FD00FD0B1829FC0B1829FD
:0E023800FB0B182900000000C228A128222973
:04400E00F420000793
:00000001FF
