:040000008A15252C0C
:10000800FF00030E8301A4000A08A3008A017008F8
:10001800A200F0018B1C12280130F00070080319AF
:1000280019288B10C00A0319C10A2208F0002308F6
:0C0038008A00240E8300FF0E7F0E0900DA
:0E004400F201F101F001F801F30100300800B3
:100052007B15FB1F33280130F300F201F101F0019F
:08006200FA0DF20CFF3008005A
:08006A00FA1FF2130030080038
:10007200FB14FB1F4328FF30F300F200F100F000F5
:08008200FA0DF20CFF3008003A
:10008A00A1017208031D5A287108F2007008F100D4
:10009A00F001A1157208031D5A287108F200F10136
:1000AA00A11121167208031968282108F302031DF9
:1000BA00031C6C280310F21B7028F00DF10DF20DD1
:1000CA00F30B60286C280130FC00222073280230D0
:0E00DA00FC00292073280430FC0035200800AB
:1000E8007408F8027508031C750FF9027608031CDA
:1000F800760FFA027708031C770FFB02F30D07301F
:10010800FC00730DF80DF90DFA0DFB0D7408731C46
:100118009B28F8027508031C750FF9027608031C62
:10012800760FFA027708031C770FFB02A828F80756
:1001380075080318750FF90776080318760FFA077C
:1001480077080318770FFB07F30DFC0B8528720D52
:10015800F80DF90DFA0DFB0D7408731CC128F8028F
:100168007508031C750FF9027608031C760FFA024E
:100178007708031C770FFB02CE28F80775080318C9
:10018800750FF90776080318760FFA07770803182A
:10019800770FFB07F20D0730FC00720DF80DF90D13
:1001A800FA0DFB0D7408721CE728F8027508031C89
:1001B800750FF9027608031C760FFA027708031CFC
:1001C800770FFB02F428F80775080318750FF9076D
:1001D80076080318760FFA0777080318770FFB07D6
:1001E800F20DFC0BD128710DF80DF90DFA0DFB0D70
:1001F8007408721C0D29F8027508031C750FF902A2
:100208007608031C760FFA027708031C770FFB02A7
:100218001A29F80775080318750FF90776080318DF
:10022800760FFA0777080318770FFB07F10D0730E9
:10023800FC00710DF80DF90DFA0DFB0D7408711C19
:100248003329F8027508031C750FF9027608031C98
:10025800760FFA027708031C770FFB024029F8078C
:1002680075080318750FF90776080318760FFA074B
:1002780077080318770FFB07F10DFC0B1D29700D8C
:10028800F80DF90DFA0DFB0D7408711C5929F802C7
:100298007508031C750FF9027608031C760FFA021D
:1002A8007708031C770FFB026629F80775080318FF
:1002B800750FF90776080318760FFA0777080318F9
:1002C800770FFB07F00D0730FC00700DF80DF90DE6
:1002D800FA0DFB0D7408701C7F29F8027508031CC1
:1002E800750FF9027608031C760FFA027708031CCB
:1002F800770FFB028C29F80775080318750FF907A3
:1003080076080318760FFA0777080318770FFB07A4
:10031800F00DFC0B692970189F297408F8077508F7
:100328000318750FF90776080318760FFA07770888
:080338000318770FFB07080012
:10034000FB09FA09F909F809F80A0319F90A031966
:08035000FA0A0319FB0A080078
:100358007C18E229FC18B3297C19012AAC29A101CF
:100368007208031DD3297108F2007008F10078089B
:10037800F000F801A1157208031DD3297108F200D5
:100388007008F100F001A11121167208031DD3298C
:100398007108F200F101A11572080319F529210865
:1003A800F302031D031CF9290310F21BE229F80DBF
:1003B800F00DF10DF20DF30BD929F9297B1B701CF7
:1003C800FD29F81FFD29F00A0319F10A0319F20A99
:1003D800031DFD29F20CF10CF00CF30A0319012A94
:1003E800FD290130FC002220042A0230FC002920CB
:1003F800042A0430FC003520042A0830FC00392087
:0404080000000800E8
:10040C00831203137408003A031D212A7508003A5D
:10041C00031D212A7608003A031D212A7708003A89
:10042C00031D212AFF30F000FF30F100FF30F200F5
:10043C007F30F300BA2A83120313FC01F71BFC0A6A
:10044C00FD01FB01FA01F901F80173087204710452
:10045C0070040319B52A73087706A000A01BFD09C8
:10046C00F71F432AF409F509F609F709F40A0319E9
:10047C00F50A0319F60A0319F70AF31F502AF009B3
:10048C00F109F209F309F00A0319F10A0319F20A46
:10049C000319F30A73087704A000A01B712A7420B7
:1004AC00FC1B8E2AFD1FB52AF009F109F209F3098C
:1004BC00F00A0319F10A0319F20A0319F30AF809ED
:1004CC00F909FA09FB09F80A0319F90A0319FA0AD6
:1004DC000319FB0AB52AF71F882AF31B822A730813
:1004EC00FB007208FA007108F9007008F800F301BB
:1004FC00F201F101F001582AF301F201F101F001CE
:10050C00F00A0034F309F209F109F009FC17552A35
:10051C00F80A0319F90A0319FA0A0319FB0A7408F1
:10052C007802031D582A75087902031D582A76088B
:10053C007A02031D582A77087B02031D582AFB01F7
:10054C00FA01F901F801F00A0319F10A0319F20A88
:10055C000319F30AF31F582AA0012016FF34A00137
:0A056C007C1CB92AA021003E080003
:100576008312031372087606A100F801F9017308C5
:100586007702031CDE2A7708FD007308F7007D0852
:10059600F3007608FD007208F6007D08F200750883
:1005A600FD007108F5007D08F1007408FD00700873
:1005B600F4007D08F00077080319572B7208FA003B
:1005C600F217F61777087302F7000319112B083094
:1005D6007702031C072BF7007408F9007508F4006E
:1005E6007608F500F60108307702031C072BF700A2
:1005F6007408F9007508F400F50108307702031C49
:10060600072B7A08F200572B77080319112B0310D2
:10061600F60CF50CF40CF90CF70B0A2BA11F1E2B8C
:10062600F909F409F509F609F90A0319F40A03198F
:10063600F50A0319F60A7908F80774080318740FFF
:10064600F00775080318750FF10776080318760F7B
:10065600F207A11B372B031C472BF20CF10CF00CF5
:10066600F80CF30F472B532B03184B2BF809F00903
:10067600F109F209F80A0319F00A0319F10A031934
:10068600F20A8030FA064F2B0130FC00AC21592BC0
:100696000230FC00AC21592B0430FC004520592BBC
:1006A6000830FC003920592B0030FC0000000800FF
:1006B60083120313FB01FA01F901F801A001730D7E
:1006C600F80D7408F8027508031C750FF902760810
:1006D600031C760FFA027708031C770FFB02000152
:1006E600031C0130A002F30D0730FC00730DF80D5A
:1006F600F90DFA0DFB0DA00D7408731C942BF8026E
:100706007508031C750FF9027608031C760FFA02AA
:100716007708031C770FFB020001031C0130A002BF
:10072600A52BF80775080318750FF907760803183F
:10073600760FFA0777080318770FFB0700010318EF
:100746000130A007F30DFC0B792B720DF80DF90D96
:10075600FA0DFB0DA00D7408731CC32BF802750867
:10076600031C750FF9027608031C760FFA02770848
:10077600031C770FFB020001031C0130A002D42BDF
:10078600F80775080318750FF90776080318760F2A
:10079600FA0777080318770FFB07000103180130E3
:1007A600A007F20D0730FC00720DF80DF90DFA0DD9
:1007B600FB0DA00D7408721CF22BF8027508031CC1
:1007C600750FF9027608031C760FFA027708031CE8
:1007D600770FFB020001031C0130A002032CF8076F
:1007E60075080318750FF90776080318760FFA07C8
:1007F60077080318770FFB07000103180130A007DD
:10080600F20DFC0BD72B710DF80DF90DFA0DFB0D42
:10081600A00D7408721C212CF8027508031C750FB4
:10082600F9027608031C760FFA027708031C770F85
:10083600FB020001031C0130A002322CF8077508E8
:100846000318750FF90776080318760FFA07770865
:100856000318770FFB07000103180130A007F10DFD
:100866000730FC00710DF80DF90DFA0DFB0DA00D0A
:100876007408711C502CF8027508031C750FF902D8
:100886007608031C760FFA027708031C770FFB0223
:100896000001031C0130A002612CF807750803183B
:1008A600750FF90776080318760FFA077708031805
:1008B600770FFB07000103180130A007F10DFC0BB1
:1008C600352C700DF80DF90DFA0DFB0DA00D740801
:1008D600711C7F2CF8027508031C750FF902760847
:1008E600031C760FFA027708031C770FFB02000140
:1008F600031C0130A002902CF80775080318750F29
:10090600F90776080318760FFA0777080318770FA2
:10091600FB07000103180130A007F00D0730FC00AB
:10092600700DF80DF90DFA0DFB0DA00D7408701C75
:10093600AE2CF8027508031C750FF9027608031C25
:10094600760FFA027708031C770FFB020001031CDF
:100956000130A002BF2CF80775080318750FF907B8
:1009660076080318760FFA0777080318770FFB0740
:10097600000103180130A007F00DFC0B932C701832
:10098600D22C7408F80775080318750FF90776084E
:100996000318760FFA0777080318770FFB07080086
:1009A6007B14FB1FDE2CF201FA1FFF30F200F10070
:0A09B600F000FA0DF20CFF3008000B
:1009C000023083120313FC004930FD00FD0BE62CBE
:0A09D000FC0BE62C000000000800FC
:1009DA0083120313FA017308031D7A147708031D9F
:1009EA00FA147A080319392D033A0319042D7A18CF
:1009FA00012DF61F372D352DF21F352D372D720893
:100A0A008039FA00F21376088039F6137A06031948
:100A1A00122D7A080319352D372D77087302031919
:100A2A00192D031C2D2D312D760872020319202D44
:100A3A00031C2D2D312D750871020319272D031C56
:100A4A002D2D312D740870020319392D0318312DFB
:100A5A00FA080319372D352DFA080319352D372DC4
:100A6A000314080003100800031403150800080003
:100A7A00831203137008F800FB01FC019E30F30097
:100A8A00FA01F201F101F0010230FC00AC21080088
:0C0A9A00831203138030F606BB22080014
:100AA600831203137008F8007108F0007208F10051
:100AB6007308F200F301FB01FC019E30F300FA011A
:100AC600F21F712DF809F009F109F209F80A031964
:100AD600F00A0319F10A0319F20AFA170230FC00A8
:040AE600AC21080037
:100AEA0083120313F801F9011030FC00710DF80D9F
:100AFA00F90D7408F8027508031C750FF90203183A
:100B0A008D2D7408F80775080318750FF907031077
:0A0B1A00F00DF10DFC0B7B2D08001F
:100B240083120313FB01FC01F801730803190A2E55
:100B34007208FA00F2179E30F302F31FFA2DF3093C
:100B4400F30A08307302031CCF2DF300F80D70086C
:100B5400F8007108F0007208F100F2010830730225
:100B6400031CCF2DF300F80D7008F8007108F00095
:100B7400F10108307302031CCF2DF300F80D700847
:100B8400F800F00108307302031CCF2DF300F80DB8
:100B9400F8017308031D0310D92D73080319D92D07
:100BA4000310F20CF10CF00CF80CF30BD22D7B1BA0
:100BB400781CE72D031CE72DF80A0319F00A031922
:100BC400F10A0319F20AF21B072EFA1F0A2EF20980
:100BD400F109F009F809F80A0319F00A0319F10AEE
:100BE4000319F20A0A2EF201F101F001F8010A2EAA
:100BF4007B14FB1F0D2EF201FA1F0D2EF200F100E3
:100C0400F000F800FA0DF20C0D2E0130FC000F2E4E
:100C14000030FC000F2EFF30FC00FC080319132EDB
:100C2400D3247208F3007108F2007008F100780808
:040C3400F0000800C4
:100C3800831603134108803A031D2C2E4008003AFE
:100C4800031D2C2E3F08003A031D2C2E3E08003AA7
:100C5800031D542E420884002D308000840A32304F
:100C68008000840A31308000840A34308000840A8D
:100C780037308000840A34308000840A383080009D
:100C8800840A33308000840A36308000840A343085
:100C98008000840A38308000840A8001840AFA2E91
:100CA800C40180304106F00080307002031D662EBA
:100CB80000304002031D662E00303F02031D662EE1
:100CC80000303E020318842EFF30C400F001F10109
:100CD800F201F3013E08F0023F08031C3F0FF10246
:100CE8004008031C400FF2024108031C410FF302A5
:100CF8007008BE007108BF007208C0007308C10008
:100D08004208840020308000840A20308000840A51
:100D180020308000840A20308000840A203080003F
:100D2800840A20308000840A20308000840A203021
:100D38008000840A20308000840A20308000840AE1
:100D480030308000840A8001840A0A304207C300D8
:100D58000030F0004106031DBB2E70084006031D3D
:100D6800BB2E70083F06031DBB2E3E08003A031930
:100D7800F32E0A30F400F501F601F7013E08F00001
:100D88003F08F1004008F2004108F3005B237808AF
:100D9800F0007908F1007A08F2007B08F30030309F
:100DA800F007831643088400700880000A30F400B6
:100DB800F501F601F7013E08F0003F08F100400890
:100DC800F2004108F300062270088316BE0071087D
:100DD800BF007208C0007308C100C303AC2E4408EA
:0E0DE8000319FA2E430884002D308000080005
:100DF600333083120313FD00FD0BFF2E00000000AD
:020E06000800E2
:060E0800000000000800DC
:060E0E00FB15FF30080097
:100E1400831603139818102F00000A2F3E0883121C
:040E24009900080029
:100E280083120313FB017308031D770803196B2F43
:100E380072087606FA007708F3077E30031C282F1D
:100E4800F30203186E2F2B2FF302031C712F720865
:100E5800F8007108FC007008FD00F817F617031079
:100E6800F201F101F0011830A1007D1C452F740832
:100E7800F00775080318750FF10776080318760F41
:100E8800F207F20CF10CF00CF80CFC0CFD0C031042
:100E9800A10B392FF21B552FF80DF00DF10DF20DA6
:100EA800F3037B1B701C672FF81F672FF00A0319C9
:100EB800F10A0319F20A031D672FF20CF10CF00C6A
:100EC800F30A03196E2FFA1FF2130030732F013043
:100ED8002220732F02303920732F0430292000007C
:020EE800080000
:100EEA000E3083120313FD00FD0B792F000008005A
:0E0EFA00213083120313FD00FD0B812F080031
:100F0800013083120313E9006708003C031D8E2F8C
:100F18006608093C0318912FE90A6708003C031D7D
:100F2800972F6608633C03189A2FE90A6708033C61
:100F3800031DA02F6608E73C0318A32FE90A6708DA
:100F4800273C031DA92F66080F3C0318AC2FE90A9C
:100F58006808840030308000840A30308000840AB9
:100F680030308000840A30308000840A30308000BD
:100F7800840A8001840A84036908003C0318E72F67
:100F880084030A30F400F5016608F0006708F100F0
:100F980075257808F0007908F100700880000008CD
:100FA8006602F0000030031C013E6702F1000A30BF
:100FB800F400F50175257008E6007108E700303087
:080FC8008007E903C02F0800B7
:100FD0008316031398169030831298008316871790
:100FE000071383128C1EF72F1A08F000F12F080048
:101000003C30831203139F05C0309F006608F00038
:10101000F00D7010F00D701070089F0483169F176C
:1010200083121F148A1175278A159F149F1C1A2872
:10103000000016281F101E08F100F00183161E087C
:1010400070048312E7007108E8000030E8046708C4
:08105000F0006808F10008003F
:1010580083120313E701660884000008E8006808A3
:10106800003A0319442868088316BE008A110A2723
:101078008A15E70A6708660784000008E80033282D
:0210880008005E
:10108A0083120313FB01FA01F9018030F800F10C15
:10109A00F00C031C59287408F90775080318750F12
:1010AA00FA070318FB0A0310F01F61287408FA07ED
:1010BA0075080318750FFB07FB0CFA0CF90CF80CF2
:1010CA00031C4C287B08F3007A08F2007908F10027
:0610DA007808F000080098
:1010E000831203136808840020308000840A2030B3
:1010F0008000840A20308000840A20308000840A26
:1011000030308000840A8001840A04306807E900D6
:1011100000306706031D8E28003066060319B428C8
:101120000A30F400F5016608F0006708F1008A1142
:1011300075258A157808F0007908F1003030F0073D
:1011400069088400700880000A30F400F501660820
:10115000F0006708F1008A1175258A157008E6000D
:0A1160007108E700E9038828080081
:10116A00831203136708F1000130F00071080319B4
:10117A00C228F00D7010FF3EBC287008EB00F00981
:10118A0066088400700880058417700880058A1133
:10119A00E0248A156B08800484138A11FB268A15B9
:1011AA006B080005F1007108003A0319E0280130C4
:1011BA00E800E901E228E801E9018A11E0248A1538
:0A11CA006808F0006908F100080051
:1011D40083160313BC0183126608F0006708F1004C
:1011E4006808F2006908F3008A1192258A157008CC
:1011F400EB007108EC007208ED007308EE00F001DA
:101204008A113D258A157008F4007108F5007208EA
:10121400F6007308F7006608F0006708F100680834
:10122400F2006908F3008A11ED248A15FF300318CF
:101234000030F000700803192229FF308316BC0027
:1012440083126B088316BE0083126C088316BF00DA
:1012540083126D088316C00083126E088316C100C2
:10126400A430C2008A111C268A152030A4008312DF
:101274006B08F0006C08F1006D08F2006E08F300D2
:101284008A1153258A157008F4007108F500720854
:10129400F6007308F7006608F0006708F1006808B4
:1012A400F2006908F3008A114D258A150030F40014
:1012B4005030F5004330F6008F30F7008A111427C0
:1012C4008A158A1192258A157008EB007108EC00C2
:1012D4007208ED007308EE0080307306F40080306D
:1012E4007402031D7F2900307202031D7F29003020
:1012F4007102031D7F290030700203189C29831298
:10130400F001F101F201F3016B08F0026C08031C17
:101314006C0FF1026D08031C6D0FF2026E08031CC2
:101324006E0FF3027008EB007108EC007208ED0018
:101334007308EE0083126B088316BE0083126C08D8
:101344008316BF0083126D088316C00083126E08D3
:101354008316C100B030C2008A111C268A15A00170
:10136400A101A201A30183126A0884002030800035
:10137400840A20308000840A20308000840A2030CF
:101384008000840A20308000840A20308000840A8F
:1013940020308000840A20308000840A20308000BD
:1013A400840A20308000840A30308000840A80015E
:1013B400840A6608F0006708F1006808F20069080A
:1013C400F3008A1192258A157008EB007108EC006D
:1013D4007208ED007308EE0000308316BD0073063A
:1013E400031DFE293D087206031DFE293D087106F2
:1013F400031DFE297008003AFF30031D0030BD00B4
:10140400F0018A113D258A157008F4007108F50071
:101414007208F6007308F7006608F0006708F10028
:101424006808F2006908F3008A11ED248A15FF3078
:1014340003180030F00083163D08F00503192B2A29
:1014440083126A0884002D30800001308316A000C6
:10145400A10124088312EF006F08203A031D3F2ADC
:101464008316A20A0319A30AA430F0002208700705
:10147400840000088312EF002E2A6F08003A031933
:101484005A2A8316200883126A0784006F08800092
:101494008316A20A0319A30AA00A0319A10AA430F5
:1014A400F00022087007840000088312EF003F2A2E
:1014B40083163C08003AFF30031D0030F100003071
:1014C4002106031D672A00302006FF30031D00306B
:1014D400F0007108F0050319792A200883126A07BD
:1014E4008400303080008316A00A0319A10A00305A
:1014F4002106031D7F2A01302006FF30031D003022
:10150400F0003C08F0050319912A200883126A07A9
:101514008400303080008316A00A0319A10A200831
:1015240083126A0784002E3080008316A00A0319F0
:10153400A10A0630A200A30136088312EF006F0847
:10154400003A0319C22A6F08203A031DAB2A30302F
:10155400EF008316200883126A0784006F08800056
:101564008316A20A0319A30AA00A0319A10AB03018
:10157400F00022087007840000088312EF00A12AFB
:0E1584008316200883126A0784008001080085
:10159200831203137008F8007108F000F101F201E0
:1015A200F301FB01FC019630F300FA017008F1002F
:1015B2007808F000F801F2018A1145208A15080026
:1015C200831203136708F1000130F0007108031958
:1015D200EE2AF00D7010FF3EE82A7008EB00700949
:1015E200EA0066088400E801E9016A0880058417B8
:1015F2006A0880058A1104278A156B0880048A11FB
:1016020004278A1584136B080005F0000319162BB2
:101612006908F1000130F00071080319142BF00D74
:101622007010FF3E0E2B7008E8048A117D278A1580
:101632008A117D278A156908073A0319222BE90ABC
:08164200F62A6808F000080018
:10164A00831203136708F1000130F00071080319CF
:10165A00322BF00D7010FF3E2C2B7008EB00F009B6
:10166A007008EA0066088400700880058417E9019A
:10167A006908F1006808F00071080319482BF00C9A
:10168A00F013FF3E422B01307005F1006A08800515
:10169A007108003A0319532B6B0880048A11FB2640
:1016AA008A156B0880046908073A03195E2BE90A50
:1016BA003D2B84138A117D278A158A117D278A1565
:0216CA00080016
:1016CC00831203137408003A031D812B7508003A2A
:1016DC00031D812B7608003A031D812B7708003AF5
:1016EC00031D812BFF30F000FF30F1007F30F20042
:1016FC00FF30F300242C8312031377080319102CEA
:10170C0073080319152C720876068039FA00F21743
:10171C00F617A1017208F8007108FC007008FD00B2
:10172C007408FD027508031C750FFC027608031C77
:10173C00760FF802F801FC01FD01031CAC2B031021
:10174C00F20CF10CF00CF80C0130A1007708F3024C
:10175C00031CB62B7E302107F30703181A2CBB2B66
:10176C007E302107F307031C1F2C1830FA07FD0DE0
:10177C00FC0DF80DF00DF10DF20DA10D7408F00239
:10178C007508031C750FF1027608031C760FF20224
:10179C00760DA104211CD42B7D14DF2B7408F007CB
:1017AC0075080318750FF10776080318760AF20707
:1017BC007D10FA031F307A05031DBD2B7B1B7D1C8E
:1017CC00062C0310F00DF10DF20DA10D7408F002B2
:1017DC007508031C750FF1027608031C760FF202D4
:1017EC00760D21040139FD070318FC0A0319F80AC8
:1017FC00031D062CF80CFC0CFD0CF30A03191A2C17
:10180C00FA1FF8137808F2007C08F1007D08F0004C
:10181C000030232C01308A1107278A15232C023023
:10182C008A1122208A15232C04308A1139208A151A
:0E183C00232C08308A1129208A15000008008C
:10184A007530831603138F0083308100D0308B00EC
:10185A0001308500831285010330831686008312C6
:10186A008601803083168700831287010130831630
:10187A0003178800890133300313990018158A1158
:10188A00E8278A15BF01C001C1010B30FB002630D1
:10189A00FC005D30FD00FD0B502CFC0B502CFB0BAB
:1018AA00502C000000000F30F0008A113D258A15E7
:1018BA007008E2007108E3007208E4007308E500AA
:1018CA004008F0004108F100C9226208F4006308E8
:1018DA00F5006408F6006508F7008A1114278A15CE
:1018EA00DB30F4000F30F5004930F6008030F700A5
:1018FA008A1114278A157008E2007108E300720839
:10190A00E4007308E500B430F0008A113D258A1519
:10191A007008F4007108F5007208F6007308F70001
:10192A006208F0006308F1006408F2006508F30039
:10193A0066237008CA007108CB007208CC007308CD
:10194A00CD007008E6007108E7007208E800730825
:10195A00E9004230EA00EA204E3084005630800026
:10196A00840A45308000840A4C308000840A4F3053
:10197A008000840A43308000840A49308000840A47
:10198A0044308000840A41308000840A4430800058
:10199A00840A20308000840A5B308000840A633025
:1019AA008000840A6D308000840A2F308000840A07
:1019BA0073308000840A5D308000840A2030800001
:1019CA00840A3D308000840A20308000840A800125
:1019DA00840A4E30E6002C204230E6002C200D30DE
:1019EA008316BE008A110A278A150A308316BE009A
:1019FA008A110A278A15E60100206430F400F501ED
:101A0A0045200A30F4007008F2007108F3007408E7
:101A1A000319142DF30CF20CF313FF3E0D2D72086B
:101A2A00643CF0007308031C013EF101F1027008E6
:101A3A00C8007108C9007008E6007108E700423062
:101A4A00E80070204E3084004C308000840A553003
:101A5A008000840A5A308000840A20308000840A78
:101A6A003D308000840A20308000840A8001840A84
:101A7A004E30E6002C204230E6002C202030CE00EA
:101A8A002530CF002030D000D1014E30E6002C2086
:101A9A000D308316BE008A110A278A150A3083166A
:101AAA00BE008A110A278A150630E6000130E700CF
:101ABA00B52000307106031D642D00307006031D29
:101ACA00682E0630E6000130E700CC30E800252316
:101ADA000630E6000130E7004430E80025234F30A5
:101AEA00FD00FD0B762D000000000630E6000130F7
:101AFA00E700B5204E30840020308000840A54303C
:101B0A008000840A65308000840A6D308000840A6F
:101B1A0070308000840A65308000840A7230800048
:101B2A00840A61308000840A74308000840A753027
:101B3A008000840A72308000840A61308000840A3E
:101B4A003A308000840A20308000840A20308000E5
:101B5A00840A20308000840A8001840A4E30E6001C
:101B6A002C200D308316BE008A110A278A150630EA
:101B7A00E6000130E700CC30E80025230630E60015
:101B8A000130E700BE30E80025230630E6000130C8
:101B9A00E700E1227008BE000630E6000130E700E7
:101BAA00E1227008B5007008B4007008F100F10C69
:101BBA00F113F10CF113F10CF1137108B40071086F
:101BCA001F3A031DEB2DB509BE09BE0A3508B70039
:101BDA00B6013E08B6040030B70434081F3A031DA4
:101BEA00FD2D2D308316BE008A110A278A15032E71
:101BFA002B308316BE008A110A278A15F030360563
:101C0A00BA0037080F39BB00BB0CBA0CBB13BB0CAC
:101C1A00BA0CBB13BB0CBA0CBB13BB0CBA0CBB1370
:101C2A003E08F000F1010F30F0050030F105713087
:101C3A00F4000230F50045207008B8007108B900B8
:101C4A003A08E6003B08E7002530E8008A118427B5
:101C5A008A1528088316BE008A110A278A152908B8
:101C6A008316BE008A110A278A152E308316BE00F3
:101C7A008A110A278A153808E6003908E70025304C
:101C8A00E8008A1184278A1526088316BE008A115D
:101C9A000A278A1527088316BE008A110A278A1579
:101CAA0020308316BE008A110A278A15433083160C
:101CBA00BE008A110A278A150D308316BE008A11C2
:101CCA000A278A15992E4E30840020308000840A13
:101CDA006E308000840A6F308000840A20308000D1
:101CEA00840A73308000840A69308000840A67306D
:101CFA008000840A6E308000840A61308000840A81
:101D0A006C308000840A20308000840A20308000F1
:101D1A00840A8001840A4E30E6002C200D30831696
:0C1D2A00BE008A110A278A15482C9A2E48
:04400E00F22F000786
:00000001FF
