:02000000D928FD
:1000060083120313F801F9011030FC00710DF80D8D
:10001600F90D7408F8027508031C750FF902031828
:100026001B287408F80775080318750FF9070310DD
:0A003600F00DF10DFC0B0928080085
:1000400083160313981826280000202883124B08D3
:04005000990008000B
:10005400831603139816903083129800831687171B
:10006400071383128C1E39281A08F000332808005D
:1000740083120313C501440884000008C60046081F
:10008400003A03194F284608CB002020C50A45082A
:0C009400440784000008C6004128080052
:1000A00083120313C60107143130FD00FD0B5628DF
:1000B000000000000710871C602881010130C60085
:1000C0004608013A031965285B2887186B28010840
:1000D000C900CA01C6014608003A031970286528FC
:1000E0000730F2004908F0004A08F10072080319CD
:1000F0007E28F00DF10D7010FF3E77283A30F400A5
:10010000F50103207008C7007108C8004130FC00E9
:10011000EE30FD00FD0B8A28FC0B8A280000470802
:10012000C4004808C5004408F0004508F100080074
:10013000831203134608840020308000840A203094
:100140008000840A20308000840A20308000840AE5
:1001500030308000840A8001840A04304607C700DA
:1001600000304506031DB628003044060319D82880
:100170000A30F400F5014408F0004508F1000320BE
:100180007808F0007908F1003030F0074708840063
:10019000700880000A30F400F5014408F0004508BA
:1001A000F10003207008C4007108C500C703B0281F
:0201B000080045
:1001B200063083160313810065308F008312850198
:1001C200143083168500831286012A308316860036
:1001D2008312870182308316870083128801831677
:1001E2008801031788018901193003139900181532
:1001F2002A20A00108150230FB000430FC00BA30AE
:10020200FD00FD0B0229FC0B0229FB0B0229000059
:1002120008110230FB000430FC00BA30FD00FD0B77
:100222001029FC0B1029FB0B1029000008150230C5
:10023200FB000430FC00BA30FD00FD0B1E29FC0B54
:100242001E29FB0B1E29000008110230FB0004309E
:10025200FC00BA30FD00FD0B2C29FC0B2C29FB0BFA
:100262002C2900000630FB001330FC00AD30FD00ED
:10027200FD0B3929FC0B3929FB0B39290000000041
:100282003030840053308000840A41308000840A78
:100292004C308000840A55308000840A443080004B
:1002A200840A4F308000840A53308000840A203050
:1002B2008000840A41308000840A20308000840A51
:1002C20054308000840A4F308000840A4430800019
:1002D200840A4F308000840A53308000840A8001EF
:1002E200840A3030C4003A200630FB001330FC0090
:1002F200AD30FD00FD0B7B29FC0B7B29FB0B7B2921
:100302000000000050207008AC007108AD005020C1
:100312007008AC007108AD0050207008AC00710884
:10032200AD0000307102031D982996307002031847
:10033200552A08150230FB000430FC00BA30FD00DB
:10034200FD0BA129FC0BA129FB0BA129000008111F
:100352000230FB000430FC00BA30FD00FD0BAF2977
:10036200FC0BAF29FB0BAF29000008150230FB0084
:100372000430FC00BA30FD00FD0BBD29FC0BBD2989
:10038200FB0BBD29000008110230FB000430FC0009
:10039200BA30FD00FD0BCB29FC0BCB29FB0BCB2983
:1003A20000002C08C4002D08C5002130C60098208A
:1003B2003030840020308000840A41308000840A7A
:1003C20054308000840A45308000840A4E30800018
:1003D200840A43308000840A49308000840A4F3006
:1003E2008000840A4E308000840A20308000840A13
:1003F2004F308000840A42308000840A4A308000F4
:10040200840A45308000840A54308000840A4F30C8
:100412008000840A20308000840A41308000840AEF
:1004220020308000840A8001840A3030C4003A20DF
:100432002130C4003A203030840020308000840A09
:1004420063308000840A65308000840A6E30800048
:10045200840A74308000840A69308000840A6D3016
:100462008000840A65308000840A74308000840A27
:1004720072308000840A6F308000840A73308000FA
:10048200840A8001840A3030C4003A200B30FB0019
:100492002630FC005D30FD00FD0B4D2AFC0B4D2A81
:0C04A200FB0B4D2A000000008D29562A9B
:04400E00B22F0007C6
:00000001FF
