:020000002928AD
:100006008316031398169030831298008316871769
:10001600071383128C1E12281A08F0000C280800F9
:10002600831203131A08F200981C1B2818121816BC
:0A0036007208F1007108F0000800E4
:100040000030831203138C1A0130F1007108F000A4
:020050000800A6
:100052007530831603138F00831285018316850181
:1000620083128601831686018312870180308316EC
:10007200870083128801831688010317880189018A
:1000820033300313990018150320A501A41024117D
:100092002412A4112410A101A00120207008013A09
:1000A200031D562813207008A5002508413A031D98
:1000B2005C280230A4062508423A031D6228043057
:1000C200A4062508433A031D68281030A406250813
:1000D200443A031D6E280830A4062508453A031D3C
:1000E20074280130A406A41C782807147828241D3B
:1000F2007C2887147C28241E802807158028A41DAC
:10010200842887158428241C8828081488280B3002
:10011200FB002630FC005D30FD00FD0B8E28FC0B41
:100122008E28FB0B8E28000000000708A10008089B
:10013200A00087018801A5011F30FB007130FC007F
:100142001E30FD00FD0BA328FC0BA328FB0BA328EC
:0601520000004E28AB285E
:04400E00F22F000786
:00000001FF
