:02000000962840
:10000800FF00030E8301A1000A08A3008A017008FB
:10001800A0000B1D23282B08013A031D19282808C6
:10002800A4000230AB00071023282B08023A031D56
:1000380023282908A4000130AB000714232824082A
:10004800810020308B002008F00023088A00210E50
:080058008300FF0E7F0E09007A
:10006000831203131A08F200981C38281812181665
:0A0070007208F1007108F0000800AA
:10007A0083160313981690308312980083168717F5
:10008A00071383128C1E4C281A08F0004628080011
:10009A000030831203138C1A0130F1007108F0004A
:0200AA0008004C
:1000AC00823083120313FC00DD30FD00FD0B5C2855
:0A00BC00FC0B5C28000000000800A7
:1000C600831203132C08013A031D6E286730A8001B
:1000D600F930A90084282C08023A031D77286D30D0
:1000E600A800F330A90084282C08033A031D8028B1
:1000F6007230A800EE30A90084286230A800FB30D8
:04010600A900080044
:10010A00063083120313FB001330FC00AD30FD00F0
:10011A00FD0B8D28FC0B8D28FB0B8D2800000000A1
:02012A000800CB
:10012C006530831603138F00063081001930990057
:10013C0018153D20831685018312850183168601CF
:10014C008312860183168701831287018316890126
:10015C00831289018316031788018901A0308B0053
:10016C0064308312031381000230AB006230A800AC
:10017C00FB30A900AA01A7014D207008013A031D0C
:10018C00D22830207008A2007008AA00FF30860028
:10019C00562086010130A7002708013A031DEF28DD
:1001AC00A7012A08313A031DDF280230AC00632076
:1001BC0085202A08323A031DE7280330AC0063205F
:1001CC0085202A08333A031DEF280430AC00632045
:1001DC0085200230AC0063208520852085200430EA
:0E01EC00AC006320852085208520C228FC28D9
:04400E00F420000793
:00000001FF
