:02000000A42931
:06000600000000000800EC
:10000C000F3083120313FC004730FD00FD0B0C284E
:0A001C00FC0B0C2800000000080097
:0E002600213083120313FD00FD0B1728080084
:1000340083120313DB1B20288613212886175B1BDE
:100044002528061326280617DB1A2A2886122B28A9
:1000540086165B1A2F2806123028061643183428F1
:10006400061535280611861503208611DB193C2850
:1000740086133D2886175B19412806134228061764
:10008400DB1846288612472886165B184B2806126A
:100094004C280616431850280615512806118615B3
:1000A40003208611431C58280620592813200800D1
:1000B4008312031343105A08DB001A204314080068
:1000C400831203131A08F200981C6A2818121816CF
:0A00D4007208F1007108F000080046
:1000DE00831603139818752800006F2883125A0888
:0400EE00990008006D
:1000F2000030831203138C1A0130F1007108F000F2
:020102000800F3
:1001040083120313D501540884000008D60056084E
:10011400003A031997285608DA006F20D50A5508C3
:0C012400540784000008D6008928080059
:10013000831203135408013A031DA1288030D40010
:10014000B8285408023A031DA828C030D400B828A3
:100150005408033A031DAF289430D400B82854083B
:10016000043A031DB628D430D400B8288030D40017
:100170005503F0005408F0077008D40043147008C9
:10018000DB001A2043105608DB001A204314080035
:1001900083120313D701D8015608003A0319062920
:1001A0005608FF3A0319D528D60379207008003A7B
:1001B000031DDC280000D52862207008D9005708EC
:1001C0005407840070088000D70A58085507840037
:1001D00000085906031DEE28D80AF628D80155084C
:1001E000840000085906031DF628D80A5808550748
:1001F00084000008003A031D052958085702F00042
:1002000070085407840080010929CC285408840010
:040210008001080061
:10021400831203135408013A031D13298030D400B8
:100224002A295408023A031D1A29C030D4002A2965
:100234005408033A031D21299430D4002A29540870
:10024400043A031D2829D430D4002A298030D4004C
:100254005503F0005408F0077008D4007008DB0060
:100264001A204310D7015708560784000008003AA3
:10027400031944295708560784000008DA005A2055
:08028400D70A352943140800D4
:10028C0083160313981690308312980083168717E1
:10029C00071383128C1E55291A08F0004F290800E9
:1002AC008316031386110611061286120613861383
:1002BC008312861106118613061386120612062067
:1002CC0006200620861606168615032086110620A3
:1002DC00861503208611062086150320861106201C
:1002EC00061286150320861106208615032086111A
:1002FC00861286178615032086110620861306168D
:10030C0086150320861106128615032086110620F9
:10031C0086150320861106168615032086110620E5
:10032C0006128615032086118617061786160616E2
:0C033C00861503208611062043140800DB
:100348007530831603138F00850183128501831688
:100358008601831286018F308316870083128701F6
:1003680003308316880083128801831603178801D7
:10037800890133300313990018154621562101309D
:10038800DB001A200C30DB001A200130D4000130C9
:10039800D5004630840053308000840A49308000FC
:1003A800840A53308000840A54308000840A45301F
:1003B8008000840A4D308000840A41308000840A1D
:1003C80020308000840A58308000840A423080003F
:1003D800840A45308000840A45308000840A203031
:1003E8008000840A8001840A4630D6000A2102303F
:1003F800D4000130D5004630840043308000840AA0
:100408004F308000840A4D308000840A55308000C7
:10041800840A4E308000840A49308000840A4330C0
:100428008000840A41308000840A43308000840AB6
:1004380049308000840A4F308000840A4E308000A2
:10044800840A20308000840A8001840A4630D6005D
:100458000A211530FB004B30FC00BE30FD00FD0BBF
:10046800332AFC0B332AFB0B332A00000130DB0054
:100478001A200130D4000130D500463084005030B5
:100488008000840A4F308000840A52308000840A39
:100498003A308000840A8001840A4630D6000A2156
:1004A8000230D4000130D50046308400523080003C
:1004B800840A41308000840A55308000840A4C3018
:1004C8008000840A20308000840A45308000840A35
:1004D80053308000840A50308000840A49308000FC
:1004E800840A4E308000840A4F308000840A5A30D3
:1004F8008000840A41308000840A8001840A4630E2
:10050800D6000A211530FB004B30FC00BE30FD0040
:10051800FD0B8C2AFC0B8C2AFB0B8C2A000001306B
:10052800DB001A200330FB008A30FC005530FD0048
:10053800FD0B9C2AFC0B9C2AFB0B9C2A000000004C
:100548003330831699001815462108150330FB002F
:100558000830FC007730FD00FD0BB02AFC0BB02AF8
:10056800FB0BB02A08110330FB000830FC00773081
:10057800FD00FD0BBD2AFC0BBD2AFB0BBD2A08158F
:100588000330FB000830FC007730FD00FD0BCA2A61
:10059800FC0BCA2AFB0BCA2A08110330FB000830DF
:1005A800FC007730FD00FD0BD72AFC0BD72AFB0B8C
:1005B800D72A79207008003A03198C2B2130D400EF
:1005C8002D30C600C7014630D5002030D600C820DF
:1005D8002130D40082200130DB001A2008150330B6
:1005E800FB000830FC007730FD00FD0BF92AFC0BFE
:1005F800F92AFB0BF92A08110330FB000830FC002C
:100608007730FD00FD0B062BFC0B062BFB0B062B96
:10061800A0010130D400200AD5002008213E840022
:100628000008D600982020080F3A03191D2BA00AAD
:100638000D2BA0010230D400200AD500103020076D
:10064800F0007008213E84000008D6009820200899
:100658000F3A0319312BA00A1E2B213084002030B9
:100668008000840A20308000840A20308000840AB8
:1006780020308000840A20308000840A20308000E6
:10068800840A20308000840A20308000840A2030C8
:100698008000840A20308000840A20308000840A88
:1006A80020308000840A20308000840A20308000B6
:1006B800840A20308000840A20308000840A203098
:1006C8008000840A20308000840A20308000840A58
:1006D80020308000840A20308000840A2030800086
:1006E800840A20308000840A20308000840A203068
:1006F8008000840A20308000840A20308000840A28
:1007080020308000840A20308000840A8001840A16
:10071800071C9F2B071C912B8E2B4F30C6004B308C
:10072800C700C8014630D40082200D30DA006F209F
:0A0738000A30DA006F20DD2AA02B42
:04400E00F420000694
:00000001FF
