:040000008A153B2BF7
:0E000600F201F101F001F801F30100300800F1
:100014007B15FB1F14280130F300F201F101F001FC
:08002400FA0DF20CFF30080098
:08002C00FA1FF2130030080076
:10003400FB14FB1F2428FF30F300F200F100F00052
:08004400FA0DF20CFF30080078
:10004C007C185C28FC182D287C197B282628A101FB
:10005C007208031D4D287108F2007008F100780831
:10006C00F000F801A1157208031D4D287108F2006B
:10007C007008F100F001A11121167208031D4D2822
:10008C007108F200F101A115720803196F282108FB
:10009C00F302031D031C73280310F21B5C28F80DDC
:1000AC00F00DF10DF20DF30B532873287B1B701C14
:1000BC007728F81F7728F00A0319F10A0319F20AB6
:1000CC00031D7728F20CF10CF00CF30A03197B28B2
:1000DC0077280130FC0003207E280230FC000A2027
:1000EC007E280430FC0016207E280830FC001A20E4
:0400FC0000000800F8
:10010000103083120313FD00FD0B8428000008004B
:10011000A1017208031D9D287108F2007008F1000A
:10012000F001A1157208031D9D287108F200F1016C
:10013000A111211672080319AB282108F302031D2F
:10014000031CAF280310F21BB328F00DF10DF20DC4
:10015000F30BA328AF280130FC000320B62802309F
:0E016000FC000A20B6280430FC00162008001F
:10016E00FB09FA09F909F809F80A0319F90A03193A
:08017E00FA0A0319FB0A08004C
:04018600000008006D
:10018A00083083120313FC002330FD00FD0BCB283B
:06019A00FC0BCB2808005D
:1001A0007408F8027508031C750FF9027608031C21
:1001B000760FFA027708031C770FFB02F30D073066
:1001C000FC00730DF80DF90DFA0DFB0D7408731C8E
:1001D000F728F8027508031C750FF9027608031C4E
:1001E000760FFA027708031C770FFB020429F80741
:1001F00075080318750FF90776080318760FFA07C4
:1002000077080318770FFB07F30DFC0BE128720D3D
:10021000F80DF90DFA0DFB0D7408731C1D29F80279
:100220007508031C750FF9027608031C760FFA0295
:100230007708031C770FFB022A29F80775080318B3
:10024000750FF90776080318760FFA077708031871
:10025000770FFB07F20D0730FC00720DF80DF90D5A
:10026000FA0DFB0D7408721C4329F8027508031C73
:10027000750FF9027608031C760FFA027708031C43
:10028000770FFB025029F80775080318750FF90757
:1002900076080318760FFA0777080318770FFB071D
:1002A000F20DFC0B2D29710DF80DF90DFA0DFB0D5A
:1002B0007408721C6929F8027508031C750FF9028D
:1002C0007608031C760FFA027708031C770FFB02EF
:1002D0007629F80775080318750FF90776080318CB
:1002E000760FFA0777080318770FFB07F10D073031
:1002F000FC00710DF80DF90DFA0DFB0D7408711C61
:100300008F29F8027508031C750FF9027608031C83
:10031000760FFA027708031C770FFB029C29F80777
:1003200075080318750FF90776080318760FFA0792
:1003300077080318770FFB07F10DFC0B7929700D77
:10034000F80DF90DFA0DFB0D7408711CB529F802B2
:100350007508031C750FF9027608031C760FFA0264
:100360007708031C770FFB02C229F80775080318EA
:10037000750FF90776080318760FFA077708031840
:10038000770FFB07F00D0730FC00700DF80DF90D2D
:10039000FA0DFB0D7408701CDB29F8027508031CAC
:1003A000750FF9027608031C760FFA027708031C12
:1003B000770FFB02E829F80775080318750FF9078E
:1003C00076080318760FFA0777080318770FFB07EC
:1003D000F00DFC0BC5297018FB297408F807750887
:1003E0000318750FF90776080318760FFA077708D0
:0803F0000318770FFB0708005A
:1003F80083160313A21B032A83128813052A831268
:1004080088178316221B0B2A831208130D2A8312BE
:1004180008178316A21A132A83128812152A831220
:1004280088168316221A1B2A831208121D2A831281
:1004380008162F18212A0716222A07128716C32002
:1004480087128316A2192B2A831288132D2A831246
:10045800881783162219332A83120813352A831220
:1004680008178316A2183B2A831288123D2A831282
:10047800881683162218432A83120812452A8312E3
:1004880008162F18492A07164A2A07128716C32062
:0E04980087122F1C512AC520522A80200800EE
:1004A600831203137408003A031D6E2A7508003A76
:1004B600031D6E2A7608003A031D6E2A7708003A55
:1004C600031D6E2AFF30F000FF30F100FF30F2000E
:1004D6007F30F300072B83120313FC01F71BFC0A82
:1004E600FD01FB01FA01F901F801730872047104B8
:1004F60070040319022B73087706A000A01BFD09E0
:10050600F71F902AF409F509F609F709F40A031901
:10051600F50A0319F60A0319F70AF31F9D2AF009CB
:10052600F109F209F309F00A0319F10A0319F20AAB
:100536000319F30A73087704A000A01BBE2AD02073
:10054600FC1BDB2AFD1F022BF009F109F209F30956
:10055600F00A0319F10A0319F20A0319F30AF80952
:10056600F909FA09FB09F80A0319F90A0319FA0A3B
:100576000319FB0A022BF71FD52AF31BCF2A730890
:10058600FB007208FA007108F9007008F800F30120
:10059600F201F101F001A52AF301F201F101F001E6
:1005A600F00A0034F309F209F109F009FC17A22A4E
:1005B600F80A0319F90A0319FA0A0319FB0A740857
:1005C6007802031DA52A75087902031DA52A760857
:1005D6007A02031DA52A77087B02031DA52AFB01C3
:1005E600FA01F901F801F00A0319F10A0319F20AEE
:1005F6000319F30AF31FA52AA0012016FF34A00150
:0A0606007C1C062BB720003E080004
:100610007B14FB1F132BF201FA1FFF30F200F100D5
:0A062000F000FA0DF20CFF300800A4
:10062A0083120313FB01FA01F901F801A001730D0A
:10063A00F80D7408F8027508031C750FF90276089C
:10064A00031C760FFA027708031C770FFB020001DE
:10065A00031C0130A002F30D0730FC00730DF80DE6
:10066A00F90DFA0DFB0DA00D7408731C4E2BF80240
:10067A007508031C750FF9027608031C760FFA0237
:10068A007708031C770FFB020001031C0130A0024C
:10069A005F2BF80775080318750FF9077608031812
:1006AA00760FFA0777080318770FFB07000103187C
:1006BA000130A007F30DFC0B332B720DF80DF90D69
:1006CA00FA0DFB0DA00D7408731C7D2BF80275083A
:1006DA00031C750FF9027608031C760FFA027708D5
:1006EA00031C770FFB020001031C0130A0028E2BB2
:1006FA00F80775080318750FF90776080318760FB7
:10070A00FA0777080318770FFB070001031801306F
:10071A00A007F20D0730FC00720DF80DF90DFA0D65
:10072A00FB0DA00D7408721CAC2BF8027508031C93
:10073A00750FF9027608031C760FFA027708031C74
:10074A00770FFB020001031C0130A002BD2BF80742
:10075A0075080318750FF90776080318760FFA0754
:10076A0077080318770FFB07000103180130A00769
:10077A00F20DFC0B912B710DF80DF90DFA0DFB0D15
:10078A00A00D7408721CDB2BF8027508031C750F88
:10079A00F9027608031C760FFA027708031C770F12
:1007AA00FB020001031C0130A002EC2BF8077508BC
:1007BA000318750FF90776080318760FFA077708F2
:1007CA000318770FFB07000103180130A007F10D8A
:1007DA000730FC00710DF80DF90DFA0DFB0DA00D97
:1007EA007408711C0A2CF8027508031C750FF902AB
:1007FA007608031C760FFA027708031C770FFB02B0
:10080A000001031C0130A0021B2CF807750803180D
:10081A00750FF90776080318760FFA077708031891
:10082A00770FFB07000103180130A007F10DFC0B3D
:10083A00EF2B700DF80DF90DFA0DFB0DA00D7408D4
:10084A00711C392CF8027508031C750FF902760819
:10085A00031C760FFA027708031C770FFB020001CC
:10086A00031C0130A0024A2CF80775080318750FFB
:10087A00F90776080318760FFA0777080318770F2F
:10088A00FB07000103180130A007F00D0730FC0038
:10089A00700DF80DF90DFA0DFB0DA00D7408701C02
:1008AA00682CF8027508031C750FF9027608031CF8
:1008BA00760FFA027708031C770FFB020001031C6C
:1008CA000130A002792CF80775080318750FF9078B
:1008DA0076080318760FFA0777080318770FFB07CD
:1008EA00000103180130A007F00DFC0B4D2C701805
:1008FA008C2C7408F80775080318750FF907760821
:10090A000318760FFA0777080318770FFB07080012
:10091A008312031372087606A100F801F90173081D
:10092A007702031CB02C7708FD007308F7007D08D6
:10093A00F3007608FD007208F6007D08F2007508DB
:10094A00FD007108F5007D08F1007408FD007008CB
:10095A00F4007D08F00077080319292D7208FA00BF
:10096A00F217F61777087302F7000319E32C083019
:10097A007702031CD92CF7007408F9007508F400F3
:10098A007608F500F60108307702031CD92CF70027
:10099A007408F9007508F400F50108307702031CA1
:1009AA00D92C7A08F200292D77080319E32C0310B1
:1009BA00F60CF50CF40CF90CF70BDC2CA11FF02C3F
:1009CA00F909F409F509F609F90A0319F40A0319E8
:1009DA00F50A0319F60A7908F80774080318740F58
:1009EA00F00775080318750FF10776080318760FD4
:1009FA00F207A11B092D031C192DF20CF10CF00CA6
:100A0A00F80CF30F192D252D03181D2DF809F009DF
:100A1A00F109F209F80A0319F00A0319F10A03198C
:100A2A00F20A8030FA06212D0130FC0026202B2DF7
:100A3A000230FC0026202B2D0430FC0088202B2DB0
:100A4A000830FC001A202B2D0030FC0000000800A2
:100A5A00831203137008F800FB01FC019E30F300B7
:100A6A00FA01F201F101F0010230FC00262008002F
:100A7A00831203132F106B088316A200FC212F1474
:020A8A00080062
:0E0A8C00073083120313FD00FD0B4A2D0800F6
:100A9A0083120313FA017308031D7A147708031DDE
:100AAA00FA147A080319992D033A0319642D7A184E
:100ABA00612DF61F972D952DF21F952D972D7208F2
:100ACA008039FA00F21376088039F6137A06031988
:100ADA00722D7A080319952D972D77087302031939
:100AEA00792D031C8D2D912D760872020319802D04
:100AFA00031C8D2D912D750871020319872D031C76
:100B0A008D2D912D740870020319992D0318912DBA
:100B1A00FA080319972D952DFA080319952D972D83
:100B2A000314080003100800031403150800080042
:100B3A0083120313FB01FC01F80173080319152E34
:100B4A007208FA00F2179E30F302F31F052EF3091A
:100B5A00F30A08307302031CDA2DF300F80D70084B
:100B6A00F8007108F0007208F100F201083073020F
:100B7A00031CDA2DF300F80D7008F8007108F00074
:100B8A00F10108307302031CDA2DF300F80D700826
:100B9A00F800F00108307302031CDA2DF300F80D97
:100BAA00F8017308031D0310E42D73080319E42DDB
:100BBA000310F20CF10CF00CF80CF30BDD2D7B1B7F
:100BCA00781CF22D031CF22DF80A0319F00A0319F6
:100BDA00F10A0319F20AF21B122EFA1F152EF20954
:100BEA00F109F009F809F80A0319F00A0319F10AD8
:100BFA000319F20A152EF201F101F001F801152E7E
:100C0A007B14FB1F182EF201FA1F182EF200F100B6
:100C1A00F000F800FA0DF20C182E0130FC001A2E22
:100C2A000030FC001A2EFF30FC00FC0803191E2EAF
:100C3A0008237208F3007108F2007008F1007808BE
:040C4A00F0000800AE
:100C4E00831203136E08803A031D372E6D08003A87
:100C5E00031D372E6C08003A031D372E6B08003A21
:100C6E00031D5F2E6F0884002D308000840A323001
:100C7E008000840A31308000840A34308000840A77
:100C8E0037308000840A34308000840A3830800087
:100C9E00840A33308000840A36308000840A34306F
:100CAE008000840A38308000840A8001840A0D2F67
:100CBE008316A101803083126E06F0008030700220
:100CCE00031D732E00306D02031D732E00306C0257
:100CDE00031D732E00306B020318932EFF30831604
:100CEE00A100F001F101F201F30183126B08F00291
:100CFE006C08031C6C0FF1026D08031C6D0FF202E1
:100D0E006E08031C6E0FF3027008EB007108EC0006
:100D1E007208ED007308EE006F088400203080002A
:100D2E00840A20308000840A20308000840A20301B
:100D3E008000840A20308000840A20308000840ADB
:100D4E0020308000840A20308000840A2030800009
:100D5E00840A20308000840A30308000840A8001AA
:100D6E00840A0A306F078316A0000030F000831249
:100D7E006E06031DCC2E70086D06031DCC2E70085A
:100D8E006C06031DCC2E6B08003A0319052F0A3092
:100D9E00F400F501F601F7016B08F0006C08F100A4
:100DAE006D08F2006E08F30015237808F00079083C
:100DBE00F1007A08F2007B08F3003030F00783165A
:100DCE0020088400700880000A30F400F501F60156
:100DDE00F70183126B08F0006C08F1006D08F20049
:100DEE006E08F30053227008EB007108EC007208D5
:100DFE00ED007308EE008316A003BC2E83162108A7
:0E0E0E0003190D2F200884002D3080000800ED
:0C0E1C00831203138030F6068D240800BA
:100E2800831203137008F8007108F0007208F100CB
:100E38007308F200F301FB01FC019E30F300FA0194
:100E4800F21F322FF809F009F109F209F80A03191B
:100E5800F00A0319F10A0319F20AFA170230FC0022
:040E68002620080038
:100E6C0083120313FB017308031D770803198D2FDD
:100E7C0072087606FA007708F3077E30031C4A2FB7
:100E8C00F3020318902F4D2FF302031C932F7208BB
:100E9C00F8007108FC007008FD00F817F617031035
:100EAC00F201F101F0011830A1007D1C672F7408CC
:100EBC00F00775080318750FF10776080318760FFD
:100ECC00F207F20CF10CF00CF80CFC0CFD0C0310FE
:100EDC00A10B5B2FF21B772FF80DF00DF10DF20D1E
:100EEC00F3037B1B701C892FF81F892FF00A031941
:100EFC00F10A0319F20A031D892FF20CF10CF00C04
:100F0C00F30A0319902FFA1FF2130030952F0130BA
:100F1C000320952F02301A20952F04300A20000050
:020F2C000800BB
:100F2E008316031398189D2F0000972F83126B08BA
:040F3E00990008000E
:100F42008312031307118715081488140330FB005A
:100F52000830FC007730FD00FD0BAD2FFC0BAD2FF0
:060F6200FB0BAD2F08009F
:100F680083120313C401430884000008C500450820
:100F7800003A0319C92F4508EB009727C40A44080B
:0C0F8800430784000008C500BB2F0800D0
:100F94003C30831203139F05C0309F004308F000C8
:100FA400F00D7010F00D701070089F0483169F17D9
:100FB40083121F1446259F149F1CE22F0000DE2F6E
:100FC4001F101E08F100F00183161E08700483121E
:100FD400C4007108C5000030C5044408F000450889
:040FE400F100080010
:0E0FE8008312031307158715081088140800DC
:1010000083120313E9014308F0004408F100450886
:10101000F2004608F3008A119D258A157008C80061
:101020007108C9007208CA007308CB00F0018A1168
:101030002D258A157008F4007108F5007208F60075
:101040007308F7004308F0004408F1004508F20077
:101050004608F3008A114D258A15FF300318003029
:10106000F000700803193628FF30E9004808EB004B
:101070004908EC004A08ED004B08EE005130EF0043
:101080008A1127268A15203083120313D1004808BD
:10109000F0004908F1004A08F2004B08F3008A11F9
:1010A00014278A157008F4007108F5007208F6001C
:1010B0007308F7004308F0004408F1004508F20007
:1010C0004608F3008A110E278A150030F4005030CC
:1010D000F5004330F6008F30F7008A1136278A1565
:1010E0008A119D258A157008C8007108C900720808
:1010F000CA007308CB0080307306F400803074029D
:10110000031D8C2800307202031D8C2800307102F0
:10111000031D8C28003070020318A828F001F1018B
:10112000F201F3014808F0024908031C490FF102DB
:101130004A08031C4A0FF2024B08031C4B0FF30230
:101140007008C8007108C9007208CA007308CB0093
:101150004808EB004908EC004A08ED004B08EE0097
:101160005D30EF008A1127268A1583120313CC0104
:10117000CD01CE01CF014708840020308000840AD1
:1011800020308000840A20308000840A20308000D3
:10119000840A20308000840A20308000840A2030B5
:1011A0008000840A20308000840A20308000840A75
:1011B00020308000840A30308000840A8001840A54
:1011C0004308F0004408F1004508F2004608F30027
:1011D0008A119D258A157008C8007108C900720817
:1011E000CA007308CB000030EA007306031D022911
:1011F0006A087206031D02296A087106031D022986
:101200007008003AFF30031D0030EA00F0018A1137
:101210002D258A157008F4007108F5007208F60093
:101220007308F7004308F0004408F1004508F20095
:101230004608F3008A114D258A15FF300318003047
:10124000F0006A08F00503192C29470884002D30A6
:1012500080000130CC00CD015108D0005008203A68
:10126000031D3D29CE0A0319CF0A5130F0004E0864
:10127000700784000008D0002E295008003A031996
:1012800054294C084707840050088000CE0A0319EF
:10129000CF0ACC0A0319CD0A5130F0004E0870076E
:1012A00084000008D0003D296908003AFF30031D82
:1012B0000030F10000304D06031D602900304C065F
:1012C000FF30031D0030F0007108F005031970298C
:1012D0004C084707840030308000CC0A0319CD0A3F
:1012E00000304D06031D762901304C06FF30031DEA
:1012F0000030F0006908F005031986294C084707FB
:10130000840030308000CC0A0319CD0A4C0847070E
:1013100084002E308000CC0A0319CD0A0630CE009E
:10132000CF016308D0005008003A0319B0295008D3
:10133000203A031D9D293030D0004C084707840017
:1013400050088000CE0A0319CF0ACC0A0319CD0A2F
:101350005D30F0004E08700784000008D00093292B
:0A1360004C084707840080010800D4
:10136A000030831203138C1A0130F1007108F00067
:02137A00080069
:10137C00831203131A08F200981CC62918121816A7
:0A138C007208F1007108F00008007B
:0E139600831203130711871108148810080032
:1013A400831203137008F8007108F000F101F201D0
:1013B400F301FB01FC019630F300FA017008F1001F
:1013C4007808F000F801F2018A1188208A150800D3
:1013D4008A11A1278A150330FB000830FC007730FE
:1013E400FD00FD0BF329FC0BF329FB0BF329071577
:1013F4008715081488100230FB008630FC009930F1
:10140400FD00FD0B032AFC0B032AFB0B032A8A11A4
:06141400A1278A15080063
:10141A008A11A1278A150330FB000830FC007730B7
:10142A00FD00FD0B162AFC0B162AFB0B162A0711C8
:10143A008711081088140230FB008630FC009930AE
:10144A00FD00FD0B262AFC0B262AFB0B262A8A11F5
:06145A00A1278A1508001D
:10146000831203134308013A031D392A8030C30055
:10147000502A4308023A031D402AC030C300502AB4
:101480004308033A031D472A9430C300502A4308F7
:10149000043A031D4E2AD430C300502A8030C300C2
:1014A0004403F0004308F0077008C3007008831677
:1014B000A2008A11FC218A152F10C6014608450793
:1014C00084000008003A03196F2A46084507840083
:1014D0000008EB008A113D258A15C60A5E2A2F14E2
:0214E000080002
:1014E200831603138712071208128812081388132F
:1014F20083128712071288130813881208128A119E
:10150200C5208A158A11C5208A158A11C5208A1517
:101512008816081687168A11C3208A1587128A111F
:10152200C5208A1587168A11C3208A1587128A1147
:10153200C5208A1587168A11C3208A1587128A1137
:10154200C5208A15081287168A11C3208A158712A8
:101552008A11C5208A1587168A11C3208A15871217
:101562008812881787168A11C3208A1587128A1152
:10157200C5208A158813081687168A11C3208A1572
:101582008712081287168A11C3208A1587128A11B8
:10159200C5208A1587168A11C3208A158712081654
:1015A20087168A11C3208A1587128A11C5208A15C7
:1015B200081287168A11C3208A15871288170817FE
:1015C2008816081687168A11C3208A1587128A116F
:0815D200C5208A152F14080042
:1015DA008312031388110230FB000430FC00BA3076
:1015EA00FD00FD0BF62AFC0BF62AFB0BF62A00007F
:1015FA0088150230FB000430FC00BA30FD00FD0BF8
:0E160A00042BFC0B042BFB0B042B0000080030
:101618008312031308150230FB000430FC00BA30B3
:10162800FD00FD0B152BFC0B152BFB0B152B0000E0
:1016380008110230FB000430FC00BA30FD00FD0B3D
:0E164800232BFC0B232BFB0B232B0000080095
:101656008316031398169030831298008316871703
:10166600071383128C1E3A2B1A08F000342B08003D
:10167600063083160313810065308F0083128501BF
:1016860083168501831286013F3083168600083053
:101696008312870080308316870003308312880008
:1016A6008316880103178801203089001930031337
:1016B600990018152B23712201308316A2008A1176
:1016C600FC218A150C308316A2008A11FC218A158A
:1016D600ED220C2301308316A2008A11FC218A1503
:1016E6000130C3000130C400323084004C30800029
:1016F600840A4F308000840A41308000840A4430D6
:101706008000840A49308000840A4E308000840AB2
:1017160047308000840A8001840A3230C5003022B6
:101726000330FB008A30FC005530FD00FD0B992B81
:10173600FC0B992BFB0B992B000000000130C3001A
:101746000130C400323084004C308000840A4F30AF
:101756008000840A41308000840A44308000840A74
:1017660049308000840A4E308000840A4730800069
:10177600840A2E308000840A8001840A3230C50033
:1017860030220430FB008E30FC001230FD00FD0BD1
:10179600CA2BFC0BCA2BFB0BCA2B00000130C30063
:1017A6000130C400323084004C308000840A4F304F
:1017B6008000840A41308000840A44308000840A14
:1017C60049308000840A4E308000840A4730800009
:1017D600840A2E308000840A2E308000840A80011C
:1017E600840A3230C50030220530FB000F30FC0081
:1017F600F130FD00FD0BFD2BFC0BFD2BFB0BFD2B38
:101806000130C3000130C400323084004C30800007
:10181600840A4F308000840A41308000840A4430B4
:101826008000840A49308000840A4E308000840A91
:1018360047308000840A2E308000840A2E308000D3
:10184600840A2E308000840A8001840A3230C50062
:1018560030220630FB001330FC00AD30FD00FD0BDE
:10186600322CFC0B322CFB0B322C0000000001301A
:101876008316A2008A11FC218A15A401B5217008DD
:1018860003194F2CBE217008A200A3010130831654
:10189600A2008A11FC218A1500302306031D552C4F
:1018A60044302206031DFC2C0D30C3008A11CA27C2
:1018B6008A15D2212330F400DB30F5007930F600AA
:1018C6007D30F7008A1136278A157008AB0071083B
:1018D600AC007208AD007308AE007008C300710852
:1018E600C4007208C5007308C6002430C700002073
:1018F6000130C3000130C40032308400543080000F
:10190600840A45308000840A4D308000840A5030B5
:101916008000840A45308000840A52308000840AA0
:1019260041308000840A54308000840A553080009B
:10193600840A52308000840A41308000840A5B3079
:101946008000840AB0308000840A43308000840A14
:101956005D308000840A3A308000840A8001840A5F
:101966003230C50030220230C3000A30C4002430B1
:10197600C50030222408EB008A1197278A1525080E
:10198600EB008A1197278A152608EB008A119727FC
:101996008A152708EB008A1197278A15AA0127308E
:1019A600F0008A112D258A157008F4007108F500DB
:1019B6007208F6007308F7002B08F0002C08F100F7
:1019C6002D08F2002E08F3008A114D258A15FF30E6
:1019D600031C0030F00070080319FA2C0C235F304A
:1019E600B200B3013230C3008A11B4278A15A201AE
:1019F600A30100302306031D022D31302206031DEC
:101A06002D2D0C238A11F4278A150130C3000130CD
:101A1600C4003230840041308000840A44308000A3
:101A2600840A45308000840A4C308000840A4130A4
:101A36008000840A4E308000840A54308000840A74
:101A460045308000840A8001840A3230C500302285
:101A5600A201A30100302306031D332D35302206D3
:101A6600031D552D0C238A11A1278A150130C300A9
:101A76000130C4003230840050308000840A413086
:101A86008000840A52308000840A41308000840A33
:101A960052308000840A8001840A3230C500302228
:101AA600A201A30100302306031D5B2D323022065E
:101AB600031D7B2D0C23CB210130C3000130C40054
:101AC6003230840041308000840A54308000840A19
:101AD60052308000840A41308000840A53308000EE
:101AE600840A8001840A3230C5003022A201A30193
:101AF60000302306031D812D33302206031DBE2D23
:101B06000C230D220130C3000130C40032308400A2
:101B160049308000840A5A308000840A513080009F
:101B2600840A55308000840A49308000840A453092
:101B36008000840A52308000840A44308000840A7F
:101B460041308000840A8001840A3230C500302288
:101B56000630FB001330FC00AD30FD00FD0BB12D4F
:101B6600FC0BB12DFB0BB12D000000008A11A12743
:101B76008A15A201A30100302306031DC42D3430AB
:101B86002206031DFB2D0C23EA210130C300013080
:101B9600C4003230840044308000840A453080001E
:101BA600840A52308000840A45308000840A43301B
:101BB6008000840A48308000840A41308000840A0C
:101BC6008001840A3230C50030220630FB00133013
:101BD600FC00AD30FD00FD0BEE2DFC0BEE2DFB0BDE
:101BE600EE2D000000008A11A1278A15A201A3018B
:041BF600412CFC2D55
:04400E00F22F000786
:00000001FF
