:02000000EF29E6
:10000800FF00030E8301A2000A08A1008A017008FC
:10001800A0008C1E77288C12CA217008A30027081C
:10002800003A031D2C282308523AFF30031D0030E4
:10003800F10023082B3AFF30031D0030F00071084F
:10004800F00403192A280430A7002B28A7017728D1
:100058002708013A031D45282308493AFF30031DA4
:100068000030F1002308433AFF30031D0030F00050
:100078007108F004031943280230A7004428A70197
:1000880077282708023A031D5E2823084E3AFF30D6
:10009800031D0030F10023084D3AFF30031D0030E6
:1000A800F0007108F00403195C280330A7005D28EC
:1000B800A70177282708033A031D77282308473A1A
:1000C800FF30031D0030F1002308543AFF30031DB0
:1000D8000030F0007108F004031975280430A700F7
:1000E8007628A7017728E0308B0083168C168312B8
:1000F8008C122008F00021088A00220E8300FF0ECF
:040108007F0E09005D
:10010C008316031398188C280000862883125F0826
:04011C00990008003E
:1001200083120313DD015C0884000008DE005E0812
:10013000003A0319A5285E08DF008620DD0A5D0865
:0C0140005C0784000008DE00972808001F
:10014C000B3083120313FB002630FC005D30FD00E6
:10015C00FD0BAE28FC0BAE28FB0BAE2800000000FC
:02016C00080089
:08016E008312031306140800BC
:1001760083160313981690308312980083168717F8
:10018600071383128C1ECA281A08F000C428080018
:08019600831203138614080014
:08019E00831203130610080090
:1001A600413083120313DF0086205430DF0086209F
:1001B6000D30DF0086200A30DF008620A6204E3074
:1001C600840041308000840A54308000840A443020
:1001D6008000840A30308000840A39308000840A26
:1001E60039308000840A32308000840A343080003E
:1001F600840A30308000840A39308000840A313025
:100206008000840A33308000840A36308000840AF5
:100216008001840A4E30DC0090203B30DF008620CF
:100226000D30DF0086200A30DF008620A620A620BB
:10023600A620A620A620A620A620A620A620A62088
:100246004130CE005430CF004830D000D1014E307E
:10025600DC0090200D30DF0086200A30DF0086208B
:100266000D30DF0086200A30DF008620A620A6207B
:10027600A620A620A620A620A620A620A620A62048
:0202860008006E
:10028800413083120313CE005430CF00D0014E30DA
:10029800DC0090200D30DF0086200A30DF00862049
:1002A800A6204E30840041308000840A54308000FB
:1002B800840A2B308000840A43308000840A4D3041
:1002C8008000840A47308000840A53308000840A02
:1002D8008001840A4E30DC0090203D30DF0086200B
:1002E8002230DF0086204E30840030308000840ABF
:1002F80039308000840A39308000840A3230800026
:10030800840A34308000840A30308000840A39300E
:100318008000840A31308000840A33308000840AE7
:1003280036308000840A8001840A4E30DC00902038
:100338002230DF0086200D30DF0086200A30DF0003
:060348008620A62008003B
:08034E00831203138615080059
:100356001A3083120313DF008620A6204130DF0007
:1003660086205430DF0086200D30DF0086200A30DC
:0E037600DF008620A620A620A620A6200800D4
:08038400831203138610080028
:08038C0083120313061108009F
:10039400831203131A08F200981CD2291812181693
:0A03A4007208F1007108F000080073
:1003AE00023083120313FB000430FC00BA30FD0050
:1003BE00FD0BDF29FC0BDF29FB0BDF2900000800FA
:0803CE00831203130615080059
:0803D6008312031386110800D5
:1003DE00863083160313810075308F00E0308B005A
:1003EE0083128C1283168C16850183128501831657
:1003FE008601831286010F308316870083128701D0
:10040E00831688018312880183168901831289015C
:10041E00831603178801890183120313A801A7010C
:10042E0026103330831699001815BB200230FB00BE
:10043E000430FC00BA30FD00FD0B232AFC0B232AEE
:10044E00FB0B232A00004130DF0086205430DF00F2
:10045E0086200D30DF0086200A30DF008620023035
:10046E00FB000430FC00BA30FD00FD0B3C2AFC0BF7
:10047E003C2AFB0B3C2A0000A620A620071C982B2A
:10048E00B720D721871CC02ACB20A6204421293093
:10049E00840049308000840A4E308000840A473040
:1004AE008000840A52308000840A45308000840A1D
:1004BE0053308000840A4F308000840A2030800040
:1004CE00840A4E308000840A4F308000840A203027
:1004DE008000840A41308000840A55308000840AEE
:1004EE0054308000840A4F308000840A52308000DD
:1004FE00840A49308000840A5A308000840A4130D0
:10050E008000840A44308000840A4F308000840AC0
:10051E0020308000840A50308000840A4F308000E2
:10052E00840A52308000840A20308000840A4C30C5
:10053E008000840A41308000840A20308000840AC2
:10054E0050308000840A55308000840A4530800087
:10055E00840A52308000840A54308000840A41306C
:10056E008000840A8001840A2930DC009020AB21AF
:10057E00C22AC221D72107193C2BC621A62044210D
:10058E002930840049308000840A4E308000840A6D
:10059E0047308000840A52308000840A4530800043
:1005AE00840A53308000840A4F308000840A203041
:1005BE008000840A4E308000840A4F308000840A06
:1005CE0020308000840A41308000840A553080003B
:1005DE00840A54308000840A4F308000840A5230DE
:1005EE008000840A49308000840A5A308000840AD0
:1005FE0041308000840A44308000840A4F308000ED
:10060E00840A20308000840A50308000840A4F30E3
:10061E008000840A52308000840A20308000840AD0
:10062E004C308000840A41308000840A20308000E3
:10063E00840A56308000840A45308000840A4E3089
:10064E008000840A54308000840A41308000840A7D
:10065E004E308000840A41308000840A8001840A72
:10066E002930DC009020AB213D2BE7218719962BFA
:10067E00EB21A62044212930840049308000840AD1
:10068E004E308000840A54308000840A523080003C
:10069E00840A55308000840A53308000840A4F301B
:1006AE008000840A20308000840A44308000840A4E
:1006BE0045308000840A4E308000840A5430800019
:1006CE00840A52308000840A4F308000840A203021
:1006DE008000840A44308000840A45308000840AF9
:1006EE0020308000840A4C308000840A4130800023
:1006FE00840A20308000840A43308000840A41300E
:10070E008000840A53308000840A41308000840ABD
:10071E008001840A2930DC009020AB21972BA72181
:10072E00F62BCF20D320D320D32044212930840090
:10073E0043308000840A4F308000840A523080009B
:10074E00840A54308000840A45308000840A2030A8
:10075E008000840A44308000840A45308000840A78
:10076E0020308000840A45308000840A4E3080009C
:10077E00840A45308000840A52308000840A473053
:10078E008000840A49308000840A41308000840A47
:10079E0020308000840A44308000840A4530800076
:1007AE00840A20308000840A4C308000840A413054
:1007BE008000840A20308000840A43308000840A3E
:1007CE0041308000840A53308000840A413080001A
:1007DE00840A8001840A2930DC009020AB2182300B
:1007EE00FC00DD30FD00FD0BFA2BFC0BFA2B00009C
:0607FE000000432A012C5B
:04400E00F420000793
:00000001FF
