:020000002729AE
:1000060083120313FB01FA01F9018030F800F10CA9
:10001600F00C031C17287408F90775080318750FE8
:10002600FA070318FB0A0310F01F1F287408FA07C3
:1000360075080318750FFB07FB0CFA0CF90CF80C86
:10004600031C0A287B08F3007A08F2007908F100FD
:060056007808F00008002C
:10005C00831603131208F000F101F00A0319F10AD8
:10006C0083122808F400F50103200630F200700812
:10007C00F4007108F500720803194928F50CF40C0A
:10008C00F513FF3E42287408F0007508F100F00DDE
:10009C00F10D7010F00DF10D7010F00DF10D7010E0
:1000AC00F00DF10D701030307005F3007408F00095
:1000BC007508F100F10CF00CF113F10CF00CF113CC
:0E00CC0070089B000F309D0573089D0408000E
:1000DA00831603131208F000F101F00A0319F10A5A
:1000EA0083122808F400F50103200630F200700894
:1000FA00F4007108F500720803198828F50CF40C4D
:10010A00F513FF3E81287408F0007508F100F00D20
:10011A00F10D7010F00DF10D7010F00DF10D701061
:10012A00F00DF10D701030307005F3007408F00016
:10013A007508F100F10CF00CF113F10CF00CF1134D
:0E014A00700895000F309705730897040800A1
:0C015800831203139B011D129D1208006E
:10016400831603139816903083129800831687170A
:10017400071383128C1EC1281A08F000BB2808003C
:10018400831603130711831212150C309704080009
:10019400831603138710831212150C309D04080074
:1001A4000030831203138C1A0130F1007108F0003F
:0201B400080041
:1001B6008030831203132706F00080307002031D7F
:1001C600E628003026020318F3282608003CA6007D
:1001D6002708031C013EA701A70205110516F528ED
:1001E6000515051280302506F00080307002031DCB
:1001F600FE280030240203180B292408003CA40022
:100206002508031C013EA501A502851185160D29A9
:10021600851585122608A8006D202408A8002E2022
:020226000800CE
:0C022800831203139501171297120800AF
:10023400831203131A08F200981C222918121816A4
:0A0244007208F1007108F0000800D4
:10024E006530831603138F0086308100833085005E
:10025E0083128501831686018312860191308316DF
:10026E0087008312870183160317880189013330B3
:10027E00031399001815B220121092101214921432
:10028E007C308316920014211210921012149214C4
:10029E007C3083169200AC20C220CA20A8016D20AB
:1002AE00A8012E20FF30A400A501FF30A600A70153
:1002BE00DB200630FB001330FC00AD30FD00FD0BE3
:1002CE006629FC0B6629FB0B662900000000A401C1
:1002DE00A501A601A701DB20A101A001FF30860028
:1002EE000630FB001330FC00AD30FD00FD0B7D2908
:1002FE00FC0B7D29FB0B7D29000000008601D2201E
:10030E007008013A031D90291A217008A000700888
:10031E00A1002108573A031D9D29FF30A400A50115
:10032E00FF30A600A701DB20FF3086002108583AD7
:10033E00031DAB290130A400FF30A5000130A6003B
:10034E00FF30A700DB2086012108533A031DB42994
:0E035E00A401A501A601A701DB208629B5296F
:04400E00F420000793
:00000001FF
