:02000000EA28EC
:10000600103083120313FD00FD0B072800000800C3
:10001600083083120313FC002330FD00FD0B11286A
:06002600FC0B112808008C
:04002C0000000800C8
:1000300083120313B91B1E2805111F280515391B30
:100040002328871024288714B91A2828051229285C
:100050000516391A2D2807112E28071520183228C1
:10006000861433288610851516208511B9193A286B
:1000700005113B28051539193F288710402887149A
:10008000B9184428051245280516391849280711BA
:100090004A28071520184E2886144F2886108515E3
:1000A00016208511201C56280B20572803200800F5
:1000B0008312031320103808B900182020140800F8
:1000C000831203133408013A031D69288030B400F9
:1000D00080283408023A031D7028C030B4008028FC
:1000E0003408033A031D77289430B400802834087C
:1000F000043A031D7E28D430B40080288030B40038
:100100003503F0003408F0077008B4007008B90037
:1001100018202010B7013708360784000008003A7D
:1001200003199A283708360784000008B8005820B9
:08013000B70A8B282014080017
:100138008316031385118610071105128710051100
:1001480083128511861005118710051207110B20DF
:100158000B200B20051607158515162085110B2079
:100168008515162085110B208515162085110B2065
:1001780007118515162085110B2085151620851168
:10018800051205158515162085110B200511071573
:1001980085151620851107118515162085110B2048
:1001A80085151620851107158515162085110B2034
:1001B80007118515162085110515871405160715CD
:0C01C8008515162085110B20201408005E
:1001D400863083160313810065308F00013085005B
:1001E40083128501831687018312870183160317FF
:1001F400880189019C200130B90018200C30B90015
:1002040018200130B4000130B500233084002030C0
:100214008000840A20308000840A20308000840A10
:1002240020308000840A41308000840A4C308000F1
:10023400840A41308000840A52308000840A4D30A0
:100244008000840A41308000840A5F308000840A80
:1002540047308000840A53308000840A4D30800087
:10026400840A8001840A2330B60060200230B4007E
:100274000130B5002330840020308000840A20300F
:100284008000840A20308000840A20308000840AA0
:1002940020308000840A20308000840A543080009A
:1002A400840A45308000840A43308000840A533035
:1002B4008000840A55308000840A20308000840A3B
:1002C4008001840A2330B60060200B30FB00263006
:1002D400FC005D30FD00FD0B6D29FC0B6D29FB0B53
:1002E4006D29000000000130B90018200C30B9005D
:1002F40018200130B4000230B500233084004130AE
:100304008000840A4C308000840A41308000840AD2
:1003140052308000840A4D308000840A41308000CD
:10032400840A20308000840A53308000840A4530D7
:100334008000840A4E308000840A53308000840A8E
:1003440041308000840A4E308000840A44308000AA
:10035400840A4F308000840A8001840A2330B60066
:1003640060200230B4000130B50023308400203016
:100374008000840A45308000840A53308000840A57
:1003840054308000840A41308000840A4430800064
:10039400840A4F308000840A20308000840A41306F
:1003A4008000840A43308000840A54308000840A28
:1003B40049308000840A56308000840A413080002D
:1003C400840A44308000840A4F308000840A80010B
:1003D400840A2330B60060200B30FB002630FC007A
:1003E4005D30FD00FD0BF429FC0BF429FB0BF42913
:1003F400000000000518FF29572A0130B900182011
:100404000C30B90018200130B4000230B50023309C
:10041400840041308000840A4C308000840A4130DA
:100424008000840A52308000840A4D308000840A9F
:1004340041308000840A8001840A2330B6006020A1
:100444000230B4000130B500233084002030800035
:10045400840A41308000840A43308000840A543086
:100464008000840A49308000840A56308000840A5F
:1004740041308000840A44308000840A4130800086
:10048400840A8001840A2330B60060200B30FB000C
:100494002630FC005D30FD00FD0B4E2AFC0B4E2A7D
:1004A400FB0B4E2A00000000FC290130B900182083
:1004B4000C30B90018200130B4000130B5002330ED
:1004C400840020308000840A20308000840A203098
:1004D4008000840A41308000840A4C308000840A01
:1004E40045308000840A52308000840A54308000F1
:1004F400840A41308000840A20308000840A80010C
:10050400840A2330B60060200230B4000130B50004
:100514002330840020308000840A20308000840A44
:1005240049308000840A4E308000840A54308000B0
:10053400840A52308000840A55308000840A533083
:100544008000840A4F308000840A20308000840AAE
:100554008001840A2330B60060200B30FB00263073
:10056400FC005D30FD00FD0BB52AFC0BB52AFB0B2E
:10057400B52A0000000007140330FB008A30FC0099
:100584005530FD00FD0BC42AFC0BC42AFB0BC42A06
:100594000000000007100330FB008A30FC005530D7
:1005A400FD00FD0BD32AFC0BD32AFB0BD32A00003E
:1005B400000007140330FB008A30FC005530FD00B6
:1005C400FD0BE22AFC0BE22AFB0BE22A00000000EE
:1005D40007100330FB008A30FC005530FD00FD0B92
:1005E400F12AFC0BF12AFB0BF12A0000000007148E
:1005F4000330FB008A30FC005530FD00FD0B002B5E
:10060400FC0B002BFB0B002B000000000710033039
:10061400FB008A30FC005530FD00FD0B0F2BFC0B5A
:100624000F2BFB0B0F2B000000001A30FB005E3079
:10063400FC006E30FD00FD0B1D2BFC0B1D2BFB0B7A
:080644001D2B0000FC29252BF1
:04400E00F420000793
:00000001FF
