:02000000A22A32
:0E000600F201F101F001F801F30100300800F1
:10001400FB14FB1F1428FF30F300F200F100F00082
:08002400FA0DF20CFF30080098
:08002C00FA1FF2130030080076
:100034007B15FB1F24280130F300F201F101F001CC
:08004400FA0DF20CFF30080078
:10004C007C185C28FC182D287C197B282628A001FC
:10005C007208031D4D287108F2007008F100780831
:10006C00F000F801A0157208031D4D287108F2006C
:10007C007008F100F001A01120167208031D4D2824
:10008C007108F200F101A015720803196F282008FD
:10009C00F302031D031C73280310F21B5C28F80DDC
:1000AC00F00DF10DF20DF30B532873287B1B701C14
:1000BC007728F81F7728F00A0319F10A0319F20AB6
:1000CC00031D7728F20CF10CF00CF30A03197B28B2
:1000DC0077280130FC0003207E280230FC001A2017
:1000EC007E280430FC0016207E280830FC000A20F4
:0400FC0000000800F8
:06010000FB15FF300800B2
:100106000E3083120313FD00FD0B87280000080044
:10011600A0017208031DA0287108F2007008F10002
:10012600F001A0157208031DA0287108F200F10164
:10013600A011201672080319AE282008F302031D29
:10014600031CB2280310F21BB628F00DF10DF20DB8
:10015600F30BA628B2280130FC000320B928023090
:0E016600FC001A20B9280430FC001620080006
:10017400831603139818C0280000BA288312450870
:0401840099000800D6
:10018800831203137408003A031DDF287508003A28
:10019800031DDF287608003A031DDF287708003A98
:1001A800031DDF28FF30F000FF30F1007F30F20040
:1001B800FF30F3007A2983120313770803196E2995
:1001C800730803197129720876068039FA00F21744
:1001D800F617A0017208F8007108FC007008FD000D
:1001E8007408FD027508031C750FFC027608031CD1
:1001F800760FF802F801FC01FD01031C0A2903101F
:10020800F20CF10CF00CF80C0130A0007708F302A6
:10021800031C14297E302007F307031874291929B1
:100228007E302007F307031C77291830FA07FD0DE5
:10023800FC0DF80DF00DF10DF20DA00D7408F00293
:100248007508031C750FF1027608031C760FF2027D
:10025800760DA004201C32297D143D297408F0076E
:1002680075080318750FF10776080318760AF20760
:100278007D10FA031F307A05031D1B297B1B7D1C8B
:1002880064290310F00DF10DF20DA00D7408F002B1
:100298007508031C750FF1027608031C760FF2022D
:1002A800760D20040139FD070318FC0A0319F80A22
:1002B800031D6429F80CFC0CFD0CF30A03197429BE
:1002C800FA1FF8137808F2007C08F1007D08F000A6
:1002D80000307929013080207929023003207929DA
:0E02E80004300A20792908301A20000008008E
:1002F60083120313FB017308031D77080319D22920
:1003060072087606FA007708F3077E30031C8F29F9
:10031600F3020318D5299229F302031CD82972087F
:10032600F8007108FC007008FD00F817F6170310B6
:10033600F201F101F0011830A0007D1CAC2974080F
:10034600F00775080318750FF10776080318760F7E
:10035600F207F20CF10CF00CF80CFC0CFD0C03107F
:10036600A00BA029F21BBC29F80DF00DF10DF20D22
:10037600F3037B1B701CCE29F81FCE29F00A031944
:10038600F10A0319F20A031DCE29F20CF10CF00C46
:10039600F30A0319D529FA1FF2130030DA290130BE
:1003A6000320DA2902300A20DA2904301A20000054
:0203B60008003D
:1003B80083120313FA017308031D7A147708031DC7
:1003C800FA147A080319282A033A0319F3297A1820
:1003D800F029F61F262A242AF21F242A262A720820
:1003E8008039FA00F21376088039F6137A06031971
:1003F800012A7A080319242A262A7708730203197E
:10040800082A031C1C2A202A7608720203190F2ABC
:10041800031C1C2A202A750871020319162A031CBA
:100428001C2A202A740870020319282A0318202A73
:10043800FA080319262A242AFA080319242A262A3C
:10044800031408000310080003140315080008002B
:10045800831203137008F8007108F000F101F2012B
:10046800F301FB01FC019630F300FA017008F1007A
:0C0478007808F000F801F2018B20080069
:1004840083160313981690308312980083168717E7
:10049400071383128C1E512A1A08F0004B2A0800F5
:1004A4003C30831203139F05C0309F004208F000C4
:1004B400F00D7010F00D701070089F0483169F17D4
:1004C40083121F1483209F149F1C6A2A0000662A2B
:1004D4001F101E08F100F00183161E087004831219
:1004E400C3007108C4000030C4044308F000440889
:0404F400F10008000B
:1004F800831203137008F800FB01FC019E30F3001F
:10050800FA01F201F101F0010230FC002620080096
:1005180083120313C301420884000008C40044087E
:10052800003A0319A12A4408C500BA20C30A43089F
:0C053800420784000008C400932A080059
:1005440083160313810175308F00013085008312F7
:1005540085018316860183128601013083160317F1
:100564008800890103138701831287010330FB008C
:100574008A30FC005530FD00FD0BBE2AFC0BBE2A60
:10058400FB0BBE2A000000003330831699001815B7
:1005940042222B30840049308000840A4430800099
:1005A400840A45308000840A41308000840A533034
:1005B4008000840A26308000840A54308000840A33
:1005C40045308000840A43308000840A4E30800025
:1005D400840A4F308000840A4C308000840A4F30F3
:1005E4008000840A47308000840A49308000840AED
:1005F40041308000840A8001840A2B30C2008C229E
:100604000D30C500BA202B30840020308000840ACD
:100614004C308000840A44308000840A52308000C8
:10062400840A20308000840A8001840A2B30C200AE
:100634008C220D30C500BA200B30FB002630FC00A4
:100644005D30FD00FD0B242BFC0B242BFB0B242B1A
:1006540000000000C20152227008A9007108AA001B
:100664007008FF3CC0007108031C013E033CC1003C
:100674004008A5004108A600FF30F0000330F10057
:100684002C227008BC007108BD007208BE007308FB
:10069400BF004008F0004108F1002C223C08F4009F
:1006A4003D08F5003E08F6003F08F700C420700836
:1006B400BC007108BD007208BE007308BF0064303E
:1006C400F0007C223C08F4003D08F5003E08F600EA
:1006D4003F08F7007B217008BC007108BD00720858
:1006E400BE007308BF003C08A1003D08A2003E08FC
:1006F400A3003F08A4005530F0007C227008F400E9
:100704007108F5007208F6007308F7003C08F00061
:100714003D08F1003E08F2003F08F300DC21FF3001
:1007240003180030F00070080319B72BFF3086005F
:1007340087140230FB000430FC00BA30FD00FD0BCE
:10074400A12BFC0BA12BFB0BA12B00008601871016
:100754000230FB000430FC00BA30FD00FD0BB02B6E
:0E076400FC0BB02BFB0BB02B00002C2BB82B8A
:04400E00F420000793
:00000001FF
