:02000000FD28D9
:0E000600213083120313FD00FD0B07280800B4
:06001400000000000800DE
:10001A000F3083120313FC004730FD00FD0B132839
:0A002A00FC0B132800000000080082
:1000340083120313DC1B20280511212805155C1BE2
:100044002528871026288714DC1A2A2805122B282D
:1000540005165C1A2F280711302807155418342860
:1000640086143528861085150A208511DC193C284C
:1000740005113D2805155C1941288710422887146D
:10008400DC1846280512472805165C184B2807116A
:100094004C280715541850288614512886108515A5
:1000A4000A208511541C58280D20592803200800C3
:1000B4008312031354105B08DC001A205414080044
:1000C400063083120313FB001330FC00AD30FD0037
:1000D400FD0B6A28FC0B6A28FB0B6A280000000051
:0200E400080012
:1000E600831203135708013A031D7C288030D7007A
:1000F60093285708023A031D8328C030D700932857
:100106005708033A031D8A289430D70093285708C6
:10011600043A031D9128D430D70093288030D700A5
:100126005803F0005708F0077008D7007008DC0085
:100136001A205410DA015A08590784000008003AB8
:100146000319AD285A08590784000008DB005A2015
:08015600DA0A9E285414080087
:10015E0083160313851186100711051287100511DA
:10016E0083128511861005118710051207110D20B7
:10017E000D200D200516071585150A2085110D2059
:10018E0085150A2085110D2085150A2085110D2053
:10019E00071185150A2085110D2085150A20851158
:1001AE000512051585150A2085110D200511071557
:1001BE0085150A208511071185150A2085110D2038
:1001CE0085150A208511071585150A2085110D2024
:1001DE00071185150A2085110515871405160715B3
:0C01EE0085150A2085110D20541408000E
:1001FA00831603138501FF3083128500FF308316AF
:10020A008500031788018901423084004930800043
:10021A00840A44308000840A45308000840A4130D0
:10022A008000840A53308000840A20308000840AC7
:10023A0059308000840A20308000840A54308000BB
:10024A00840A45308000840A43308000840A4E3094
:10025A008000840A4F308000840A4C308000840A6F
:10026A004F308000840A47308000840A4930800079
:10027A00840A41308000840A53308000840A800155
:10028A00840A2030840020308000840A4D308000A7
:10029A00840A2E308000840A45308000840A2E3079
:1002AA008000840A20308000840A49308000840A51
:1002BA0026308000840A54308000840A203080006E
:1002CA00840A30308000840A34308000840A800135
:1002DA00840A3130840050308000840A5230800011
:1002EA00840A41308000840A43308000840A5430F2
:1002FA008000840A49308000840A43308000840ADE
:10030A0041308000840A20308000840A2030800036
:10031A00840A4C308000840A43308000840A4430C6
:10032A008000840A8001840AAF200130DC001A2090
:10033A000C30DC001A200130D7000430D8002030FD
:10034A00D90073200230D7000430D8003130D900E8
:10035A0073201530FB004B30FC00BE30FD00FD0B56
:10036A00B429FC0BB429FB0BB42900000130DC00D2
:10037A001A200130D7000430D8002030D900732069
:10038A000230D7000130D8004230D900732006303D
:10039A00FB001330FC00AD30FD00FD0BD229FC0B35
:1003AA00D229FB0BD22900000000D3011C30DC004B
:1003BA001A2062205308033A0319E529D30ADB29D4
:1003CA00D3011830DC001A2062205308073A0319B7
:1003DA00F029D30AE629D3011C30DC001A20622056
:1003EA005308073A0319FB29D30AF129E529FC29FD
:04400E00F423000691
:00000001FF
