:02000000FB28DB
:1000060083120313FB01FA01F9018030F800F10CA9
:10001600F00C031C17287408F90775080318750FE8
:10002600FA070318FB0A0310F01F1F287408FA07C3
:1000360075080318750FFB07FB0CFA0CF90CF80C86
:10004600031C0A287B08F3007A08F2007908F100FD
:060056007808F00008002C
:10005C00831603131208F000F101F00A0319F10AD8
:10006C0083122708F400F50103200630F200700813
:10007C00F4007108F500720803194928F50CF40C0A
:10008C00F513FF3E42287408F0007508F100F00DDE
:10009C00F10D7010F00DF10D7010F00DF10D7010E0
:1000AC00F00DF10D701030307005F3007408F00095
:1000BC007508F100F10CF00CF113F10CF00CF113CC
:0E00CC00700895000F30970573089704080020
:1000DA00831603131208F000F101F00A0319F10A5A
:1000EA0083122708F400F50103200630F200700895
:1000FA00F4007108F500720803198828F50CF40C4D
:10010A00F513FF3E81287408F0007508F100F00D20
:10011A00F10D7010F00DF10D7010F00DF10D701061
:10012A00F00DF10D701030307005F3007408F00016
:10013A007508F100F10CF00CF113F10CF00CF1134D
:0E014A0070089B000F309D0573089D0408008F
:0C01580083120313950117129712080080
:10016400831603130711831212150C309704080029
:10017400831603138710831212150C309D04080094
:10018400831203130511051685158512C830A700BF
:0A0194002E20C830A7006D200800DF
:10019E00831203130515051285158512C830A700A5
:0A01AE002E20C830A7006D200800C5
:1001B8001A3083120313FC00F830FD00FD0BE2280F
:0801C800FC0BE2280000080016
:0C01D000831203139B011D129D120800F6
:1001DC00831203130511051685118516C830A70067
:0A01EC002E20C830A7006D20080087
:1001F600863083160313810075308F0083128501C4
:1002060003308316850083128601813083168600AB
:100216008030831287008030831687000317880199
:1002260010308900831203131210921012149214C4
:100236007C3083169200AC20121092101214921485
:100246007C3083169200E820B220BA20F201861B89
:10025600F20A7208F100F10D7110F0010618F00AA9
:100266007008F1077108A2007108003A031D3E29C3
:10027600C220DC2053292208013A031D4529CF203C
:10028600DC2053292208023A031D4C29EE20DC20EB
:1002960053292208033A031D5329C220DC2053297F
:0402A6002929542985
:04400E00F420000793
:00000001FF
