:02000000CE2808
:1000060083120313F801F9011030FC00710DF80D8D
:10001600F90D7408F8027508031C750FF902031828
:100026001B287408F80775080318750FF9070310DD
:0A003600F00DF10DFC0B0928080085
:1000400083160313981826280000202883123608E8
:04005000990008000B
:100054000E3083120313FD00FD0B2E280000080050
:1000640083120313B301320884000008B400340877
:10007400003A031947283408B6002020B30A33088D
:0C008400320784000008B400392808008E
:10009000831203133408840020308000840A203047
:1000A0008000840A20308000840A20308000840A86
:1000B00030308000840A8001840A04303407B5009F
:1000C00000303306031D66280030320603198828E5
:1000D0000A30F400F5013208F0003308F100032083
:1000E0007808F0007908F1003030F0073508840016
:1000F000700880000A30F400F5013208F00033087F
:10010000F10003207008B2007108B300B503602845
:020110000800E5
:10011200831603139816903083129800831687175C
:10012200071383128C1E98281A08F00092280800E0
:100132003C30831203139F05C0309F003208F00049
:10014200F00D7010F00D701070089F0483169F1749
:1001520083121F142A209F149F1CB1280000AD286F
:100162001F101E08F100F00183161E08700483128E
:10017200B3007108B4000030B4043308F00034084E
:04018200F100080080
:100186008312031387156330FD00FD0BC82800009A
:06019600000087110800C3
:10019C00863083160313810075308F00860183121D
:1001AC008601013083168500831285013130831658
:1001BC00870083128701831689018312890101301C
:1001CC00831603178800890133300313990018151F
:1001DC008920AB01AC012D30840048308000840AAA
:1001EC004F308000840A4C308000840A41308000FB
:1001FC00840A8001840A2D30B20032200230FB00C8
:10020C000430FC00BA30FD00FD0B0A29FC0B0A2956
:10021C00FB0B0A290000C320B20199207008F200E0
:10022C007108F300F30CF20CF313F30CF20CF31350
:10023C0020087207F00073080318013E2107F10033
:10024C007008A0007108A1002B08F4002C08F50020
:10025C0003207008B2007108B3002230B4004820AB
:10026C005830AD005830AE00AF012D30B200322006
:10027C002230B20032200330FB000830FC00773013
:10028C00FD00FD0B4729FC0B4729FB0B47292C08CC
:10029C00EA3C031D53292B08603CFF300318003047
:1002AC00F1002108EA3C031D5D292008603CFF3069
:1002BC0003180030F0007108F00403196929A0013B
:0A02CC00A101AB01AC0111296A2960
:04400E00F420000793
:00000001FF
