:0200000058297D
:1000060083120313FB01FA01F9018030F800F10CA9
:10001600F00C031C17287408F90775080318750FE8
:10002600FA070318FB0A0310F01F1F287408FA07C3
:1000360075080318750FFB07FB0CFA0CF90CF80C86
:10004600031C0A287B08F3007A08F2007908F100FD
:060056007808F00008002C
:10005C00831603131208F000F101F00A0319F10AD8
:10006C0083122808F400F50103200630F200700812
:10007C00F4007108F500720803194928F50CF40C0A
:10008C00F513FF3E42287408F0007508F100F00DDE
:10009C00F10D7010F00DF10D7010F00DF10D7010E0
:1000AC00F00DF10D701030307005F3007408F00095
:1000BC007508F100F10CF00CF113F10CF00CF113CC
:0E00CC00700895000F30970573089704080020
:1000DA00831603131208F000F101F00A0319F10A5A
:1000EA0083122808F400F50103200630F200700894
:1000FA00F4007108F500720803198828F50CF40C4D
:10010A00F513FF3E81287408F0007508F100F00D20
:10011A00F10D7010F00DF10D7010F00DF10D701061
:10012A00F00DF10D701030307005F3007408F00016
:10013A007508F100F10CF00CF113F10CF00CF1134D
:0E014A0070089B000F309D0573089D0408008F
:100158008316031398169030831298008316871716
:10016800071383128C1EBB281A08F000B528080054
:10017800831603130711831212150C309704080015
:0C01880083120313950117129712080050
:0C019400831203139B011D129D12080032
:1001A000831203131A08F200981CD8281812181684
:0A01B0007208F1007108F000080069
:1001BA000030831203138C1A0130F1007108F00029
:0201CA0008002B
:1001CC00831203130515051285118516C830A80076
:0A01DC002E20C830A8006D20080096
:1001E600831203130511051285118512A8012E200D
:0601F600A8016D200800C5
:1001FC00831203130511051685158512C830A80046
:0A020C002E20C830A8006D20080065
:10021600831203130511051685118516C830A8002B
:0A0226002E20C830A8006D2008004B
:100230001A3083120313FC00F830FD00FD0B1E2959
:08024000FC0B1E290000080060
:10024800831603138710831212150C309D040800BF
:100258008312031306140230FB000430FC00BA308A
:10026800FD00FD0B3529FC0B3529FB0B352900005A
:1002780006100230FB000430FC00BA30FD00FD0B14
:0E0288004329FC0B4329FB0B4329000008000F
:10029600831203130515051285158512C830A800AB
:0A02A6002E20C830A8006D200800CB
:1002B000863083160313810075308F008312850109
:1002C000C330831685008312860183168601803031
:1002D000831287008030831687000317880110304F
:1002E00089008312031312109210121492147C309E
:1002F00083169200C42012109210121492147C30B3
:1003000083169200CA20BC20242133308316990022
:100310001815AC20DD20700803199129D020700831
:10032000A1002108313A031D9629E6202108353A1B
:10033000031D9B29F3202108323A031DA029FE202A
:100340002108343A031DA6290B212C212108353A16
:10035000031DAB294B212108363A031DDB2906106A
:10036000F201851BF20A7208F100F10D7110F00123
:10037000051BF00A7008F1077108A0007108003A27
:10038000031DC529E6201821DA292008013A031D9A
:10039000CC294B211821DA292008023A031DD32940
:1003A0000B211821DA292008033A031DDA29E62057
:0A03B0001821DA29B0298A29DC2976
:04400E00F420000793
:00000001FF
