:040000008A15002835
:1000060083120313F2018316141912281F301105E7
:10001600F1007108003A031D1228FF30F200720841
:04002600F0000800DE
:0E002A00213083120313FD00FD0B192808007E
:100038000F3083120313FC004730FD00FD0B22280C
:0A004800FC0B222800000000080055
:06005200000000000800A0
:1000580083160313D101D20103207008003A031953
:10006800362842285208123A031D3C288E30510681
:1000780003194228D10A0319D20A30281230520231
:10008800031D48288F305102031C4D287B30D000B7
:1000980053281114111C522800004E28D001500872
:0400A800F00008005C
:1000AC0083160313D01B5D28831285135F288312DC
:1000BC0085178316501B6528831205136728831236
:1000CC0005178316D01A6D28831285126F28831298
:1000DC0085168316501A75288312051277288312F9
:1000EC0005165D187B2805157C280511851529201A
:1000FC0085118316D01985288312851387288312BE
:10010C008517831650198D28831205138F28831297
:10011C0005178316D01895288312851297288312F9
:10012C008516831650189D28831205129F2883125A
:10013C0005165D18A3280515A42805118515292079
:0E014C0085115D1CAB281C20AC281520080076
:10015A00831203138C11831650088312930083169B
:10016A00141DB9280000B42883128C19BE28000077
:10017A00B9288316111BC328F101C62811150230AC
:08018A00F1007108F00008000B
:08019200831603131115080088
:10019A00831203138C118316911583128C19D72895
:1001AA000000D2281308F100831691124D08003A74
:1001BA00031DE028911683128C11831611168312DF
:0E01CA008C19E9280000E4287108F0000800F4
:1001D800831203135D1083164D08D00056205D145A
:0201E80008000D
:1001EA0083120313FB01FA01F9018030F800F10CC4
:1001FA00F00C031C09297408F90775080318750F10
:10020A00FA070318FB0A0310F01F11297408FA07EA
:10021A0075080318750FFB07FB0CFA0CF90CF80CA0
:10022A00031CFC287B08F3007A08F2007908F10025
:06023A007808F000080046
:1002400083120313F801F9011030FC00710DF80D51
:10025000F90D7408F8027508031C750FF9020318EC
:1002600038297408F80775080318750FF907031083
:0A027000F00DF10DFC0B262908002B
:10027A00831603139114911C442900004029080095
:10028A00831603134D08013A031D4E298030CD0011
:10029A0065294D08023A031D5529C030CD0065294C
:1002AA004D08033A031D5C299430CD0065294D0899
:1002BA00043A031D6329D430CD0065298030CD006E
:1002CA004E03F0004D08F0077008CD0083125D144C
:1002DA0070088316D00056205D1083164F08D00090
:0602EA0056205D1408001F
:1002F000FF3083120313E100EF30860006188629D1
:100300000618832980294430E200E10186188D29EE
:1003100086188B2988294330E20006199529061989
:1003200092298F294230E200E10186199D29861920
:100330009A2997294130E200E1016108FF3A031D43
:10034000C729DF3086000618AB290618A829A52979
:100350002330E200E1018618B4298618B029AD29BE
:100360003930E2000930E1000619BD290619B92922
:10037000B6293630E2000630E1008619C629861912
:10038000C229BF293330E2000330E100C829080048
:100390006108FF3A031DF229BF3086000618D629EE
:1003A0000618D329D0293030E200E1018618DF2970
:1003B0008618DB29D8293830E2000830E100061918
:1003C000E8290619E429E1293530E2000530E10089
:1003D0008619F1298619ED29EA293230E200023026
:1003E000E100F32908006108FF3A031D1D2A7F3050
:1003F00086000618012A0618FE29FB292A30E20089
:10040000E10186180A2A8618062A032A3730E200F4
:100410000730E1000619132A06190F2A0C2A343076
:10042000E2000430E10086191C2A8619182A152AD0
:0E0430003130E2000130E1001E2A0800080011
:10043E002C20D030D000AD204D08D000AD204E087D
:08044E00D000AD20C920080018
:1004560078216108003AFF30031D0030F100610881
:10046600013AFF30031D0030F0007008F104610806
:10047600023AFF30031D0030F0007008F1046108F5
:10048600033AFF30031D0030F0007008F1046108E4
:10049600043AFF30031D0030F0007008F1046108D3
:1004A600053AFF30031D0030F0007008F1046108C2
:1004B600063AFF30031D0030F0007008F1046108B1
:1004C600073AFF30031D0030F0007008F1046108A0
:1004D600083AFF30031D0030F0007008F10461088F
:1004E600093AFF30031D0030F0007108F0040319CB
:1004F600952A01308316CD000C302E07CE008312CC
:100506006108A03E840000088316CF004521103004
:100516008316D000562083162E08AF3E8400831221
:10052600610880006108413A031DA12A0130831643
:10053600AE000130D00056200230E4006208433A93
:10054600031DA72A0230E4006108423A031DC12AAE
:100556008316AE030130CD002E08CE002030CF002A
:1005660045218316AE030130CD002E08CE00203083
:0E057600CF00452110308316D000562008001B
:100584000F30831603134905F00030307004F10076
:060594007108F0000800F0
:10059A00831603134908F000F00CF013F00CF01363
:1005AA00F00CF013F00CF01330307004F200720803
:0405BA00F000080045
:1005BE0083120313E20178216108003AFF30031D14
:1005CE000030F1006108013AFF30031D0030F000E9
:1005DE007008F1046108023AFF30031D0030F0008C
:1005EE007008F1046108033AFF30031D0030F0007B
:1005FE007008F1046108043AFF30031D0030F0006A
:10060E007008F1046108053AFF30031D0030F00058
:10061E007008F1046108063AFF30031D0030F00047
:10062E007008F1046108073AFF30031D0030F00036
:10063E007008F1046108083AFF30031D0030F00025
:10064E007008F1046108093AFF30031D0030F00014
:10065E007108F00403194C2B02308316CD000C30B8
:10066E00831263078316CE0083126108A03E8400B6
:10067E0000088316CF00452110308316D000562077
:10068E006308653E8400610880006108413A031DDD
:10069E00562B0130E30001308316D000562062083D
:1006AE00433A031D5C2B0330E4006108423A031DFC
:1006BE007A2BE30301308316CD0083126308831671
:1006CE00CE002030CF004521E30301308316CD004C
:1006DE00831263088316CE002030CF0045211030E0
:0806EE008316D000562008001D
:1006F600831603133008F000F1010A30F400F50107
:10070600F520831631087007AC0071080318013E06
:04071600AD0008002A
:10071A00831603178C1C932B00008D2B0313490897
:10072A00831203178D00831603134A0883120317D3
:10073A008C0083168C130C150B08F0008B135530A4
:10074A008D00AA308D008C14F01BAD2B8B13AE2BB1
:06075A008B170C110800D2
:10076000831203130918BC2B0918B72BB42B1030B4
:100770008316D0005620E3038918C62B8918C12B95
:0E078000BE2B14308316D0005620E30A08006A
:10078E000B3083120313FB002630FC005D30FD009E
:10079E00FD0BCF2BFC0BCF2BFB0BCF2B0000000048
:0207AE00080041
:1007B000831203136608F000F1010A30F400F5011A
:1007C000F52067087007EE0071080318013EEF007E
:0207D00008001F
:1007D200831603138511051105128512051385135E
:1007E20083128511051185130513851205121C202C
:1007F2001C201C20851605168515292085111C2014
:100802008515292085111C208515292085111C207C
:1008120005128515292085111C2085152920851191
:10082200851285178515292085111C20851305162B
:1008320085152920851105128515292085111C2071
:1008420085152920851105168515292085111C205D
:100852000512851529208511851705178516051698
:0C0862008515292085111C205D1408005C
:10086E00831603134908013A031D402C8030C9003A
:10087E00572C4908023A031D472CC030C900572C8B
:10088E004908033A031D4E2C9430C900572C4908D1
:10089E00043A031D552CD430C900572C8030C900A2
:1008AE004A03F0004908F0077008C9007008D0002C
:1008BE0056205D108316CC014C084B0784000008AF
:1008CE00003A0319732C4C084B0784000008CD0026
:0E08DE00EC208316CC0A632C83125D140800F4
:1008EC00831203130918832C09187D2C7A2C1030D1
:1008FC008316D00056208316AE03831289188F2CD2
:10090C008918892C862C14308316D0005620831617
:04091C00AE0A080017
:100920008316031314139413071687153830831294
:040930009400080027
:100934002C20D030D000AD204908D000AD203D217E
:10094400D130D000AD20CD01CD207008DE00C9200B
:0E09540083125E088316CA004A08F0000800ED
:10096200831603134B08840020308000840A203051
:100972008000840A20308000840A20308000840AAB
:1009820030308000840A8001840A04304B07CC0096
:1009920000304A06031DCF2C003049060319F32C00
:1009A2000A30F400F5014908F0004A08F10020215C
:1009B2007808F0007908F1003030F00783164C080F
:1009C2008400700880000A30F400F5014908F00044
:1009D2004A08F100202170088316C9007108CA0074
:0609E200CC03C92C080043
:1009E80083160313CD01CE011F220130CD0016302E
:1009F800CE001F220230CD001130CE001F2204305D
:100A0800CD001230CE001F220530CD000930CE00B7
:0E0A18001F220630CD001530CE001F22080030
:100A2600831603134908831203178D0083168C134C
:0E0A36000C1483120C08F1007108F000080087
:10100000073083160313810075308F00831285012A
:101010000130831685000F30860083128601880117
:101020008316880183128901033083168900031710
:10103000880189010F30031395000330FB008A30CB
:10104000FC005530FD00FD0B2328FC0B2328FB0B77
:10105000232800000000143093008A1190248A1580
:101060008A11E9238A1501308316D0008A1156208F
:101070008A150F308316D0008A1156208A15013048
:101080008316C9000630CA00B83084005230800090
:10109000840A49308000840A45308000840A473041
:1010A0008000840A4F308000840A8001840AB830AE
:1010B000CB008A1137248A150B30FB002630FC0048
:1010C0005D30FD00FD0B6228FC0B6228FB0B6228E3
:1010D0000000000001308316C9000130CA00B8309A
:1010E000840050308000840A52308000840A4F30DF
:1010F0008000840A47308000840A52308000840ACD
:1011000041308000840A4D308000840A41308000E4
:10111000840A20308000840A48308000840A3A30F3
:101120008000840A8001840AB830CB008A113724F9
:101130008A1502308316C9000130CA00B830840015
:1011400050308000840A52308000840A4F30800082
:10115000840A47308000840A52308000840A41307B
:101160008000840A4D308000840A41308000840A67
:1011700020308000840A4D308000840A3A3080009C
:10118000840A8001840AB830CB008A1137248A157A
:101190002630840046308000840A65308000840A4E
:1011A00063308000840A68308000840A61308000E7
:1011B000840A20308000840A30308000840A303075
:1011C0008000840A2F308000840A30308000840A36
:1011D00030308000840A2F308000840A3030800054
:1011E000840A30308000840A20308000840A800124
:1011F000840A4B30840048308000840A6F308000BD
:10120000840A72308000840A61308000840A2030B1
:101210008000840A20308000840A30308000840AF4
:1012200030308000840A3A308000840A30308000F8
:10123000840A30308000840A3A308000840A3030DA
:101240008000840A30308000840A20308000840AC4
:101250008001840A07308316CD009030CE008A11B9
:101260001F228A15FF30C9008A1113258A157008BC
:10127000031943298A11F4248A15FF30C900CA01D1
:101280008A118D238A15831601300313AE000130B5
:101290008312E3000130E400A0308400303080008D
:1012A000840A31308000840A32308000840A33306E
:1012B0008000840A34308000840A35308000840A3B
:1012C00036308000840A37308000840A383080004D
:1012D000840A39308000840A8001840A8316AF01B1
:1012E0008312E501CA0183126408013A031D8229B1
:1012F0008A112B228A158A1176248A158A117B235A
:101300008A15732983126408023A031D91298A11F0
:10131000DF228A158A11B0238A158A11D8238A15EB
:1013200082291530FB004B30FC00BE30FD00FD0B68
:101330009729FC0B9729FB0B972900000130831696
:10134000D0008A1156208A150C308316D0008A11DD
:1013500056208A156408033A031DD12A01308316EA
:10136000C9000130CA00B830840048308000840AC7
:101370006F308000840A72308000840A61308000FF
:10138000840A20308000840A20308000840A2030C3
:101390008000840A20308000840A20308000840A83
:1013A00020308000840A20308000840A20308000B1
:1013B000840A3A308000840A30308000840A303059
:1013C0008000840A8001840AB830CB008A11372457
:1013D0008A1502308316C9000130CA00B830840073
:1013E0004D308000840A69308000840A6E308000AD
:1013F000840A75308000840A74308000840A6F305B
:101400008000840A73308000840A8001840AB83026
:10141000CB008A1137248A1583162C08C9002D08A1
:10142000CA003830CB008A11B1248A150130C900B6
:101430000830CA003830CB008A1137248A156E086C
:101440008316C90083126F088316CA003830CB0098
:101450008A11B1248A150230C9000830CA00383018
:10146000CB008A1137248A150B30FB002630FC0094
:101470005D30FD00FD0B3A2AFC0B3A2AFB0B3A2AA1
:101480000000000001308316D0008A1156208A1512
:1014900001308316C9000130CA00B83084005330CF
:1014A0008000840A49308000840A53308000840A16
:1014B00054308000840A45308000840A4D3080001A
:1014C000840A41308000840A8001840AB830CB004D
:1014D0008A1137248A1502308316C9000130CA00E8
:1014E000B830840050308000840A52308000840A72
:1014F0004F308000840A47308000840A52308000D8
:10150000840A41308000840A4D308000840A4130D2
:101510008000840A44308000840A4F308000840AAE
:101520008001840AB830CB008A1137248A150B3029
:10153000FB002630FC005D30FD00FD0B9D2AFC0BFE
:101540009D2AFB0B9D2A0000000001308316D0006D
:101550008A1156208A15CA0A4A08023A031DD02A5F
:1015600001308316C9000630CA00B83084005230FA
:101570008000840A45308000840A4C308000840A50
:101580004F308000840A4A308000840A8001840A37
:10159000B830CB008A1137248A150430E400CA0120
:1015A000AA296408043A031DB72C051C0C2B8316CA
:1015B000C9018A119A248A1570088312A200013089
:1015C0008316C9008A119A248A1570088312A10013
:1015D00002308316C9008A119A248A157008831272
:1015E000A00004308316C9008A119A248A15700855
:1015F0008312A30005308316C9008A119A248A1524
:1016000070088312A50006308316C9008A119A2437
:101610008A1570088312A40023088316C9008A1152
:10162000CD228A1570088312AC0023088316C900E6
:101630008A11C2228A1570088312AD002F30AE00C5
:1016400025088316C9008A11CD228A1570088312D5
:10165000AF0025088316C9008A11C2228A157008B6
:101660008312B0002F30B10024088316C9008A11FC
:10167000CD228A1570088312B20024088316C9008F
:101680008A11C2228A1570088312B30020088316BB
:10169000C9008A11CD228A1570088312D100200852
:1016A0008316C9008A11C2228A1570088312D200DB
:1016B0003A30D30021088316C9008A11CD228A1539
:1016C00070088312D40021088316C9008A11C2222F
:1016D0008A1570088312D5003A30D6002208831686
:1016E000C9008A11CD228A1570088312D7002208FA
:1016F0008316C9008A11C2228A1570088312D80085
:1017000001308316C9000130CA004B30CB008A116A
:1017100037248A1502308316C9000130CA002630EA
:10172000CB008A1137248A150230FB000430FC00FC
:10173000BA30FD00FD0B9A2BFC0B9A2BFB0B9A2B5E
:10174000000020088316C9008A11CD228A15303086
:101750003004F10070087106FF30031D0030C8002E
:10176000831220088316C9008A11C2228A153030DC
:101770003104F20070087206FF30031D0030F100E2
:101780004808F10583124A08003AFF30031D003073
:10179000F0007108F0050319252C08140130831698
:1017A000D0008A1156208A1501308316C9000130F5
:1017B000CA00B830840052308000840A493080006A
:1017C000840A45308000840A47308000840A4F3004
:1017D0008000840A8001840AB830CB008A11372443
:1017E0008A1502308316C9000130CA00B83084005F
:1017F00041308000840A43308000840A54308000E5
:10180000840A49308000840A56308000840A4130BE
:101810008000840A44308000840A4F308000840AAB
:101820008001840AB830CB008A1137248A158A11C6
:10183000C7238A158A11C7238A1501308316D00061
:101840008A1156208A150130CA0021088316C90062
:101850008A11CD228A15303083126604F100700897
:101860007106FF30031D00308316C8008312210863
:101870008316C9008A11C2228A1530308312670488
:10188000F20070087206FF30031D0030F10083166D
:101890004808F10583124A08013AFF30031D003061
:1018A000F0007108F0050319B62C081001308316FA
:1018B000D0008A1156208A1501308316C9000130E4
:1018C000CA00B830840052308000840A4930800059
:1018D000840A45308000840A47308000840A4F30F3
:1018E0008000840A8001840AB830CB008A11372432
:1018F0008A1502308316C9000130CA00B83084004E
:1019000044308000840A45308000840A53308000CF
:10191000840A41308000840A43308000840A5430B5
:101920008000840A49308000840A56308000840A8E
:1019300041308000840A44308000840A4F308000A7
:10194000840A8001840AB830CB008A1137248A15B2
:101950008A11C7238A158A11C7238A150130831675
:10196000D0008A1156208A150230CA00D12A732964
:02197000B82C91
:04400E00F42F000685
:00000001FF
