:1000000023EF0DF0FFFFFFFF6EC5C2F56FC5C3F50F
:1000100026EC29F000C072F5000E0501736F72C561
:1000200073F5726BDEEC29F0005005017213000EBF
:100030007313DEEC29F000C070F5000E0501716F3E
:1000400070C571F5706BDEEC29F00050050170137E
:10005000000E7113786B7D6B010E7E6F7B6B7C6B7A
:100060000C0E6E25C26F000E6F21C36F26EC29F0B7
:1000700000C004F0000E056E05320432059E053204
:100080000432059E05320432059E05320432059E77
:1000900004C076F505C077F5050176377691773798
:1000A000763776917737880EA66F050EA76FC90E43
:1000B000A86F190EA96F040EAA6F8FEC27F00D0E12
:1000C00005016E25C26F000E6F21C36F26EC29F06B
:1000D00000C074F5000E0501756F3F0E7417000E19
:1000E00075170E0E0301BD5D0501796F000E03014A
:1000F000BE5905017A6F6C51795F6D517A5B76510B
:10010000795F77517A5B020E6E25C26F000E6F2108
:10011000C36F26EC29F000C0C4F56EC5C2F56FC5EB
:10012000C3F55AEC29F0030E05016E25C26F000ECF
:100130006F21C36F26EC29F000C0C2F507EC2BF04D
:1001400072C5B6F573C5B7F59FEC29F0BF0E006E0A
:10015000030E016E030E0026D8B0012A00C086F5FA
:1001600001C087F500C08CF501C08DF5040E0501B6
:100170006E25C26F000E6F21C36F26EC29F08CC56F
:10018000E1FF8DC5E2FF00C0E6FF010E0501865DBF
:10019000006E000E8759016E00C086F501C087F51C
:1001A00000C08CF501C08DF5DEEC29F08CC5E1FFB7
:1001B0008DC5E2FF00C0E6FF010E0501865D006E01
:1001C000000E8759016E00C086F501C087F500C09A
:1001D0008CF501C08DF5DEEC29F08CC5E1FF8DC5F5
:1001E000E2FF00C0E6FF010E0501865D006E000E15
:1001F0008759016E00C086F501C087F500C08CF5F7
:1002000001C08DF5DEEC29F08CC5E1FF8DC5E2FF64
:1002100000C0E6FFC30E006E030E016E030E002643
:10022000D8B0012A00C086F501C087F500C08CF562
:1002300001C08DF5DEEC29F08CC5E1FF8DC5E2FF34
:1002400000C0E6FF010E0501865D006E000E8759B5
:10025000016E00C086F501C087F500C08CF501C0B5
:100260008DF5DEEC29F08CC5E1FF8DC5E2FF00C005
:10027000E6FF010E0501865D006E000E8759016ED6
:1002800000C086F501C087F500C08CF501C08DF572
:10029000DEEC29F08CC5E1FF8DC5E2FF00C0E6FF72
:1002A000010E0501865D006E000E8759016E00C0CB
:1002B00086F501C087F500C08CF501C08DF5DEEC38
:1002C00029F08CC5E1FF8DC5E2FF00C0E6FF000EFE
:1002D0000501751902E1020E7419D8A483D0010E2C
:1002E000006E000E016E026E036E00500301BF250A
:1002F000C36F0150C021C46F0250C121C56F0350AC
:10030000C221C66F120E0501746F000E756FBF0E0D
:10031000006E030E016E00C086F501C087F500C0B7
:100320008CF501C08DF50C0EC26F13EC2AF08CC554
:10033000E1FF8DC5E2FF00C0E6FF010E0501862545
:10034000006E000E8721016E00C086F501C087F5A2
:1003500000C08CF501C08DF50D0EC26F13EC2AF0B4
:100360008CC5E1FF8DC5E2FF00C0E6FF010E05016F
:100370008625006E000E8721016E00C086F501C043
:1003800087F500C08CF501C08DF5C26B13EC2AF027
:100390008CC5E1FF8DC5E2FF00C0E6FF010E05013F
:1003A0008625006E000E8721016E00C086F501C013
:1003B00087F500C08CF501C08DF5010EC26F13ECFE
:1003C0002AF08CC5E1FF8DC5E2FF00C0E6FF050104
:1003D000782B140E766F000E776F7B6B7C6B0301AE
:1003E000C76B79D0000E0501751902E1180E74195A
:1003F00036E1BFC37FF5C0C380F5C1C381F5C2C379
:1004000082F5C3C3BFF3C4C3C0F3C5C3C1F3C6C33E
:10041000C2F379C500F07AC501F0000E026E036EDA
:1004200000507F250301C36F0150050180210301A6
:10043000C46F0250050181210301C56F03500501FE
:1004400082210301C66F100E0501746F000E756FD7
:10045000782B140E766F000E776F7D2B3CD0050144
:10046000000E751902E1110E741935E1BFC37FF555
:10047000C0C380F5C1C381F5C2C382F5C3C3BFF356
:10048000C4C3C0F3C5C3C1F3C6C3C2F3010E006E3B
:10049000000E016E026E036E00507F250301C36FD4
:1004A0000150050180210301C46F02500501812123
:1004B0000301C56F0350050182210301C66F100EB1
:1004C0000501746F000E756F782B140E766F000E99
:1004D000776F7B6B7C6B05017851000AD8B4BCD177
:1004E0000501040E6E25B66F000E6F21B76FC2C3F3
:1004F000B8F5C1C3B9F515EC2BF0C0C3C2F5C1C343
:10050000C3F5C2C3C4F507EC2BF0BFC3C2F507ECBB
:100510002BF0C6C3C2F507EC2BF0C5C3C2F507EC40
:100520002BF0C4C3C2F5C5C3C3F5C6C3C4F507ECFD
:100530002BF0C3C3C2F507EC2BF00C0E05016E25A2
:10054000C26F000E6F21C36F26EC29F00F0E00144E
:10055000066E76C504F077C505F0043604900536BE
:1005600004360490053606C000F0000E016E0450FB
:100570000012055001120C0E05016E25C26F000E0F
:100580006F21C36F00C0C4F55AEC29F00D0E0501B0
:100590006E25C26F000E6F21C36F26EC29F0C00ECE
:1005A0000016000E016E0501745100127551011202
:1005B0000D0E6E25C26F000E6F21C36F00C0C4F513
:1005C0005AEC29F005016C517B25796F6D517C2126
:1005D0007A6F7651792777517A237E51000A04E0A9
:1005E0003FEC28F099EC28F0BF0E0501B66F190E0C
:1005F000B76F7AC5B8F579C5B9F515EC2BF0C70E0C
:100600000501B66F190EB76FB86BB96B15EC2BF00F
:10061000BD0E0501B66F190EB76F6CC5B8F56DC587
:10062000B9F5D2EC26F0160E0501C26F13EC2AF0D4
:1006300000C0B9F5170E0501C26F13EC2AF000C017
:10064000B8F5C70E0501B66F190EB76F15EC2BF094
:10065000BD0E05017925846F190E7A21856F100E64
:100660006E25B66F000E6F21B76FB86BB96B15ECC6
:100670002BF0010E05017915006E7AC501F0000E10
:10068000011600C083F584C5C2F585C5C3F5C46BEA
:100690005AEC29F0C90E0501B66F190EB76FD10ECD
:1006A000B86F190EB96F83518425BA6F000E85217A
:1006B000BB6FBC6B55EC1FF0080E05018425B66FAF
:1006C000000E8521B76F8351B627D8B0B72BB86B12
:1006D000060EB96F15EC2BF00A0E05018425B66FD6
:1006E000000E8521B76F8351B627D8B0B72B7B5149
:1006F0007625066E7C517721076E07C000F0016AEF
:1007000000C0B8F506C0B9F515EC2BF06EC5B6F50E
:100710006FC5B7F505017B517625B86F7C51772100
:10072000B96F0C0EB827D8B0B92B8351B827D8B001
:10073000B92BD2EC26F0160E0501C26F13EC2AF08D
:1007400000C0B9F5170E0501C26F13EC2AF000C006
:10075000B8F5100E05016E25B66F000E6F21B76F4C
:1007600015EC2BF00E0E05017925B66F000E7A21DF
:10077000B76FEEEC15F005017D51000A4AE0100E4E
:10078000746F000E756F7D6B0301C72B05017E6BC7
:10079000020EC56F76516E25C66F77516F21C76FF8
:1007A00088EC29F00E0E05016A258E6F000E6B2174
:1007B0008F6F6C518E276D518F2376518E27775115
:1007C0008F23CAEC29F0880E05018E6F050E8F6FFE
:1007D00072C590F573C591F570C592F571C593F525
:1007E0000E0E0301BD5D0501946F000E0301BE599D
:1007F0000501956F6C51945F6D51955B7651945FD7
:100800007751955BA9EC25F000C07BF501C07CF524
:1008100067D60301C751000A1FE07BC500F07CC505
:1008200001F0000E026E036E0050BF270150C0237E
:100830000250C1230350C223110E0501746F000E34
:10084000756F0301C76B05017E6B140E766F000E8A
:10085000776F7B6B7C6B44D6050112000501626BE0
:10086000646B656B666B676B5FC56AF560C56BF53E
:1008700061C56CF524EC22F000C063F50501622B24
:100880006351000AFF0ED8A4000E046E320E625DA2
:10089000000ED8B0FF0E006E0450001001E001D031
:1008A000E3D70501320E625D03E3FF0E626F3FD3B3
:1008B000CFEC24F00501636BD9C3A6F5DAC3A7F525
:1008C000DBC3A8F5DCC3A9F5590EAA6F000EAB6F08
:1008D00064EC23F002015751550AD8A4DDD05851D9
:1008E000AA0AD8A4D9D05950E90AFF0ED8A4000EFC
:1008F000086E5950EB0AFF0ED8A4000E046E5B5030
:10090000900AFF0ED8A4000E006E04500016085086
:10091000001004E0010E0501636FBED002012351F7
:10092000000A000ED8A4FF0E046E2451000A000E27
:10093000D8A4FF0E006E005004122551000A000ECC
:10094000D8A4FF0E006E005004122651000A000EBB
:10095000D8A4FF0E006E045000100EE01FC2D9F3A1
:10096000000E0301DA6FDB6FDC6F20C2DAF321C205
:10097000DBF322C2DCF38ED002013351000A000EF9
:10098000D8A4FF0E046E3451000A000ED8A4FF0E46
:10099000006E005004123551000A000ED8A4FF0E5C
:1009A000006E005004123651000A000ED8A4FF0E4B
:1009B000006E045000100EE02FC2D9F3000E0301A8
:1009C000DA6FDB6FDC6F30C2DAF331C2DBF332C2D5
:1009D000DCF360D002014351000A000ED8A4FF0EE0
:1009E000046E4451000A000ED8A4FF0E006E0050A1
:1009F00004124551000A000ED8A4FF0E006E0050EC
:100A000004124651000A000ED8A4FF0E006E0450D6
:100A100000100EE03FC2D9F3000E0301DA6FDB6F66
:100A2000DC6F40C2DAF341C2DBF342C2DCF332D006
:100A300002015351000A000ED8A4FF0E046E545157
:100A4000000A000ED8A4FF0E006E0050041255518B
:100A5000000A000ED8A4FF0E006E0050041256517A
:100A6000000A000ED8A4FF0E006E045000100EE025
:100A70004FC2D9F3000E0301DA6FDB6FDC6F50C297
:100A8000DAF351C2DBF352C2DCF304D0010E0501EC
:100A9000626F4DD20501636B0501626B0501635105
:100AA000000A3AE1D9C3A6F5DAC3A7F5DBC3A8F576
:100AB000DCC3A9F5590EAA6F000EAB6F64EC23F0EE
:100AC00002015751550AFF0ED8A4000E046E58516A
:100AD000AA0AFF0ED8A4000E006E0450001604E00F
:100AE000010E0501636F18D005016251400A03E150
:100AF000010E626F1CD2622B010E006E000E016EA1
:100B0000026E036E00500301D9270150DA23025010
:100B1000DB230350DC23C2D7010E0501626F635152
:100B2000010AD8A404D264C059F2000E02015A6F1F
:100B300065C05AF266C06BF267C0D0F3000E0301C5
:100B4000D16F68C0D1F369C0D7F36FC0D2F3000E84
:100B5000D36F70C0D3F3D2C385F3D3C386F3000E33
:100B6000876F886FD7C35BF2000E02015C6F5D6F09
:100B70005E6F85C300F086C301F087C302F088C3AF
:100B800003F05BC204F05CC205F05DC206F05EC219
:100B900007F09EEC26F000C085F301C086F302C08A
:100BA00087F303C088F3D0C35BF2D1C35CF2000EBD
:100BB00002015D6F5E6F5BC204F05CC205F05DC256
:100BC00006F05EC207F000500426015005220250D4
:100BD00006220350072204C085F305C086F306C031
:100BE00087F307C088F3D9C300F0DAC301F0DBC391
:100BF00002F0DCC303F0005004240301856F0150B0
:100C00000520866F02500620876F03500720886FEB
:100C10006AC0D4F3000ED56F6BC0D5F3D4C308F00F
:100C2000D5C309F0000E0A6E0B6E050E006E08C0EB
:100C300004F009C005F00AC006F00BC007F0005030
:100C4000030107E004360490053606360736FF0F29
:100C5000F7D759C200F05AC201F0000E026E036EBF
:100C600000500424086E01500520096E0250062031
:100C70000A6E035007200B6E010E046E000E056E07
:100C8000066E076E08C000F009C001F00AC002F04D
:100C90000BC003F00450005E0550015A0650025A82
:100CA0000750035A00C06CF201C06DF202C06EF230
:100CB00003C06FF259C204F05AC205F0000E066E6E
:100CC000076EA9EC1EF085C304F086C305F087C348
:100CD00006F088C307F00450002402016C6F055031
:100CE00001206D6F065002206E6F075003206F6F5A
:100CF000D9C355F0DAC356F0DBC357F0DCC358F064
:100D0000D0C300F0D1C301F0000E026E036E00509C
:100D10000301D925046E0150DA21056E0250DB2152
:100D2000066E0350DC21076E04C055F005C056F076
:100D300006C057F007C058F004C05FF205C060F26B
:100D400006C061F207C062F2D2C300F0D3C301F063
:100D5000000E026E036E0050042402015F6F01500A
:100D60000520606F02500620616F03500720626FFC
:100D700059C265F25AC266F259C265F25AC266F2A7
:100D800066336533669F6F507010D8B4CDD06D5008
:100D90006C1021E06DC004F0000E056E066E076E4B
:100DA00006C007F005C006F004C005F0046A6CC078
:100DB00000F0000E016E026E036E0050041005017B
:100DC000646F01500510656F02500610666F035086
:100DD0000710676F57D005017CC008F0000E096E40
:100DE0000A6E0B6E08C00BF0086A096A0A6A7BC0BB
:100DF00004F0000E056E066E076E05C007F004C015
:100E000006F0046A056A04C000F005C001F006C0DF
:100E100002F007C003F000500810646F0150091081
:100E2000656F02500A10666F03500B10676F7AC02F
:100E300004F0000E056E066E076E06C007F005C0D2
:100E400006F004C005F0046A04C000F005C001F01B
:100E500006C002F007C003F0005064130150651390
:100E6000025066130350671379C000F0000E016E44
:100E7000026E036E00506413015065130250661336
:100E8000035067136CC204F06DC205F06EC206F029
:100E90006FC207F064C500F065C501F066C502F0D9
:100EA00067C503F00450005E0550015A0650025A0F
:100EB0000750035A6BC204F0000E056E066E076EF3
:100EC000A9EC1EF000C064F501C065F502C066F52E
:100ED00003C067F5800E0318046E800E045C08E101
:100EE000000E025C05E10F0E015C02E1F50E005CF4
:100EF000000104E2010E0501626F15D00501800EAC
:100F00006719006E800E005C08E1000E665D05E169
:100F1000FF0E655D02E1F50E645D02E2626B03D0D7
:100F20000501010E626F03D00501010E626F05011C
:100F300062C500F0120005016E6B706B6EC500F0AB
:100F4000000E016E00506A25E96E01506B21EA6EB9
:100F5000E9CFE9FFEACFEAFFEECF04F00450000A40
:100F6000D8B489D06EC500F0000E016E00506A251D
:100F7000E96E01506B21EA6EE9CFE9FFEACFEAFFA3
:100F8000EECF04F004502E0A02E16EC570F56EC576
:100F900000F0000E016E00506A25E96E01506B21D1
:100FA000EA6EE9CFE9FFEACFEAFFEECF00F00050AA
:100FB0007A08000ED8B0FF0E086E6EC500F0000E65
:100FC000016E00506A25E96E01506B21EA6EE9CF8F
:100FD000E9FFEACFEAFFEECF04F0610E045C000EF9
:100FE000D8B0FF0E006E0850001623E0740E046E99
:100FF000050E056E6EC500F0000E016E0050042453
:10100000E16E01500520E26E6EC500F0000E016E2B
:1010100000506A25E96E01506B21EA6EE9CFE9FFC5
:10102000EACFEAFFEECF00F0DF0E001600C0E6FFC9
:1010300020D0740E046E050E056E6EC500F0000E15
:10104000016E00500424E16E01500520E26E6EC571
:1010500000F0000E016E00506A25E96E01506B2110
:10106000EA6EE9CFE9FFEACFEAFFEECF00F000C079
:10107000E6FF6E2B63D7740E046E050E056E6EC50B
:1010800000F0000E016E00500424E16E01500520B6
:10109000E26EE66A7051000A65E070C56EF5020EF8
:1010A0007025086E6E51085C59E3740E046E050ECF
:1010B000056E6E51010F006E000E016E005004248B
:1010C000E96E01500520EA6EE9CFE9FFEACFEAFFB9
:1010D000EECF04F00450000A1BE16EC56FF5020E5E
:1010E0007025046E6F51045C12E3740E046E050EDD
:1010F000056E6FC500F0000E016E00500424E16E15
:1011000001500520E26E200EE66E6F2BE8D726D048
:10111000740E046E050E056E6EC500F0000E016EB5
:1011200000500424E16E01500520E26E6E51010F63
:10113000006E000E016E00500424E96E015005207F
:10114000EA6EE9CFE9FFEACFEAFFEECF00F000C098
:10115000E6FF6E51081802E06E2BA1D70501030EC1
:1011600070256E6F6E070A0E6E5D4BE2740E046E94
:10117000050E056E6EC500F0000E016E00500424D1
:10118000E96E01500520EA6EE9CFE9FFEACFEAFFF8
:10119000EECF7EF56E076EC500F0000E016E0050BA
:1011A0000424E96E01500520EA6EE9CFE9FFEACF99
:1011B000EAFFEECF7DF56E076EC500F0000E016E02
:1011C00000500424E96E01500520EA6EE9CFE9FFE2
:1011D000EACFEAFFEECF7CF56E51070812E3740EFA
:1011E000046E050E056E6EC500F0000E016E005017
:1011F0000424E16E01500520E26E200EE66E6E2B97
:10120000EBD77F6B0301816B826B836B846B85C330
:10121000A6F586C3A7F587C3A8F588C3A9F5590E17
:101220000501AA6F000EAB6F64EC23F00501726B31
:10123000736B706B050170510A08D8A0A7D0030129
:10124000825102015A1903E1595103018119030125
:1012500032E1816B826B834B842B85C304F086C3A0
:1012600005F087C306F088C307F083C300F084C38A
:1012700001F0000E026E036E04500026055001229C
:10128000065002220750032200C05BF201C05CF24C
:1012900002C05DF203C05EF200C0A6F501C0A7F572
:1012A00002C0A8F503C0A9F5590E0501AA6F000EEA
:1012B000AB6F64EC23F00501706B6E6B6E510A0826
:1012C00038E3590E046E000E056E6E510301812540
:1012D000006E000E8221016E00500424E96E015060
:1012E0000520EA6EE9CFE9FFEACFEAFFEECF08F08A
:1012F00008C071F5740E046E050E056E6EC500F023
:10130000000E016E00500424E96E01500520EA6EC3
:10131000E9CFE9FFEACFEAFFEECF04F00850041866
:1013200002E10501702B05016E510A0A02E06E2BE5
:10133000C5D7724B732B590E006E000E016E030160
:1013400081510024E96E82510120EA6EE9CFE9FF64
:10135000EACFEAFFEECF71F5200E8127D8B0822BBD
:10136000050170510B0A11E073510301D51903E116
:10137000D45105017219050102E11E0E706F0501BD
:101380007151000A02E1190E706F54D7140E705D8E
:10139000D8B0A9D0200E0301815D086E000E8259DD
:1013A000096E08C081F309C082F3590E046E000E65
:1013B000056E1A0E0824006E000E0920016E005002
:1013C0000424E96E01500520EA6EE9CFE9FFEACF77
:1013D000EAFFEECF63F2000E0201646F000E646F4D
:1013E0001B0E0824006E000E0920016E005004241C
:1013F000E96E01500520EA6EE9CFE9FFEACFEAFF86
:10140000EECF00F000C004F0000E056E04C005F041
:10141000046A0450631305506413EDEC25F0590E73
:10142000046E000E056E1C0E03018125006E000E79
:101430008221016E00500424E96E01500520EA6EFD
:10144000E9CFE9FFEACFEAFFEECFCCF3000ECD6F94
:10145000CE6FCF6F000ECD6FCE6FCF6FEECFCDF3CF
:10146000EECFCEF3EECFCFF319EC25F0590E046E8C
:10147000000E056E0E0E03018125006E000E822106
:10148000016E00500424E96E01500520EA6EE9CF98
:10149000E9FFEACFEAFFEECFDFF3000EE06F000EC8
:1014A000E06FEECFE0F3590E046E000E056E100EE5
:1014B0008125006E000E8221016E00500424E96E29
:1014C00001500520EA6EE9CFE9FFEACFEAFFEECF4F
:1014D000DDF3000EDE6F000EDE6FEECFDEF3010EE9
:1014E00005016D6F15D0800E6C15046E0450000A56
:1014F0000EE0740E8E6F050E8F6F7F0E6C15906F61
:10150000FAEC11F0010E05016D6F88EF0AF06D6BBA
:101510006DC500F0120005015F6B72EC2AF0050149
:10152000C56BE8C3C6F5E9C3C7F588EC29F002EC42
:101530002AF03A0E0501C86FF9EC2AF00501C56BD7
:1015400024EC2AF000C0E8F3000E0301E96F050166
:10155000C56B24EC2AF000C004F0000E056E04C038
:1015600001F0006A00500301E8130150E91305017E
:10157000C56B24EC2AF000C0BDF3000E0301BE6F62
:101580000501C56B24EC2AF000C004F0000E056EC6
:1015900004C001F0006A00500301BD130150BE13E6
:1015A0000501C56B24EC2AF000C062F5000E0501B0
:1015B000636FC56B24EC2AF000C004F0000E056ECA
:1015C00004C001F0006A005005016213015063136A
:1015D000CCEC2AF0040E0301BD5D066E000EBE5970
:1015E000076E06C0BDF307C0BEF3E951190802E15A
:1015F000E851AD08FF0ED8B0000E046EFF0EE815DE
:10160000006E010E0014026E0250000A000ED8A4F3
:10161000FF0E006E0050041263C500F0800E00142F
:10162000026E0250000A000ED8A4FF0E006E005099
:101630000410026E0750050802E10650EE08FF0E86
:10164000D8B0000E006E00500210046EFF0E0501AF
:101650006215006E800E0014026E0250000AFF0E2A
:10166000D8A4000E006E0450001003E0010E5F6F5E
:10167000E7D1C26B13EC2AF000C060F5000E050143
:10168000616F010EC26F13EC2AF000C004F0000E6F
:10169000056E04C001F0006A05016051001261513D
:1016A000011200C060F501C061F500C0B6F501C0CF
:1016B000B7F50301BD5100240501B86F0301BE5108
:1016C00001200501B96FAF0EBA6F190EBB6F010E85
:1016D000BC6F55EC1FF0BB0E0501C26F190EC36F36
:1016E00026EC29F000C062F5000E0501636F62C5AB
:1016F00063F5626BDEEC29F0005005016211026EA9
:1017000063C503F0000E031202C062F503C063F567
:101710000350080A02E1060E021812E1BD0E8E6F98
:10172000190E8F6FE10E906F030E916F070E926F7F
:1017300027EC24F00050000A02E146EC18F053D1E7
:1017400005016351080A02E1000E6219D8A448D1CC
:10175000CD0E8E6F190E8F6F230E906F000E916F4E
:10176000040E926F27EC24F00050000A000ED8A45B
:10177000FF0E0501696FCD0E8E6F190E8F6F2F0E44
:10178000906F000E916F040E926F27EC24F00050C2
:10179000000A000ED8A4FF0E026E02500501691562
:1017A000006E03E0020E5F6F1AD1BD0EC26F190EFC
:1017B000C36F26EC29F0F00E0014026E0250400AAE
:1017C00004E0030E05015F6F0AD10501BD0EC26F73
:1017D000190EC36F26EC29F000C064F5000E050158
:1017E000656F0F0E6415026E65C503F0000E0316DB
:1017F00002C064F503C065F502C064F503C065F579
:10180000643764916537643764916537C30EC26F7E
:10181000190EC36F26EC29F0BF0E00160050000A07
:10182000FF0ED8A4000E0501696FC40EC26F190E19
:10183000C36F26EC29F00050000AFF0ED8A4000E5A
:10184000026E0501695102160250000AD8B4C7D0D1
:10185000BD0E6425676F190E6521686FC60EC26FD5
:10186000190EC36F26EC29F000C066F50050010A7E
:10187000D8A492D067C5C2F568C5C3F526EC29F097
:101880000050080AFF0ED8A4000E0501696F010E72
:101890006725C26F000E6821C36F26EC29F0005047
:1018A000000AFF0ED8A4000E026E02500501691551
:1018B000006E71E067C5C2F568C5C3F5C46B5AEC2C
:1018C00029F03FEC28F099EC28F0C70E0501B66F1F
:1018D000190EB76FB86BB96B15EC2BF0BD0E050187
:1018E000B66F190EB76F64C5B8F565C5B9F5D2EC1A
:1018F00026F0160E0501C26F13EC2AF000C0B9F5F0
:10190000170E0501C26F13EC2AF000C0B8F5C70E20
:101910000501B66F190EB76F15EC2BF0020E05011D
:101920006725B66F000E6821B76FB86BB96B15EC01
:101930002BF067C5B6F568C5B7F50501645103011D
:10194000BD5D0501B86F65510301BE590501B96F51
:101950000E0EB85F000EB95BD2EC26F0160E050134
:10196000C26F13EC2AF000C0B9F5170E0501C26F63
:1019700013EC2AF000C0B8F5020E05016725B66F1A
:10198000000E6821B76F15EC2BF0BDC3B6F5BEC3D2
:10199000B7F5EEEC15F023D005016651110A0DE103
:1019A00060C56AF561C56BF564C56CF567C56DF515
:1019B00068C56EF52FEC1DF012D005016651060AC0
:1019C0000EE160C56AF561C56BF564C56CF565C56A
:1019D0006DF567C56EF568C56FF504EC00F003D0D2
:1019E000040E05015F6F05011E0EC26F400EC36F2E
:1019F00054EC2AF0010E0301E85D026E000EE95975
:101A0000036E0350190802E10250AD080AE20C0E01
:101A10000501C56FAD0EC66F190EC76F88EC29F0B2
:101A20000FD00C0E0501C56F010E0301E85D050125
:101A3000C66F000E0301E9590501C76F88EC29F054
:101A40005FC500F01200460E0401116F410E126FC7
:101A5000540E136F310E146F360E156F200E166F65
:101A60006E0E176F6F0E186F740E196F200E1A6FAF
:101A7000660E1B6F6F0E1C6F750E1D6F6E0E1E6F48
:101A8000640E1F6F206B580E266F276F200E286F75
:101A90004D0E296F2A6F430E2B6F2F0E2C6F530E96
:101AA0002D6F440E2E6F200E2F6F460E306F410E9D
:101AB000316F540E326F310E336F360E346F200E8D
:101AC000356F6C0E366F690E376F620E386F720E9F
:101AD000396F610E3A6F720E3B6F790E3C6F200EBC
:101AE0003D6F620E3E6F790E3F6F200E406F410ECC
:101AF000416F6E0E426F740E436F6F0E446F6E0E29
:101B0000456F200E466F520E476F690E486F650E87
:101B1000496F630E4A6F6B0E4B6F650E4C6F720E02
:101B20004D6F740E4E6F5C0E4F6F6E0E506F516B9B
:101B3000780E0301EC6FED6FEE6FEF6FF06F540EE8
:101B4000F16F580EF26F540EF36FF46B0F0EC16EFF
:101B5000070EB46EF26AF16A9D6A9E6A9F6A926A83
:101B6000936A900E946E956A806A816A826A836A2B
:101B7000EA6BEB6B0401596B0301806B04015A6B38
:101B80005B6B0301FB6B140EFC6FA50EFD6F760EF5
:101B9000FE6F190EFF6F3F0E0401006FC00E016F44
:101BA000E80E026F060E036F0A0E046FC00E096F77
:101BB000E80E0A6F060E0B6F010E0C6FC80E0D6F4C
:101BC0007C0E0E6FE00E0F6FC30E106FFF0E056FD1
:101BD000FF0E066FFF0E076F086B69EC26F0B5EC81
:101BE00029F00050020AD8A4D4D002017E6B7F6B8A
:101BF0005C0E0501A66F040EA76FA86BA96BFF0E04
:101C0000AA6F8FEC27F004017051450AD8A47BD04D
:101C10007251000A40E105015C6B5D6B140E026EAF
:101C2000000E036E040173510226D8B0032A050189
:101C30005D51035C02E15C51025C2BE3800E006E9F
:101C4000020E016E02017E510024E16E7F510120DF
:101C5000E26E5C0E006E040E016E05015C51002404
:101C6000E96E5D510120EA6EE9CFE9FFEACFEAFFB4
:101C7000EECF00F000C0E6FF02017E4B7F2B050196
:101C80005D51031802E102505C1903E05C4B5D2BCF
:101C9000C5D7050136D005015C6B5D6B000E006E8B
:101CA0005D51005C02E15C51FF082BE3800E006E89
:101CB000020E016E02017E510024E16E7F5101206F
:101CC000E26E5C0E006E040E016E05015C51002494
:101CD000E96E5D510120EA6EE9CFE9FFEACFEAFF44
:101CE000EECF00F000C0E6FF02017E4B7F2B000E1E
:101CF00005015D1902E1FF0E5C1903E05C4B5D2BF1
:101D0000CDD7050136D005015C6B5D6B000E006E12
:101D10005D51005C02E15C513F082BE3800E006ED8
:101D2000020E016E02017E510024E16E7F510120FE
:101D3000E26E5C0E006E040E016E05015C51002423
:101D4000E96E5D510120EA6EE9CFE9FFEACFEAFFD3
:101D5000EECF00F000C0E6FF02017E4B7F2B000EAD
:101D600005015D1902E13F0E5C1903E05C4B5D2B40
:101D7000CDD70501800E006E020E016E02017E516C
:101D80000024E16E7F510120E26EE66A010E03013C
:101D9000806F03018051010A10E1C6EC23F00401B9
:101DA0005951000A04E18380010E596F02D08390DB
:101DB000596B69EC26F00301806B1A0E0C6EFF0E56
:101DC0000B6EFF0E0A6E0C2E01D007D00B2E01D029
:101DD00003D00A2EFED7FAD7F6D77F0E0B6EFF0E72
:101DE0000A6E0B2E01D003D00A2EFED7FAD7580E5A
:101DF0000A6E0A2EFED700000000B5EC29F0EFD6DF
:101E0000FFD70501A06B3C0E356E000E366E376EA7
:101E1000386EDEEC29F000C09EF50050020AD8A40E
:101E20003FD105019F6B9F510E0808E3DEEC29F0BE
:101E300005019F510E0A02E09F2BF5D7270EA66FD2
:101E4000000EA76FFF0EA86FFF0EA96F040EAA6FFA
:101E50008FEC27F005019F6B9F51070808E3DEEC2C
:101E600029F005019F51070A02E09F2BF5D79F6BD0
:101E70009F51050822E3DEEC29F000C09EF51D0EFF
:101E8000066E000E076E9FC504F0000E056E04502E
:101E90000624E96E05500720EA6EE9CFE9FFEACF94
:101EA000EAFFEECF06F00050061801E027D1050149
:101EB0009F51050A02E09F2BDBD79F6B9F51CD08F6
:101EC00008E3DEEC29F005019F51CD0A02E09F2BCB
:101ED000F5D7A16B0501A151000AD8A4E1D0DEEC31
:101EE00029F000C09EF505019E51350A0EE1DEEC99
:101EF00029F000C09EF50050010A05E1DEEC29F052
:101F000000C0A0F501D0FAD0C9D005019E51010A48
:101F100017E1DEEC29F000C09EF50050040A0EE146
:101F2000390E0501A66F000EA76FFF0EA86FFF0EFA
:101F3000A96F040EAA6F8FEC27F001D0DFD0AED0CE
:101F400005019E51030A22E1DEEC29F000C09EF556
:101F5000040E005C0EE33D0E0501A66F000EA76F98
:101F6000FF0EA86FFF0EA96F040EAA6F8FEC27F06B
:101F700001D0C4D0040E05019E5F9E51000A05E009
:101F8000DEEC29F005019E07F8D788D09E51060A9D
:101F900022E1DEEC29F000C09EF5040E005C0EE3A9
:101FA000410E0501A66F000EA76FFF0EA86FFF0E72
:101FB000A96F040EAA6F8FEC27F001D09FD0040EFA
:101FC00005019E5F9E51000A05E0DEEC29F0050147
:101FD0009E07F8D763D09E51360A17E1DEEC29F050
:101FE00000C09EF50050040A0EE1A20E0501A66F86
:101FF000050EA76FFF0EA86FFF0EA96F040EAA6F44
:102000008FEC27F001D07AD049D005019E51FF0A0C
:1020100003E1010EA16F42D09E51330A32E1DEECA2
:1020200029F000C09EF50050040A29E1350E050193
:10203000A66F000EA76FFF0EA86FFF0EA96F040E0C
:10204000AA6F8FEC27F03850000808E137500008DD
:1020500005E13650070802E1355008080FE2080E86
:10206000006E070E016E000E026E036E0050355EAC
:102070000150365A0250375A0350385A01D03ED0D8
:102080000DD0DEEC29F000C09EF505019E51000A3E
:1020900005E0DEEC29F005019E07F7D705011AD708
:1020A0000501A051020A0FE12B0EA66F000EA76FCB
:1020B000A20EA86F050EA96F040EAA6F000EAB6FDB
:1020C000B7EC28F017D02B0E0501A66F000EA76FF6
:1020D000A20EA86F050EA96F040EAA6F000EAB6FBB
:1020E00030EC26F0000E011802E1000E001802E0AC
:1020F0000501A06B0501A0C59DF502D005019D6BF2
:102100009DC500F0120051C05BF252C05CF2000E9F
:1021100002015D6F5E6F55C000F056C001F057C000
:1021200002F058C003F05B5100265C5101225D5162
:1021300002225E51032200C05BF201C05CF202C0C9
:102140005DF203C05EF200C0A6F501C0A7F502C0B3
:10215000A8F503C0A9F5590E0501AA6F000EAB6FD3
:1021600064EC23F0590E006E000E016E53500024F3
:10217000E96E54500120EA6EE9CFE9FFEACFEAFFA9
:10218000EECF8FF5000E0501906F000E906FEECF31
:1021900090F551C089F352C08AF353C08BF354C0F9
:1021A0008CF3590E006E000E016E53500024E16E48
:1021B00054500120E26E8EC5E6FF8EC5E6FF5BC27D
:1021C000A6F55CC2A7F55DC2A8F55EC2A9F5590ED9
:1021D000AA6F000EAB6F84EC20F051C000F052C02B
:1021E00001F0000E026E036E02015F510026605185
:1021F0000122615102226251032200C05BF201C040
:102200005CF202C05DF203C05EF200C0A6F501C040
:10221000A7F502C0A8F503C0A9F5590E0501AA6FDC
:10222000000EAB6F84EC20F005019051FF0A02E133
:10223000FF0E8F19D8B4D5D08FC504F090C505F026
:10224000000E066E076E04C095F505C096F506C033
:1022500097F507C098F59537959196379737983742
:1022600095C55BF296C55CF297C55DF298C55EF2C6
:1022700059C204F05AC205F0000E066E076E95C5ED
:1022800000F096C501F097C502F098C503F0A9ECDF
:102290001EF000C091F501C092F502C093F503C095
:1022A00094F591C551F092C552F059C204F05AC24A
:1022B00005F0000E066E076E95C500F096C501F09C
:1022C00097C502F098C503F0A9EC1EF008C000F015
:1022D00009C001F00AC002F00BC003F000C053F0C7
:1022E00001C054F091C500F092C501F0000E026EDD
:1022F000036E555000265650012257500222585066
:10230000032200C05BF201C05CF202C05DF203C0B8
:102310005EF200C0A6F501C0A7F502C0A8F503C093
:10232000A9F5590E0501AA6F000EAB6F64EC23F0FE
:10233000590E006E000E016E53500024E96E545089
:102340000120EA6EE9CFE9FFEACFEAFFEECF8FF591
:10235000000E0501906F000E906FEECF90F5590EB4
:10236000006E000E016E53500024E16E54500120A7
:10237000E26EE66AE66A5BC2A6F55CC2A7F55DC2DC
:10238000A8F55EC2A9F5590EAA6F000EAB6F84ECDA
:1023900020F051C000F052C001F0000E026E036E3A
:1023A00002015F51002660510122615102226251F7
:1023B000032200C05BF201C05CF202C05DF203C008
:1023C0005EF200C0A6F501C0A7F502C0A8F503C0E3
:1023D000A9F5590E0501AA6F000EAB6F84EC20F031
:1023E00023D789C351F08AC352F08BC353F08CC3F7
:1023F00054F012000301816B826B836B846BA2EC3F
:1024000021F000EC23F0D5EC28F085C3A6F586C3B7
:10241000A7F587C3A8F588C3A9F5590E0501AA6FCA
:10242000000EAB6F64EC23F00501936B0501935133
:10243000000A5AE10301825102015A1903E159517C
:1024400003018119030122E1816B826B834B842B91
:1024500085C300F086C301F087C302F088C303F090
:1024600083C3A6F584C3A7F5000E0501A86FA96F65
:102470000050A6270150A7230250A8230350A923E8
:10248000590EAA6F000EAB6F64EC23F0590E006E6C
:10249000000E016E030181510024E96E825101207A
:1024A000EA6EE9CFE9FFEACFEAFFEECF06F006C019
:1024B00093F50650E50AFF0ED8A4000E046E0650F0
:1024C000000AFF0ED8A4000E006E0450001004E0B5
:1024D000010E0501936F02D00501936B200E0301DD
:1024E0008127D8B0822BA2D705019351010AD8A425
:1024F000EDD0200E0301815F000E825B0501916B20
:10250000926B000E006E9251005C02E191510A083C
:102510002BE3590E046E000E056E915103018125C7
:10252000006E0501925103018221016E00500424C6
:10253000E16E01500520E26E050191518E25E96E94
:1025400092518F21EA6EE9CFE9FFEACFEAFFEECFA1
:1025500000F000C0E6FF000E921902E10A0E911988
:1025600003E0914B922BCDD705011C0E916F000E0D
:10257000926F000E006E9251005C02E191511F08B3
:102580001EE3590E046E000E056E91510301812564
:10259000006E0501925103018221016E0050042456
:1025A000E16E01500520E26EE66A000E0501921907
:1025B00002E11F0E911903E0914B922BDAD7590ECD
:1025C000046E000E056E1B0E03018125006E000EC9
:1025D0008221016E00500424E16E01500520E26E5C
:1025E00064C200F000C0E6FF590E046E000E056ED6
:1025F0001A0E8125006E000E8221016E0050042407
:10260000E16E01500520E26EFF0E02016315006EBF
:1026100000C0E6FF590E046E000E056E0B0E03019E
:102620008125006E000E8221016E00500424E16EAF
:1026300001500520E26E90C5E6FF0D0E0501916F79
:10264000000E926F000E006E9251005C02E19151FB
:1026500019081EE3590E046E000E056E9151030118
:102660008125006E0501925103018221016E005007
:102670000424E16E01500520E26EE66A000E0501B9
:10268000921902E1190E911903E0914B922BDAD7BE
:10269000050185C300F086C301F087C302F088C33B
:1026A00003F083C3A6F584C3A7F5000EA86FA96F36
:1026B0000050A6270150A7230250A8230350A923A6
:1026C000590EAA6F000EAB6F84EC20F0EDEC25F0F4
:1026D000120067C2A6F568C2A7F569C2A8F56AC26A
:1026E000A9F5590E0501AA6F000EAB6F64EC23F03B
:1026F00005016E6B6F6B010E6C5D706F000E6D5996
:10270000716F6F51715D02E16E51705D6DE36E51DD
:102710006A25E96E6F516B21EA6EE9CFE9FFEACFD6
:10272000EAFFEECF04F0590E006E000E016E0301B9
:10273000C8510024E16EC9510120E26E04C0E6FFD9
:10274000010EC827000EC923CA23CB23000E006E3A
:10275000CB190BE10050CA1908E102015A510301DB
:10276000C91903E1C85102015919020133E167C2D5
:10277000A6F568C2A7F569C2A8F56AC2A9F5590EFF
:102780000501AA6F000EAB6F84EC20F0010E020170
:102790006727000E682369236A230301C86BC96B8E
:1027A000CA6BCB6BD62BD65102016B1904E1030126
:1027B000D66B18EC21F067C2A6F568C2A7F569C20E
:1027C000A8F56AC2A9F5590E0501AA6F000EAB6FF4
:1027D00064EC23F005016F51711902E170516E191B
:1027E00003E06E4B6F2B87D7050167C2A6F568C261
:1027F000A7F569C2A8F56AC2A9F5590EAA6F000E1D
:10280000AB6F84EC20F06CC500F06DC501F0000EDC
:10281000026E036E00500301CC270150CD230250FD
:10282000CE230350CF2385C304F086C305F087C3AE
:1028300006F088C307F083C300F084C301F0000EE4
:10284000026E036E0450002605500122065002223B
:102850000750032200C05BF201C05CF202C05DF2CF
:1028600003C05EF200C0A6F501C0A7F502C0A8F53E
:1028700003C0A9F5590E0501AA6F000EAB6F64ECF9
:1028800023F0590E046E000E056E0E0E0301812515
:10289000006E000E8221016E00500424E16E015092
:1028A0000520E26EFF0EDF15006E00C0E6FFE0C3FC
:1028B00000F000C0E6FFFF0EDD15086E08C0E6FF61
:1028C000DEC300F000C0E6FF08C0E6FFDEC300F094
:1028D00000C0E6FFE66AE66AFF0EDF15E66EE0C3BB
:1028E00000F000C0E6FF08C0E6FFDEC300F000C055
:1028F000E6FF590E046E000E056E1C0E8125006E5B
:10290000000E8221016E00500424E16E015005206A
:10291000E26EFF0ECC15006E00C0E6FFCDC300F0E6
:10292000CEC301F0CFC302F000C0E6FFCEC300F07B
:1029300000C0E6FFCFC300F000C0E6FF5BC2A6F513
:102940005CC2A7F55DC2A8F55EC2A9F5590E0501E6
:10295000AA6F000EAB6F84EC20F01200000104504F
:10296000085E0550D8A0053C095E0650D8A0063C7C
:102970000A5E0750D8A0073C0B5E0336070E0C6EAC
:102980000334083609360A360B36045003A0D8EF54
:1029900014F0085E0550D8A0053C095E0650D8A08A
:1029A000063C0A5E0750D8A0073C0B5EE5EF14F02A
:1029B00008260550D8B0053C09260650D8B0063C7C
:1029C0000A260750D8B0073C0B2603360C2EC0EF62
:1029D00014F00234083609360A360B36045003A0C8
:1029E00001EF15F0085E0550D8A0053C095E0650C1
:1029F000D8A0063C0A5E0750D8A0073C0B5E0EEF3D
:102A000015F008260550D8B0053C09260650D8B068
:102A1000063C0A260750D8B0073C0B260236070EA4
:102A20000C6E0234083609360A360B36045002A002
:102A300029EF15F0085E0550D8A0053C095E065048
:102A4000D8A0063C0A5E0750D8A0073C0B5E36EFC4
:102A500015F008260550D8B0053C09260650D8B018
:102A6000063C0A260750D8B0073C0B2602360C2E2F
:102A700011EF15F00134083609360A360B360450CA
:102A800002A052EF15F0085E0550D8A0053C095E83
:102A90000650D8A0063C0A5E0750D8A0073C0B5E43
:102AA0005FEF15F008260550D8B0053C0926065002
:102AB000D8B0063C0A260750D8B0073C0B26013692
:102AC000070E0C6E0134083609360A360B360450F0
:102AD00001A07AEF15F0085E0550D8A0053C095E0C
:102AE0000650D8A0063C0A5E0750D8A0073C0B5EF3
:102AF00087EF15F008260550D8B0053C092606508A
:102B0000D8B0063C0A260750D8B0073C0B26013641
:102B10000C2E62EF15F00034083609360A360B36F3
:102B2000045001A0A3EF15F0085E0550D8A0053CA5
:102B3000095E0650D8A0063C0A5E0750D8A0073CA4
:102B40000B5EB0EF15F008260550D8B0053C0926FD
:102B50000650D8B0063C0A260750D8B0073C0B26D2
:102B60000036070E0C6E0034083609360A360B366E
:102B7000045000A0CBEF15F0085E0550D8A0053C2E
:102B8000095E0650D8A0063C0A5E0750D8A0073C54
:102B90000B5ED8EF15F008260550D8B0053C092685
:102BA0000650D8B0063C0A260750D8B0073C0B2682
:102BB00000360C2EB3EF15F000B0EDEF15F0045019
:102BC00008260550D8B0053C09260650D8B0063C6A
:102BD0000A260750D8B0073C0B261200AE0E05019E
:102BE000C26F190EC36FC46B5AEC29F0AE0E05010B
:102BF000B625006E190EB721016E00C0B6F501C0F2
:102C0000B7F5060EC56F00C0C6F501C0C7F588EC64
:102C100029F01F0E0501C26F800EC36F54EC2AF01D
:102C20001F0E0501C26F800EC36F63EC2AF01850AF
:102C3000050AFF0ED8A4000E026E1850070AFF0EF8
:102C4000D8A4000E006E0250001007E01C0E050113
:102C5000C26F0A0EC36F63EC2AF01F0E0501C26F2C
:102C6000080EC36F54EC2AF01850050AFF0ED8A4C2
:102C7000000E026E1850070AFF0ED8A4000E006E58
:102C800002500010D8B4C4D00501BA6BBB6B1C0E47
:102C9000C26F13EC2AF00A0E00160050000AFF0E55
:102CA000D8A4000E026E030E0501BB5D02E1E80E22
:102CB000BA5DFF0ED8B0000E006E00500216025032
:102CC000000A03E0BA4BBB2BE2D705011C0EC26F12
:102CD00013EC2AF0020E00160050000A000ED8A4D1
:102CE000FF0E026E030E0501BB5D02E1E80EBA5D48
:102CF000000ED8B0FF0E006E02500010D8B486D07F
:102D00001F0EC26F080EC36F63EC2AF0040E05019C
:102D1000B625C26F000EB721C36F26EC29F000C0A4
:102D2000B9F50501BC6BBC510F0870E31C0EC26FF6
:102D300013EC2AF0020E00160050000A000ED8A470
:102D4000FF0E036E026A0501B9BB022A0250000A97
:102D5000000ED8A4FF0E006E00500314026E025045
:102D6000000A4DE01F0EC26F800EC36F54EC2AF0B4
:102D70001F0E0501C26F800EC36F63EC2AF01C0E9C
:102D80000501C26F0A0EC36F63EC2AF01F0E050126
:102D9000C26F080EC36F54EC2AF00501BA6BBB6B0F
:102DA0001C0EC26F13EC2AF00A0E00160050000A27
:102DB000FF0ED8A4000E026E030E0501BB5D02E1FA
:102DC000E80EBA5DFF0ED8B0000E006E025000167D
:102DD00003E0BA4BBB2BE4D705011F0EC26F080EF0
:102DE000C36F63EC2AF0040E0501B625C26F000E16
:102DF000B721C36F26EC29F000C0B9F501D006D089
:102E00000501BC510F0A02E0BC2B8DD705010DD086
:102E100005011F0EC26F13EC2AF0080E0014026E9B
:102E20000250000A02E00000F3D71D0E0501C26F38
:102E300013EC2AF0060E0014026E0250000A03E0A2
:102E40000501B86B03D00501010EB86FB8C500F0DD
:102E5000120061C500F0010E016E005004E0013661
:102E60000190FF0FFBD701C061F562C515F063C586
:102E700016F064C500F0010E176E005004E017361E
:102E80001790FF0FFBD75FC5E9FF60C5EAFFEECFE4
:102E900000F0015000125FC5E1FF60C5E2FF00C015
:102EA000E6FF120E05015F25026E000E6021036E23
:102EB00002C0E9FF03C0EAFFEECF01F0611D006E22
:102EC0000150001602C0E1FF03C0E2FF00C0E6FFB0
:102ED00062C5E9FF63C5EAFFEECF00F017500012AC
:102EE00062C5E1FF63C5E2FF00C0E6FF120E622586
:102EF000026E000E6321036E02C0E9FF03C0EAFF09
:102F0000EECF01F0171C006E0150001602C0E1FF69
:102F100003C0E2FF00C0E6FFCCEC2AF034EC2AF05C
:102F20005FC5E9FF60C5EAFFEECF00F00501615122
:102F300000125FC5E1FF60C5E2FF00C0E6FF34ECB0
:102F40002AF05FC5E9FF60C5EAFFEECF01F0050199
:102F5000611D006E015000165FC5E1FF60C5E2FF14
:102F600000C0E6FF34EC2AF05FC5E9FF60C5EAFF68
:102F7000EECF00F00501615100125FC5E1FF60C5B1
:102F8000E2FF00C0E6FF34EC2AF002EC2AF0FF0E6C
:102F90000501C86FF9EC2AF0CCEC2AF034EC2AF0E9
:102FA0001D0E0501A66F000EA76F65C5A8F566C5C5
:102FB000A9F5060EAA6F000EAB6FB7EC28F0230E32
:102FC0000501A66F000EA76F67C5A8F568C5A9F52E
:102FD000040EAA6F000EAB6FB7EC28F00301E16B93
:102FE000010EE26F080EE36FE46B060EE56F040E50
:102FF000E66FE76B2F0E05019D6F000E9E6FFF0EB3
:103000009F6F060EA06F000EA16F71EC29F00201F8
:10301000796B7A6B7B6B7C6B0301BC6B0201746B0D
:103020000301E86BE96B02017D6B72EC2AF0080E7C
:103030000501C56FC66BC76B88EC29F00A0E050148
:10304000C56FAD0EC66F190EC76F88EC29F00C0E58
:103050000501C56FAD0EC66F190EC76F88EC29F05C
:103060000501C56BC66BC76B88EC29F0040E050122
:10307000C56FAE0EC66F190EC76F88EC29F0AEECA7
:103080002AF069C56AF55CEC1CF01200C40E05015B
:10309000C26F190EC36F26EC29F000C06AF5050156
:1030A0006A51010A5CE1D50E8E6F190E8F6F230EE7
:1030B000906F000E916F040E926F27EC24F0005079
:1030C000000A4CE1C40E0501C26F190EC36F020E57
:1030D000C46F5AEC29F03FEC28F0CB0E0501B66F17
:1030E000190EB76FCF0EB86F190EB96FD50EBA6F34
:1030F000190EBB6FBC6B55EC1FF0CB0E0501B66F04
:10310000190EB76F230EB86F000EB96F040EBA6FA9
:1031100061EC27F0C50E0501B66F190EB76FCB0E27
:10312000B86F190EB96FCF0EBA6F190EBB6FBC6BAB
:1031300055EC1FF0C50E0501B66F190EB76F1D0EC9
:10314000B86F000EB96F060EBA6F61EC27F03C0E37
:103150000501B66F000EB76FEEEC15F0A8D00501B3
:103160006A51020AD8A4A3D0AF0E8E6F190E8F6FCA
:103170001D0E906F000E916F060E926F27EC24F0DB
:103180000050000AFF0ED8A4000E05016A6FCB0E96
:103190008E6F190E8F6FBAC390F5BBC391F5040EF5
:1031A000926F27EC24F00050000AFF0ED8A4000E06
:1031B000026E025005016A15006E78E08D0EA66F52
:1031C000030EA76FBCC300F0000E016E0F0E046E5D
:1031D000000E056E16EC28F0090E0026D8B0012A64
:1031E00000500501A6270150A723C50EA86F190E90
:1031F000A96F060EAA6F8FEC27F08D0E0501A66F42
:10320000030EA76FBCC300F0000E016E0F0E046E1C
:10321000000E056E16EC28F0050E0026D8B0012A27
:1032200000500501A6270150A723BAC3A8F5BBC3C8
:10323000A9F5040EAA6F000EAB6FB7EC28F08D0E47
:1032400005016A6F030E6B6FBCC300F0000E016EC8
:103250000F0E046E000E056E16EC28F000500501EE
:103260006A25E16E01506B21E26E010EE66E8D0E55
:103270006A6F030E6B6FBCC300F0000E016E0F0E81
:10328000046E000E056E16EC28F0004A012A00506C
:1032900005016A25E16E01506B21E26E79C2E6FFFD
:1032A0007AC2E6FF7BC2E6FF7CC2E6FF00D00501E2
:1032B0001200AF0E0501B66F190EB76FA6C5B8F5AF
:1032C000A7C5B9F5060EBA6F61EC27F01D0E050112
:1032D000B66F000EB76F060EB86FF2EC28F0000E56
:1032E0000501B66F080EB76F9FEC29F01C0E0501A3
:1032F000AE25B46F000EAF21B56F000EB66F450E50
:10330000B76F9FEC29F0B4C5B6F5B5C5B7F59FEC1E
:1033100029F0B1C5B6F5B2C5B7F59FEC29F00501A6
:10332000B14BB22BB66BB76B9FEC29F0110E0501B8
:10333000B66F800EB76F9FEC29F00501B66BB76BC7
:103340009FEC29F0230E0501B66F000EB76F040E37
:10335000B86FF2EC28F0A8C5B6F5A9C5B7F5040E0C
:103360000501B86FF2EC28F0080E0501AE25B46F28
:10337000000EAF21B56FAAC5B6F5ABC5B7F59FEC8A
:1033800029F0ACC5B6F5ADC5B7F59FEC29F0B4C5CD
:10339000B6F5B5C5B7F59FEC29F00501B66BB76B6F
:1033A0009FEC29F0BD0E0501B66F190EB76F140E14
:1033B000B86F000EB96FD2EC26F0160E0501C26F81
:1033C00013EC2AF000C0B9F5170E0501C26F13EC1B
:1033D0002AF000C0B8F5C70E0501B66F190EB76F19
:1033E00015EC2BF0010E0501B415006EB5C501F00A
:1033F000000E011600C0B3F5D90EAE25C26F190E2E
:10340000AF21C36FC46B5AEC29F0C90E0501B66F2A
:10341000190EB76FD10EB86F190EB96FD90EAE2550
:10342000BA6F190EAF21BB6FB351BA27D8B0BB2BFF
:10343000BC6B55EC1FF0D90E0501AE25B66F190E09
:10344000AF21B76FB351B627D8B0B72B080EB62748
:10345000D8B0B72BB86B110EB96F15EC2BF0B5C502
:10346000C2F507EC2BF0B4C5C2F507EC2BF0D10E7A
:103470000501B66F190EB76F0C0EB425B86F000EAC
:10348000B521B96FB351B827D8B0B92BD2EC26F01B
:10349000160E0501C26F13EC2AF000C0B9F5170E25
:1034A0000501C26F13EC2AF000C0B8F5D70E050174
:1034B000B66F190EB76F15EC2BF02A0E0501AE256D
:1034C000B66F000EAF21B76FEEEC15F000C0B0F58F
:1034D000B0C500F01200F90E0501A16F000EA26F39
:1034E000020EC56FD90EC66F190EC76F88EC29F092
:1034F000840E0501A66F560EA76F000EA86FA96B6C
:103500000C0EAA6FEBEC27F005019D51030AFF0E8C
:10351000D8A4000E026E9E51000A000ED8A4FF0E21
:10352000006E0250001609E0270EB66F000EB76F4E
:10353000040EB86FF2EC28F00ED00501A06BA0517C
:10354000030809E3C26B07EC2BF00501A051030A45
:1035500002E0A02BF4D70501A06BA0510B0809E3F2
:10356000C26B07EC2BF00501A0510B0A02E0A02B67
:10357000F4D71D0EB66F000EB76F060EB86FF2ECE3
:1035800028F00501A06BA051C90809E3C26B07EC44
:103590002BF00501A051C90A02E0A02BF4D7900E30
:1035A000A66F560EA76F000EA86FA96B060EAA6F26
:1035B000EBEC27F09DC5C2F507EC2BF005019D5102
:1035C000030AFF0ED8A4000E026E9E51000AFF0EE1
:1035D000D8A4000E006E025000161BE0360EC26F1B
:1035E00007EC2BF0040E0501C26F07EC2BF02B0E3D
:1035F0000501B66F000EB76F040EB86FF2EC28F03D
:103600000501A14BA22BA14BA22B040EA127D8B0E0
:10361000A22B960EA66F560EA76F000EA86FA96B71
:10362000050EAA6FEBEC27F005019D51030AFF0E72
:10363000D8A4000E026E9E51000AFF0ED8A4000E00
:10364000006E0250001632E0320EC26F07EC2BF013
:10365000040E0501C26F07EC2BF00501A06BA05111
:1036600003081CE3270E026E000E036EA0C500F0D7
:10367000000E016E00500224E96E01500320EA6E34
:10368000E9CFE9FFEACFEAFFEECFC2F507EC2BF076
:103690000501A051030A02E0A02BE1D7A14BA22B08
:1036A000A14BA22B040EA127D8B0A22BFF0EC26FF4
:1036B00007EC2BF02F0E006E000E016E00C0A6F579
:1036C00001C0A7F500C0A8F501C0A9F5440E050189
:1036D000AA6F000EAB6F430EAC6F000EAD6FA1C5AD
:1036E000AEF5A2C5AFF559EC19F000C09FF59FC526
:1036F00000F0120002017451020A1EE1230E0501BE
:103700009D6F000E9E6F9F6B040EA06F000EA16F49
:1037100071EC29F0010E05019D6F9E6B6BEC1AF0A8
:1037200079C275F27AC276F27BC277F27CC278F205
:10373000030E0201746FBED07451030A2CE1050E12
:10374000006E000E016E026E036E00507525046E51
:1037500001507621056E02507721066E03507821C4
:10376000076E7C51075C08E17B51065C05E17A51EC
:10377000055C02E17951045C02E2020E746F020101
:1037800001EC0FF00050020A04E1040E0201746F14
:1037900005D002018FD07451040A13E1030E050114
:1037A0009D6F7DC29EF56BEC1AF079C275F27AC2FC
:1037B00076F27BC277F27CC278F2050E0201746F5A
:1037C00079D07451050A3DE101EC0FF000C08EF58F
:1037D0000050060A04E1040E0201746F30D00501A6
:1037E0008E51050A2CE179C275F27AC276F27BC25B
:1037F00077F27CC278F2060E0201746F230E050187
:10380000A66F000EA76F270EA86F000EA96F040EFB
:10381000AA6F000EAB6FB7EC28F0390E05019D6F53
:10382000000E9E6F3D0E9F6F000EA06F410EA16FA8
:10383000000EA26FBDEC27F002017D6B3BD00201B0
:1038400039D07451060A36E1010E006E000E016E89
:10385000026E036E00507525046E01507621056ED0
:1038600002507721066E03507821076E07507C5D69
:1038700008E106507B5D05E105507A5D02E10450E8
:10388000795D16E3010E006E000E016E026E036E8E
:103890000050355E0150365A0250375A0350385A9C
:1038A00079C275F27AC276F27BC277F27CC278F284
:1038B000020100D00201120005016A51000A06E06F
:1038C0009D6B0D0E9E6F9FEC2AF006D005019D6B3F
:1038D000010E9E6F9FEC2AF005016A51000A07E075
:1038E000020E9D6F310E9E6F9FEC2AF007D0020EE4
:1038F00005019D6F300E9E6F9FEC2AF00A0E0501A8
:10390000C56FEE0EC66F050EC76F88EC29F0050176
:103910006A51000A07E0040E9D6F150E9E6F9FEC22
:103920002AF007D0040E05019D6F120E9E6F9FECCA
:103930002AF0060E05019D6F120E9E6F9FEC2AF075
:1039400005016A51000A06E1070E9D6F0C0E9E6F7D
:103950009FEC2AF005016A51000A06E1090E9D6FED
:103960003F0E9E6F9FEC2AF090EC2AF0040E0501AA
:103970009D6F1DC09EF59FEC2AF0050E05019D6F01
:103980001EC09EF59FEC2AF0020E05019D6F1FC020
:103990009EF59FEC2AF0030E05019D6F20C09EF559
:1039A0009FEC2AF005019D6B21C09EF59FEC2AF04B
:1039B000010E05019D6F22C09EF59FEC2AF0150EA9
:1039C00005019D6F9E6B9FEC2AF0120E0501C26FE0
:1039D00013EC2AF000C018F005018E6B6B0E8F6F90
:1039E000050E906F6C0E916F050E926F03EC27F031
:1039F00005016A51000A0AE08E6BFE0E6B158F6F8F
:103A00008F816CC590F55DEC28F009D005018E6BB7
:103A1000FE0E6B158F6F6CC590F55DEC28F0100EE7
:103A200005018E6F010E8F6F906B5DEC28F01F0EFD
:103A30000501C26F040EC36F54EC2AF034EC2AF077
:103A40008D0E05019D6F030E9E6F9F6B2D0EA06F57
:103A5000000EA16F71EC29F072EC2AF012006DC516
:103A6000C2F56EC5C3F526EC29F000C071F5000E55
:103A70000501726F71C572F5716BDEEC29F00050B3
:103A800005017113000E7213DEEC29F000C06FF512
:103A9000000E0501706F6FC570F56F6BDEEC29F0DD
:103AA000005005016F11026E70C503F0000E031285
:103AB00002C06FF503C070F5000E031802E1000E9E
:103AC000021801E193D00501DEEC29F000C073F586
:103AD000000E0501746F73C574F5736BDEEC29F08D
:103AE000005005017313000E7413750EA66F050EBA
:103AF000A76FC90EA86F190EA96F040EAA6F8FECDD
:103B000027F0020E0501C56F080E6D25C66F000E69
:103B10006E21C76F88EC29F00E0E05016A258E6FA5
:103B2000000E6B218F6F6C518E27D8B08F2B080E33
:103B30008E27D8B08F2BCAEC29F0000E0501721920
:103B400002E1350E711903E1F7EC1DF04FD0000EC4
:103B50000501701902E1440E6F1903E17AEC1BF0C4
:103B600045D0750E05018E6F050E8F6F71C590F5EE
:103B700072C591F56FC592F570C593F5080E735D2A
:103B8000946F000E7459956F61EC25F000C073F5C9
:103B900001C074F5000E026E0150025C02E100509B
:103BA000000824E2790E0501A66F050EA76FB50E79
:103BB000A86F190EA96F060EAA6F8FEC27F0790E69
:103BC0000501A66F050EA76F750EA86F050EA96FEC
:103BD0006FC5AAF570C5ABF571C5ACF572C5ADF58D
:103BE00073C5AEF574C5AFF559EC19F01200DEECF3
:103BF00029F0DEEC29F0DEEC29F0080E006EDEEC98
:103C000029F0DEEC29F000C08EF5000E05018F6F63
:103C10008EC58FF58E6BDEEC29F0005005018E13FA
:103C2000000E8F13DEEC29F000C090F5000E0501A8
:103C3000916F90C591F5906BDEEC29F00050050175
:103C40009013000E9113DEEC29F0DEEC29F0DEEC8F
:103C500029F0DEEC29F005018E518F1114E00501E9
:103C6000DEEC29F00050000AFAE1DEEC29F0DEEC8F
:103C700029F0DEEC29F0DEEC29F0010E05018E5F63
:103C8000000E8F5BE8D7000E911902E1000E90192B
:103C90005EE0DEEC29F0DEEC29F0DEEC29F000C07D
:103CA00094F5000E0501956F94C595F5946BDEECC7
:103CB00029F0005005019413000E9513DEEC29F055
:103CC000DEEC29F0DEEC29F0DEEC29F0DEEC29F068
:103CD000DEEC29F0DEEC29F000C092F5000E0501C3
:103CE000936F92C593F5926BDEEC29F000500501BD
:103CF0009213000E9313000E951902E1010E941910
:103D000011E1DEEC29F000C070F2DEEC29F000C019
:103D100071F2DEEC29F000C072F2DEEC29F000C096
:103D200073F215D0000E0501931902E1000E9219ED
:103D300008E0DEEC29F0010E0501925F000E935BB6
:103D4000F1D70501010E905F000E915B9CD7050134
:103D5000120000010C6A07BE0C2A0D6A0B6A0A6A7F
:103D6000096A086A0350021001100010D8B44DEF20
:103D70001FF0035007180E6E0EBE0D1E07AECCEFDF
:103D80001EF0041E051E061E071E042AD8B4052AAE
:103D9000D8B4062AD8B4072A03AEDAEF1EF0001E04
:103DA000011E021E031E002AD8B4012AD8B4022A1A
:103DB000D8B4032A035007100E6E0EBE00EF1FF09A
:103DC000AEEC14F00CBE21EF1FF00DAE4DEF1FF066
:103DD000001E011E021E031E002AD8B4012AD8B4F8
:103DE000022AD8B4032A081E091E0A1E0B1E082A1E
:103DF000D8B4092AD8B40A2AD8B40B2A4DEF1FF038
:103E000007AE1AEF1FF003BE14EF1FF003500B6E46
:103E100002500A6E0150096E0050086E036A026A71
:103E2000016A006AE5EF1EF0036A026A016A006A2D
:103E3000002A000C031E021E011E001E0C8EE0EF65
:103E40001EF0082AD8B4092AD8B40A2AD8B40B2AF2
:103E50000450085CD8A4E5EF1EF00550095CD8A416
:103E6000E5EF1EF006500A5CD8A4E5EF1EF00750FF
:103E70000B5CD8A4E5EF1EF00B6A0A6A096A086AAF
:103E8000002AD8B4012AD8B4022AD8B4032A03AE2F
:103E9000E5EF1EF00E6A0E88FF0C0E6A0CA053EFC1
:103EA0001FF022EC2BF0000F12000501BD6B010E7C
:103EB000B85D026E000EB959036E02C0B8F503C0BA
:103EC000B9F50350190802E10250AD08FF0ED8B051
:103ED000000E006E0050BC15026E0250000A07E092
:103EE000BD2BAD0EB85DBE6F190EB959BF6FBD5178
:103EF000000A05E0AD0EC06F190EC16F04D0B8C541
:103F0000C0F5B9C5C1F5B751C11902E1C051B61923
:103F10000FE1B6C5C2F5B7C5C3F526EC29F000C060
:103F2000C4F5BAC5C2F5BBC5C3F55AEC29F036D005
:103F3000100E0501C56FB6C5C6F5B7C5C7F588EC47
:103F400029F0120E0501C56FC0C5C6F5C1C5C7F57C
:103F500088EC29F0140E0501C56FBAC5C6F5BBC5BE
:103F6000C7F588EC29F01F0E0501C26F100EC36F54
:103F700063EC2AF01F0E0501C26F200EC36F54ECD4
:103F80002AF01F0E0501C26F13EC2AF0200E001458
:103F9000026E0250000A02E00000F3D70501BD5195
:103FA000000A1AE0B651B85D006EB751B959016EFA
:103FB0000050BA270150BB23BE51BA5FBF51BB5B53
:103FC000BA4BBB2B010EBE5DB86F000EBF59B96F67
:103FD000B66BB76BBD6B8BD712000301EB51FF08BB
:103FE00002E1EA51FF0803E2EA6BEB6B8CD0EC0EC6
:103FF00005016A6F030E6B6F100E046E270E056EBF
:10400000EAC300F0EBC301F07BEC28F0300E002691
:10401000D8B0012A00C0ECF3E80E046E030E056E62
:10402000EAC300F0EBC301F07BEC28F00A0E046E4B
:10403000000E056E7BEC28F008C000F009C001F00E
:10404000300E0026D8B0012A00C0EDF3640E046ED5
:10405000000E056EEAC300F0EBC301F07BEC28F024
:104060000A0E046E000E056E7BEC28F008C000F00E
:1040700009C001F0300E0026D8B0012A00C0EEF3CE
:104080000A0E046E000E056EEAC300F0EBC301F0E9
:104090007BEC28F00A0E046E000E056E7BEC28F017
:1040A00008C000F009C001F0300E0026D8B0012A87
:1040B00000C0EFF30A0E046E000E056EEAC300F0B6
:1040C000EBC301F07BEC28F008C000F009C001F060
:1040D000300E0026D8B0012A00C0F0F3A00E050172
:1040E0006C6F9BEC07F09AEC22F0800E05016A6F72
:1040F000020E6B6F7EC26CF57FC26DF569EC13F03A
:104100000301EA4BEB2B12002FEC2BF0090E006E93
:10411000A6C5B7F5A7C5B8F5A8C5B9F5A9C5BAF537
:10412000005008E00501B737B791B837B937BA374B
:10413000FF0FF7D70501180EB66FFF0EBB6F7DECB2
:1041400024F00050000A06E0BDEC2AF0010E050143
:10415000AC6F6BD00501FF0EC26F44EC2AF0FF0E6E
:104160000501C26F44EC2AF0FE0E0501C26F44EC5B
:104170002AF00501AD6BAE6B800E010A006E800E59
:10418000AE19005C02E1AD51FF0818E3AD51AA255C
:10419000E96EAE51AB21EA6EE9CFE9FFEACFEAFF63
:1041A000EECFC2F544EC2AF00501AE51010A02E15E
:1041B000FF0EAD1903E0AD4BAE2BDED70501FF0EB0
:1041C000C26F44EC2AF0FF0E0501C26F44EC2AF0E6
:1041D000FF0E0501C26F44EC2AF000C0ADF5000EE1
:1041E0000501AE6F1F0EAD15016EAEC502F0000EDB
:1041F000021601C0ADF502C0AEF5000E021802E1D4
:10420000050E011806E0BDEC2AF0020E0501AC6FA8
:104210000CD00501FF0EC26F44EC2AF00050FF0ADB
:10422000F8E1BDEC2AF00501AC6BACC500F0120062
:1042300051C089F352C08AF353C08BF354C08CF33E
:10424000A2EC21F000EC23F0D5EC28F055C004F0EE
:1042500056C005F057C006F058C007F089C300F0FB
:104260008AC301F0000E026E036E04500026055052
:104270000122065002220750032200C05BF201C057
:104280005CF202C05DF203C05EF200C0A6F501C0A0
:10429000A7F502C0A8F503C0A9F5590E0501AA6F3C
:1042A000000EAB6F64EC23F0590E006E000E016E31
:1042B00003018B510024E16E8C510120E26EFF0E50
:1042C00002016315006E00C0E6FF64C200F000C08A
:1042D000E6FF5BC2A6F55CC2A7F55DC2A8F55EC2AB
:1042E000A9F5590E0501AA6F000EAB6F84EC20F002
:1042F00089C300F08AC301F0000E026E036E020152
:104300005F51002660510122615102226251032255
:1043100000C05BF201C05CF202C05DF203C05EF25D
:1043200000C0A6F501C0A7F502C0A8F503C0A9F515
:10433000590E0501AA6F000EAB6F84EC20F0EDEC76
:1043400025F0120005019D6B516A526A040E536EEE
:10435000000E546E55C0A6F556C0A7F557C0A8F577
:1043600058C0A9F5590EAA6F000EAB6F64EC23F08C
:1043700005019D51000A62E1545002015A1902E1FF
:104380005951531832E1536A546A514A522A55C05E
:1043900004F056C005F057C006F058C007F051C0F1
:1043A00000F052C001F0000E026E036E04500026B1
:1043B00005500122065002220750032200C05BF282
:1043C00001C05CF202C05DF203C05EF200C0A6F55F
:1043D00001C0A7F502C0A8F503C0A9F5590E050153
:1043E000AA6F000EAB6F64EC23F0590E006E000E46
:1043F000016E53500024E96E54500120EA6EE9CF5B
:10440000E9FFEACFEAFFEECF00F0EECF9EF50050D5
:10441000000AFF0ED8A4000E046E05019E51000A8A
:10442000FF0ED8A4000E006E0450001602E0010E2C
:104430009D6F020E5326D8B0542A9AD79D6B020E58
:10444000535E000E545A12006CC500F0010E056E4A
:10445000005004E005360590FF0FFBD705C01CF0A7
:10446000051C046E04C01BF06AC519F06BC51AF078
:10447000090E05016A25026E000E6B21036E02C053
:1044800019F003C01AF0FF0E0214E96E03C000F029
:1044900000C0EAFF0550EF12090EE9260450EF169E
:1044A0006E6B6E5109080AE3FF0EC26F44EC2AF0EE
:1044B00005016E51090A02E06E2BF3D72FEC2BF0A9
:1044C0000501B66BB76BB86BB96BBA6B950EBB6F6A
:1044D0007DEC24F000C06EF5BDEC2AF005016E51B4
:1044E000010A03E0010E6D6F22D06E6B6E51FF0862
:1044F0001CE32FEC2BF0010E0501B66FB76BB86B08
:10450000B96BBA6BFF0EBB6F7DEC24F000C06FF58A
:10451000BDEC2AF005016F51000A02E16D6B07D076
:104520006E51FF0A02E06E2BE1D7010E6D6F6DC573
:1045300000F01200FF0E05018E6F83EC10F00301F6
:10454000C86BC96BCA6BCB6BCC6BCD6BCE6BCF6BB7
:10455000D66BD5EC28F0EDEC25F085C304F086C3CE
:1045600005F087C306F088C307F083C300F084C357
:1045700001F0000E026E036E045000260550012269
:10458000065002220750032200C05BF201C05CF219
:1045900002C05DF203C05EF200C0A6F501C0A7F53F
:1045A00002C0A8F503C0A9F5590E0501AA6F000EB7
:1045B000AB6F64EC23F0590E046E000E056E1C0EFA
:1045C00003018125006E000E8221016E005004243B
:1045D000E16E01500520E26EE66AE66AE66AE66A86
:1045E0005BC2A6F55CC2A7F55DC2A8F55EC2A9F5DF
:1045F000590E0501AA6F000EAB6F84EC20F012007B
:10460000590E006E000E016E53500024E16E54509E
:104610000120E26EFF0EE66EFF0EE66E55C004F05E
:1046200056C005F057C006F058C007F051C000F062
:1046300052C001F0000E026E036E045000260550B9
:104640000122065002220750032200C05BF201C083
:104650005CF202C05DF203C05EF200C0A6F501C0CC
:10466000A7F502C0A8F503C0A9F5590E0501AA6F68
:10467000000EAB6F84EC20F051C000F052C001F08E
:10468000000E026E036E02015F510026605101228E
:10469000615102226251032200C05BF201C05CF250
:1046A00002C05DF203C05EF200C0A6F501C0A7F52E
:1046B00002C0A8F503C0A9F5590E0501AA6F000EA6
:1046C000AB6F84EC20F012002FEC2BF0090E006E83
:1046D000A6C5B7F5A7C5B8F5A8C5B9F5A9C5BAF572
:1046E000005008E00501B737B791B837B937BA3786
:1046F000FF0FF7D70501110EB66FFF0EBB6F7DECF4
:1047000024F00050000A06E0BDEC2AF0010E05017D
:10471000AC6F39D00501FF0EC26F44EC2AF0005097
:10472000FE0AF8E10501AD6BAE6BAE51010802E186
:10473000AD51FF081AE3AD51AA25AF6FAE51AB21C1
:10474000B06FFF0EC26F44EC2AF0AFC5E1FFB0C5F9
:10475000E2FF00C0E6FF0501AE51010A02E1FF0ED3
:10476000AD1903E0AD4BAE2BE0D70501FF0EC26FD4
:1047700044EC2AF0FF0E0501C26F44EC2AF0BDECB8
:104780002AF00501AC6BACC500F012008282020E6B
:1047900005015F6F606B616B010E626F40EC29F089
:1047A0001A0E0C6EFF0E0B6EFF0E0A6E0C2E01D051
:1047B00007D00B2E01D003D00A2EFED7FAD7F6D79A
:1047C0007F0E0B6EFF0E0A6E0B2E01D003D00A2E49
:1047D000FED7FAD7580E0A6E0A2EFED70000000048
:1047E000820E05015F6F0F0E606F020E616F2EEC7F
:1047F00004F00050000A2AE105015F6B606B616BF9
:10480000010E626F40EC29F01A0E0C6EFF0E0B6E5B
:10481000FF0E0A6E0C2E01D007D00B2E01D003D054
:104820000A2EFED7FAD7F6D77F0E0B6EFF0E0A6E52
:104830000B2E01D003D00A2EFED7FAD7580E0A6EDF
:104840000A2EFED700000000EDEC1FF0120005015B
:10485000C26B13EC2AF000C095F5000E0501966FAF
:10486000010EC26F13EC2AF000C004F0000E056EBA
:1048700004C001F0006A0050050195130150961321
:10488000C56B8EC5C6F58FC5C7F588EC29F002EC5F
:104890002AF03A0E0501C86FF9EC2AF00501946B75
:1048A0009251000A1BE0C56B24EC2AF094C502F07B
:1048B000000E036E025005019025E96E0350912110
:1048C000EA6EE9CFE9FFEACFEAFFEECF04F000504D
:1048D000041801E003D0942B9207E2D7CCEC2AF025
:1048E0000501C56B95C5C6F596C5C7F588EC29F0D9
:1048F00092C593F593C500F01200400E0501B62550
:10490000C26F44EC2AF0BAC5C2F544EC2AF0B9C52E
:10491000C2F544EC2AF0B8C5C2F5B9C5C3F5BAC5AD
:10492000C4F544EC2AF0FF0E0501B715C26F44EC44
:104930002AF0BBC5C2F544EC2AF0FF0E0501C26F98
:1049400044EC2AF000C0BCF50501BD6BBE6BBC5148
:10495000000A000ED8A4FF0E016EBC51010A000E21
:10496000D8A4FF0E006E005001164E0EBE5D02E18F
:10497000200EBD5DFF0ED8B0000E006E0150001677
:104980000AE0FF0EC26F44EC2AF000C0BCF505013E
:10499000BD4BBE2BDCD70501BCC500F012000301E6
:1049A000856B866B876B886B836B846B816B826B8B
:1049B000C86BC96BCA6BCB6B0201636B646B676BB3
:1049C000686B696B6A6B0301CC6BCD6BCE6BCF6B85
:1049D000556A566A576A586A02015F6B606B616B71
:1049E000626B516A526A0301896B8A6B536A546A1B
:1049F0008B6B8C6B0201596B5A6B656B666B030199
:104A0000D06BD16BD26BD36BD46BD56B02016C6B5B
:104A10006D6B6E6B6F6B6B6B0301D66BD76BD86B6B
:104A2000D96BDA6BDB6BDC6BDD6BDE6BDF6BE06B4A
:104A3000120063C204F064C205F0000E066E076E39
:104A400004C08EF505C08FF506C090F507C091F53E
:104A500005018E378E918F379037913759C204F008
:104A60005AC205F0000E066E076E8EC500F08FC5A7
:104A700001F090C502F091C503F0A9EC1EF000C052
:104A800051F001C052F059C204F05AC205F0000EB4
:104A9000066E076E8EC500F08FC501F090C502F05E
:104AA00091C503F0A9EC1EF008C000F009C001F0A8
:104AB0000AC002F00BC003F000C053F001C054F074
:104AC00012000501966B976B02017E6B7F6B94C59C
:104AD00096F595C597F50501986B010E945D9B6F52
:104AE000000E95599C6F98519B5D1FE3800E006EE0
:104AF000020E016E02017E5100240501996F020130
:104B00007F51012005019A6FDEEC29F099C5E1FF84
:104B10009AC5E2FF00C0E6FF02017E4B7F2B050134
:104B200098519B1902E0982BD8D7800E006E020E88
:104B3000016E02017E510024E16E7F510120E26E80
:104B4000E66A010E0301806F96C500F097C501F07B
:104B5000120002017E6B7F6B0501966B976B986B61
:104B6000986B010E945D9B6F000E95599C6F985148
:104B70009B5D1FE3800E006E020E016E02017E51EE
:104B800000240501996F02017F51012005019A6FF0
:104B9000DEEC29F099C5E1FF9AC5E2FF00C0E6FF0F
:104BA00002017E4B7F2B050198519B1902E0982B47
:104BB000D8D7800E006E020E016E02017E510024D5
:104BC000E16E7F510120E26EE66A010E0301806F03
:104BD00096C500F097C501F01200020E086E000E97
:104BE000096E0A6E0B6E63C200F064C201F0000E23
:104BF000026E036E00C004F001C005F002C006F0B2
:104C000003C007F00850045E0950055A0A50065ABE
:104C10000B50075A04C067F205C068F206C069F27B
:104C200007C06AF26BC200F0000E016E026E036EE6
:104C30009EEC26F06CC204F06DC205F06EC206F068
:104C40006FC207F0045000240201676F0550012075
:104C5000686F06500220696F075003206A6F1200C8
:104C6000FF0E0501A615E96EA7C500F000C0EAFF1A
:104C7000FF0EA815E16EA9C500F000C0E2FFAC6B05
:104C8000AD6B0501000EAB1902E1000EAA191BE085
:104C9000010EAA5F000EAB5BEECF00F0000E016EBE
:104CA000E650005C026E000E0158036E02C0ACF5C7
:104CB00003C0ADF5000E031802E1000E021801E07A
:104CC00002D00501DED70501ACC500F0ADC501F08D
:104CD0001200828439EC2BF0820E05015F6F0F0EFB
:104CE000606F616B820E626F0F0E636F010E646FF7
:104CF000FB0E656F030E666F010E676F040E686F23
:104D0000010E696F29EC17F0830E05015F6FDBEC74
:104D10002AF0200E05015F6FEAEC2AF0050E05016E
:104D20009D6F040E9E6F090E9F6F040EA06F0D0EF7
:104D3000A16F040EA26FBDEC27F0120000010D6AF6
:104D400003AEAEEF26F0001E011E021E031E000E73
:104D5000002A012202220322810E0D2607AEBBEF9C
:104D600026F0041E051E061E071E000E042A05223C
:104D7000062207220D2A33EC27F00DA0D1EF26F0F2
:104D8000001E011E021E031E081E091E0A1E0B1E07
:104D9000000E002A012202220322082209220A22EE
:104DA0000B2212000501B851B625BA6FB951B721CF
:104DB000BB6F010EBA5F000EBB5B100EC56FB6C5B0
:104DC000C6F5B7C5C7F588EC29F0120E0501C56F09
:104DD000BAC5C6F5BBC5C7F588EC29F01F0E05019D
:104DE000C26F300EC36F54EC2AF01F0E0501C26F64
:104DF00013EC2AF0200E0014016E0150000A02E0AC
:104E00000000F3D71200AEEC2AF0140E05019D6FDE
:104E10008EC59EF59FEC2AF0120E0501C26F010EA1
:104E2000C36F54EC2AF034EC2AF0120E0501C26F65
:104E3000010EC36F63EC2AF0160E0501C26F13EC6E
:104E40002AF091C5E1FF92C5E2FF00C0E6FF170E10
:104E50000501C26F13EC2AF08FC5E1FF90C5E2FF98
:104E600000C0E6FF12000001220E0C6E086A096AFB
:104E70000A6A0B6A0C06D8B460EF27F0D8900B32A0
:104E80000A32093208320332023201320032D8A02B
:104E90003AEF27F00C06D8B458EF27F00450082654
:104EA0000550092206500A2207500B223FEF27F037
:104EB000045008260550092206500A2207500B22EA
:104EC0001200020E0501C56FB6C5C6F5B7C5C7F518
:104ED00088EC29F002EC2AF07A0E0501C86FF9EC93
:104EE0002AF00501BB6BBA51000A16E0BBC500F001
:104EF000000E016E0050B825E96E0150B921EA6E2E
:104F0000E9CFE9FFEACFEAFFEECFC8F5F9EC2AF0E6
:104F10000501BB2BBA07E7D7CCEC2AF0120005013C
:104F2000A951FF0A02E1FF0EA81907E0C56BA8C549
:104F3000C6F5A9C5C7F588EC29F002EC2AF03A0EAF
:104F40000501C86FF9EC2AF00501AA51000A12E028
:104F5000A6C5ABF5A7C5ACF5C56B24EC2AF0ABC56F
:104F6000E1FFACC5E2FF00C0E6FF0501A64BA72BA1
:104F7000AA07EAD7CCEC2AF01200450E0501A66F6D
:104F8000000EA76F9DC5A8F59EC5A9F5040EAA6FD2
:104F9000000EAB6FB7EC28F0490E0501A66F000EAE
:104FA000A76F9FC5A8F5A0C5A9F5040EAA6F000EAE
:104FB000AB6FB7EC28F04D0E0501A66F000EA76F82
:104FC000A1C5A8F5A2C5A9F5040EAA6F000EAB6F86
:104FD000B7EC28F0120002EC2AF07A0E0501C86F37
:104FE000F9EC2AF00501AA531EE0A6C500F0A7C5FA
:104FF00001F0A8C502F0A9C503F000C0F6FF01C08A
:10500000F7FF02C0F8FF0900F5CF00F000C0C8F5B7
:10501000F9EC2AF0010E0501A627000EA723A8230C
:10502000A923AA07DFD7CCEC2AF0120000010B6AF3
:105030000A6A096A00500402F4CF09F0F3CF08F0BD
:1050400001500502F4CF0BF0F3CF0AF00050050237
:10505000F3500926F4500A22E86A0B220150040298
:10506000F3500926F4500A22E86A0B2208C000F027
:1050700009C001F00AC002F00BC003F01200B50E27
:105080000501B66F190EB76FBB0EB86F190EB96F69
:10509000AF0EBA6F190EBB6FBC6B55EC1FF0B50E9F
:1050A0000501B66F190EB76F1D0EB86F000EB96F00
:1050B000060EBA6F61EC27F01200AEEC2AF0140E67
:1050C00005019D6F8EC59EF59FEC2AF034EC2AF009
:1050D000160E05019D6F90C59EF59FEC2AF034ECED
:1050E0002AF0170E05019D6F8FC59EF59FEC2AF0E3
:1050F00034EC2AF012000001086A096A100E0C6EE6
:105100000134083609360450085E0550D8A0053C25
:10511000095ED8B093EF28F0045008260550D8B0A7
:10512000053C0926D890003601360C2E80EF28F079
:105130001200C90E0501B66F190EB76FCD0EB86F0C
:10514000190EB96FCD0EBA6F190EBB6FBC6B55EC53
:105150001FF0C90E0501B66F190EB76F230EB86F99
:10516000000EB96F040EBA6F61EC27F01200FF0E4B
:105170000501A615E96EA7C500F000C0EAFFFF0E05
:10518000A815E16EA9C500F000C0E2FF000EAB1942
:1051900002E1000EAA1907E0010EAA5F000EAB5B48
:1051A000E6CFEEFFF3D70501120051C000F052C068
:1051B00001F065C204F066C205F016EC28F000C0EC
:1051C00063F201C064F253C002F054C003F0033232
:1051D0000232039E025000240201636F035001203B
:1051E000646F120002EC2AF07A0E0501C86FF9EC28
:1051F0002AF00501B8530DE0B6C5E9FFB7C5EAFFCF
:10520000EECFC8F5F9EC2AF00501B64BB72BB8077D
:10521000F0D7CCEC2AF012000501C46BC4C500F035
:10522000000E016E0050C225E96E0150C321EA6EE6
:10523000E9CFE9FFEACFEAFFEECF02F00250000A21
:1052400002E0C42BEBD7C4C500F012000501C56B0A
:10525000C2C5C6F5C3C5C7F588EC29F002EC2AF033
:105260003A0E0501C86FF9EC2AF00501C56B24EC74
:105270002AF000C0C4F5CCEC2AF0C4C500F012003E
:10528000949A94969488C66A05015F51C61261513A
:10529000C6126051C7126151000A05E06251000A4E
:1052A000D8B4C78C04D06251010AD8B4C78C0501A8
:1052B000C68A1200020E0501C56FC2C5C6F5C3C578
:1052C000C7F588EC29F002EC2AF07A0E0501C86FC8
:1052D000F9EC2AF0C4C5C8F5F9EC2AF0CCEC2AF0B8
:1052E0001200FF0E05019D15E96E9EC500F000C07D
:1052F000EAFF000EA11902E1000EA01907E0010E5D
:10530000A05F000EA15B9FC5EEFFF3D70501120061
:1053100002EC2AF0400E0501C511C86FF9EC2AF025
:10532000FF0E0501C615C86FF9EC2AF0C7C500F0DD
:1053300000C0C8F5F9EC2AF0CCEC2AF0120002EC1F
:105340002AF07A0E0501C86FF9EC2AF0B7C500F013
:1053500000C0C8F5F9EC2AF0FF0E0501B615C86FBC
:10536000F9EC2AF0CCEC2AF0120005015E6B81EC1E
:105370002AF0190E0501C26F13EC2AF00050000844
:1053800004E28BEC0AF000C05EF572EC2AF05EC518
:1053900000F0120005018F51190802E18E51AD088D
:1053A00004E2AE0E8E5F190E8F5B0501C56B8EC5D4
:1053B000C6F58FC5C7F588EC29F0120002EC2AF07B
:1053C0003A0E0501C86FF9EC2AF00501C56B24EC13
:1053D0002AF000C0A6F5CCEC2AF0A6C500F0120019
:1053E000070E0B6EFF0E0A6E0B2E01D003D00A2E95
:1053F000FED7FAD7710E0A6E0A2EFED70000000003
:105400000000120015C0E9FF16C0EAFFEECF01F060
:10541000171C006E0150001615C0E1FF16C0E2FF18
:1054200000C0E6FF120002EC2AF0C2C5C8F5F9EC94
:105430002AF00501C56B24EC2AF000C0C3F5CCECC2
:105440002AF0C3C500F01200C5C5C9FFC7CF01F0DF
:10545000010E01160150000A02E10000F7D7C9CF82
:10546000C6F5C6C500F0120005019D6B9D51C70829
:105470000AE3F0EC29F0F0EC29F005019D51C70A90
:1054800002E09D2BF3D71200C2C5C9FFC7CF01F0C0
:10549000010E01160150000A02E10000F7D7C9CF42
:1054A000C3F5C3C500F0120002EC2AF0800E05011E
:1054B000C211C86FF9EC2AF0C3C5C8F5F9EC2AF09F
:1054C000CCEC2AF0120002EC2AF0A00E0501C21169
:1054D000C86FF9EC2AF0C3C5C8F5F9EC2AF0CCEC9A
:1054E0002AF012001F0E0501C26F010EC36F63EC9C
:1054F0002AF01F0E0501C26F020EC36F63EC2AF083
:1055000012001F0E0501C26F010EC36F54EC2AF08A
:105510001F0E0501C26F020EC36F63EC2AF012006A
:105520001F0E0501C26F010EC36F54EC2AF01F0E4F
:105530000501C26F020EC36F54EC2AF0120002EC98
:105540002AF0400E05019D11C86FF9EC2AF09EC5A6
:10555000C8F5F9EC2AF0CCEC2AF012001F0E050178
:10556000C26F010EC36F63EC2AF01F0E0501C26FFC
:10557000020EC36F54EC2AF01200FF0E1914E96EEC
:105580001AC000F000C0EAFF1C50EF12FF0E050128
:10559000C26F44EC2AF0120015C0E9FF16C0EAFF02
:1055A000EECF00F01750001215C0E1FF16C0E2FF69
:1055B00000C0E6FF1200A30E05015F1781EC2AF080
:1055C000180E0501C26F5FC5C3F554EC2AF072ECEA
:1055D0002AF01200A30E05015F1781EC2AF0180EC5
:1055E0000501C26F5FC5C3F563EC2AF072EC2AF0C7
:1055F0001200C8C5C9FFC7CF01F0010E0116015046
:10560000000A02E10000F7D7C9CFC9F5120002EC89
:105610002AF07A0E0501C86FF9EC2AF0C2C5C8F568
:10562000F9EC2AF0CCEC2AF01200B6C5C2F5B7C5E9
:10563000C3F5B8C5C4F55AEC29F0B9C5C2F507ECF5
:105640002BF0120000010B1E0A1E091E081E082A5C
:10565000D8B4092AD8B40A2AD8B40B2A1200FF0EEB
:105660001914E96E1AC000F000C0EAFF1B50EF16D3
:105670001200949A94969488C66A400EC76EC68AA1
:1056800012001200010106001223344500008000C0
:105690006382536335013703010306FFFFFFFFFFFA
:020000040030CA
:0E000000FFFFFFFFFFFFFFFFFFFFFFFFFFFF00
:00000001FF
