:02000000FA28DC
:1000060083120313FB01FA01F9018030F800F10CA9
:10001600F00C031C17287408F90775080318750FE8
:10002600FA070318FB0A0310F01F1F287408FA07C3
:1000360075080318750FFB07FB0CFA0CF90CF80C86
:10004600031C0A287B08F3007A08F2007908F100FD
:060056007808F00008002C
:10005C000E3083120313FD00FD0B32280000080044
:0C006C00831203139B011D129D1208005B
:10007800831603138710831212150C309D04080091
:10008800831603130711831212150C309704080006
:0C00980083120313950117129712080041
:1000A4003C30831203139F05C0309F002308F000E7
:1000B400F00D7010F00D701070089F0483169F17D8
:1000C40083121F142E209F149F1C6A280000662888
:1000D4001F101E08F100F00183161E08700483121D
:1000E400A4007108A5000030A5042408F000250828
:0400F400F10008000F
:1000F800831603131208F000F101F00A0319F10A3C
:1001080083122308F400F50103200630F20070087A
:10011800F4007108F500720803199728F50CF40C1F
:10012800F513FF3E90287408F0007508F100F00DF3
:10013800F10D7010F00DF10D7010F00DF10D701043
:10014800F00DF10D701030307005F3007408F000F8
:100158007508F100F10CF00CF113F10CF00CF1132F
:0E016800700895000F30970573089704080083
:10017600831603131208F000F101F00A0319F10ABD
:1001860083122308F400F50103200630F2007008FC
:10019600F4007108F50072080319D628F50CF40C62
:1001A600F513FF3ECF287408F0007508F100F00D36
:1001B600F10D7010F00DF10D7010F00DF10D7010C5
:1001C600F00DF10D701030307005F3007408F0007A
:1001D6007508F100F10CF00CF113F10CF00CF113B1
:0E01E60070089B000F309D0573089D040800F3
:1001F4007530831603138F00013085008312850147
:10020400870183168701013003178800890183124F
:10021400031312109210121492147C30831692005D
:100224004C2012109210121492147C3083169200F7
:10023400362044203C20A30152207008F2007108AB
:10024400F300F30CF20CF313F30CF20CF313003081
:100254007306031D2F2972082206031D462922084E
:10026400A3007C202208A300BB200B30FB00263017
:10027400FC005D30FD00FD0B3D29FC0B3D29FB0B13
:0A0284003D29000000001D29462955
:04400E00F22F000786
:00000001FF
